{
  "_format": "hh-sol-artifact-1",
  "contractName": "KAMI721C",
  "sourceName": "contracts/KAMI721C.sol",
  "abi": [
    {
      "inputs": [
        {
          "internalType": "address",
          "name": "paymentToken_",
          "type": "address"
        },
        {
          "internalType": "string",
          "name": "name_",
          "type": "string"
        },
        {
          "internalType": "string",
          "name": "symbol_",
          "type": "string"
        },
        {
          "internalType": "string",
          "name": "baseTokenURI_",
          "type": "string"
        },
        {
          "internalType": "address",
          "name": "platformAddress_",
          "type": "address"
        },
        {
          "internalType": "uint96",
          "name": "platformCommissionPercentage_",
          "type": "uint96"
        },
        {
          "internalType": "address",
          "name": "adminAddress_",
          "type": "address"
        }
      ],
      "stateMutability": "nonpayable",
      "type": "constructor"
    },
    {
      "inputs": [],
      "name": "AccessControlBadConfirmation",
      "type": "error"
    },
    {
      "inputs": [
        {
          "internalType": "address",
          "name": "account",
          "type": "address"
        },
        {
          "internalType": "bytes32",
          "name": "neededRole",
          "type": "bytes32"
        }
      ],
      "name": "AccessControlUnauthorizedAccount",
      "type": "error"
    },
    {
      "inputs": [],
      "name": "AlreadyClaimed",
      "type": "error"
    },
    {
      "inputs": [],
      "name": "ApprovalToCurrentOwner",
      "type": "error"
    },
    {
      "inputs": [],
      "name": "ArrayLengthMismatch",
      "type": "error"
    },
    {
      "inputs": [],
      "name": "CallerNotOwner",
      "type": "error"
    },
    {
      "inputs": [],
      "name": "CallerNotTokenOwnerOrApproved",
      "type": "error"
    },
    {
      "inputs": [],
      "name": "CallerNotUpgrader",
      "type": "error"
    },
    {
      "inputs": [],
      "name": "ContractPaused",
      "type": "error"
    },
    {
      "inputs": [],
      "name": "ECDSAInvalidSignature",
      "type": "error"
    },
    {
      "inputs": [
        {
          "internalType": "uint256",
          "name": "length",
          "type": "uint256"
        }
      ],
      "name": "ECDSAInvalidSignatureLength",
      "type": "error"
    },
    {
      "inputs": [
        {
          "internalType": "bytes32",
          "name": "s",
          "type": "bytes32"
        }
      ],
      "name": "ECDSAInvalidSignatureS",
      "type": "error"
    },
    {
      "inputs": [
        {
          "internalType": "uint256",
          "name": "numerator",
          "type": "uint256"
        },
        {
          "internalType": "uint256",
          "name": "denominator",
          "type": "uint256"
        }
      ],
      "name": "ERC2981InvalidDefaultRoyalty",
      "type": "error"
    },
    {
      "inputs": [
        {
          "internalType": "address",
          "name": "receiver",
          "type": "address"
        }
      ],
      "name": "ERC2981InvalidDefaultRoyaltyReceiver",
      "type": "error"
    },
    {
      "inputs": [
        {
          "internalType": "uint256",
          "name": "tokenId",
          "type": "uint256"
        },
        {
          "internalType": "uint256",
          "name": "numerator",
          "type": "uint256"
        },
        {
          "internalType": "uint256",
          "name": "denominator",
          "type": "uint256"
        }
      ],
      "name": "ERC2981InvalidTokenRoyalty",
      "type": "error"
    },
    {
      "inputs": [
        {
          "internalType": "uint256",
          "name": "tokenId",
          "type": "uint256"
        },
        {
          "internalType": "address",
          "name": "receiver",
          "type": "address"
        }
      ],
      "name": "ERC2981InvalidTokenRoyaltyReceiver",
      "type": "error"
    },
    {
      "inputs": [],
      "name": "ERC721EnumerableForbiddenBatchMint",
      "type": "error"
    },
    {
      "inputs": [
        {
          "internalType": "address",
          "name": "sender",
          "type": "address"
        },
        {
          "internalType": "uint256",
          "name": "tokenId",
          "type": "uint256"
        },
        {
          "internalType": "address",
          "name": "owner",
          "type": "address"
        }
      ],
      "name": "ERC721IncorrectOwner",
      "type": "error"
    },
    {
      "inputs": [
        {
          "internalType": "address",
          "name": "operator",
          "type": "address"
        },
        {
          "internalType": "uint256",
          "name": "tokenId",
          "type": "uint256"
        }
      ],
      "name": "ERC721InsufficientApproval",
      "type": "error"
    },
    {
      "inputs": [
        {
          "internalType": "address",
          "name": "approver",
          "type": "address"
        }
      ],
      "name": "ERC721InvalidApprover",
      "type": "error"
    },
    {
      "inputs": [
        {
          "internalType": "address",
          "name": "operator",
          "type": "address"
        }
      ],
      "name": "ERC721InvalidOperator",
      "type": "error"
    },
    {
      "inputs": [
        {
          "internalType": "address",
          "name": "owner",
          "type": "address"
        }
      ],
      "name": "ERC721InvalidOwner",
      "type": "error"
    },
    {
      "inputs": [
        {
          "internalType": "address",
          "name": "receiver",
          "type": "address"
        }
      ],
      "name": "ERC721InvalidReceiver",
      "type": "error"
    },
    {
      "inputs": [
        {
          "internalType": "address",
          "name": "sender",
          "type": "address"
        }
      ],
      "name": "ERC721InvalidSender",
      "type": "error"
    },
    {
      "inputs": [
        {
          "internalType": "uint256",
          "name": "tokenId",
          "type": "uint256"
        }
      ],
      "name": "ERC721NonexistentToken",
      "type": "error"
    },
    {
      "inputs": [
        {
          "internalType": "address",
          "name": "owner",
          "type": "address"
        },
        {
          "internalType": "uint256",
          "name": "index",
          "type": "uint256"
        }
      ],
      "name": "ERC721OutOfBoundsIndex",
      "type": "error"
    },
    {
      "inputs": [],
      "name": "EmptyArray",
      "type": "error"
    },
    {
      "inputs": [],
      "name": "EmptyTokenURI",
      "type": "error"
    },
    {
      "inputs": [],
      "name": "EnforcedPause",
      "type": "error"
    },
    {
      "inputs": [],
      "name": "ExpectedPause",
      "type": "error"
    },
    {
      "inputs": [],
      "name": "InsufficientPaymentAllowance",
      "type": "error"
    },
    {
      "inputs": [],
      "name": "InsufficientPaymentBalance",
      "type": "error"
    },
    {
      "inputs": [],
      "name": "InvalidDuration",
      "type": "error"
    },
    {
      "inputs": [],
      "name": "InvalidPlatformCommission",
      "type": "error"
    },
    {
      "inputs": [],
      "name": "InvalidPrice",
      "type": "error"
    },
    {
      "inputs": [],
      "name": "InvalidRecipient",
      "type": "error"
    },
    {
      "inputs": [],
      "name": "InvalidRentalPrice",
      "type": "error"
    },
    {
      "inputs": [],
      "name": "InvalidRoyaltyPercentage",
      "type": "error"
    },
    {
      "inputs": [],
      "name": "InvalidShortString",
      "type": "error"
    },
    {
      "inputs": [],
      "name": "InvalidSigner",
      "type": "error"
    },
    {
      "inputs": [],
      "name": "InvalidTokenId",
      "type": "error"
    },
    {
      "inputs": [],
      "name": "MintToZeroAddress",
      "type": "error"
    },
    {
      "inputs": [],
      "name": "OwnerCannotRentOwnToken",
      "type": "error"
    },
    {
      "inputs": [],
      "name": "QueryForNonexistentToken",
      "type": "error"
    },
    {
      "inputs": [],
      "name": "RentalNotActive",
      "type": "error"
    },
    {
      "inputs": [],
      "name": "RoyaltiesMustSumTo10000",
      "type": "error"
    },
    {
      "inputs": [],
      "name": "RoyaltyPercentageTooHigh",
      "type": "error"
    },
    {
      "inputs": [
        {
          "internalType": "address",
          "name": "token",
          "type": "address"
        }
      ],
      "name": "SafeERC20FailedOperation",
      "type": "error"
    },
    {
      "inputs": [],
      "name": "SellerNotTokenOwner",
      "type": "error"
    },
    {
      "inputs": [],
      "name": "SignatureExpired",
      "type": "error"
    },
    {
      "inputs": [
        {
          "internalType": "string",
          "name": "str",
          "type": "string"
        }
      ],
      "name": "StringTooLong",
      "type": "error"
    },
    {
      "inputs": [],
      "name": "TokenAlreadyMinted",
      "type": "error"
    },
    {
      "inputs": [],
      "name": "TokenDoesNotExist",
      "type": "error"
    },
    {
      "inputs": [],
      "name": "TokenPriceNotSet",
      "type": "error"
    },
    {
      "inputs": [],
      "name": "TooManyRecipients",
      "type": "error"
    },
    {
      "inputs": [],
      "name": "TransferFromIncorrectOwner",
      "type": "error"
    },
    {
      "inputs": [],
      "name": "TransferToNonERC721ReceiverImplementer",
      "type": "error"
    },
    {
      "inputs": [],
      "name": "TransferToZeroAddress",
      "type": "error"
    },
    {
      "inputs": [],
      "name": "ZeroAddress",
      "type": "error"
    },
    {
      "anonymous": false,
      "inputs": [
        {
          "indexed": true,
          "internalType": "address",
          "name": "owner",
          "type": "address"
        },
        {
          "indexed": true,
          "internalType": "address",
          "name": "approved",
          "type": "address"
        },
        {
          "indexed": true,
          "internalType": "uint256",
          "name": "tokenId",
          "type": "uint256"
        }
      ],
      "name": "Approval",
      "type": "event"
    },
    {
      "anonymous": false,
      "inputs": [
        {
          "indexed": true,
          "internalType": "address",
          "name": "owner",
          "type": "address"
        },
        {
          "indexed": true,
          "internalType": "address",
          "name": "operator",
          "type": "address"
        },
        {
          "indexed": false,
          "internalType": "bool",
          "name": "approved",
          "type": "bool"
        }
      ],
      "name": "ApprovalForAll",
      "type": "event"
    },
    {
      "anonymous": false,
      "inputs": [],
      "name": "EIP712DomainChanged",
      "type": "event"
    },
    {
      "anonymous": false,
      "inputs": [
        {
          "indexed": false,
          "internalType": "address",
          "name": "account",
          "type": "address"
        }
      ],
      "name": "Paused",
      "type": "event"
    },
    {
      "anonymous": false,
      "inputs": [
        {
          "indexed": true,
          "internalType": "bytes32",
          "name": "role",
          "type": "bytes32"
        },
        {
          "indexed": true,
          "internalType": "bytes32",
          "name": "previousAdminRole",
          "type": "bytes32"
        },
        {
          "indexed": true,
          "internalType": "bytes32",
          "name": "newAdminRole",
          "type": "bytes32"
        }
      ],
      "name": "RoleAdminChanged",
      "type": "event"
    },
    {
      "anonymous": false,
      "inputs": [
        {
          "indexed": true,
          "internalType": "bytes32",
          "name": "role",
          "type": "bytes32"
        },
        {
          "indexed": true,
          "internalType": "address",
          "name": "account",
          "type": "address"
        },
        {
          "indexed": true,
          "internalType": "address",
          "name": "sender",
          "type": "address"
        }
      ],
      "name": "RoleGranted",
      "type": "event"
    },
    {
      "anonymous": false,
      "inputs": [
        {
          "indexed": true,
          "internalType": "bytes32",
          "name": "role",
          "type": "bytes32"
        },
        {
          "indexed": true,
          "internalType": "address",
          "name": "account",
          "type": "address"
        },
        {
          "indexed": true,
          "internalType": "address",
          "name": "sender",
          "type": "address"
        }
      ],
      "name": "RoleRevoked",
      "type": "event"
    },
    {
      "anonymous": false,
      "inputs": [
        {
          "indexed": true,
          "internalType": "address",
          "name": "from",
          "type": "address"
        },
        {
          "indexed": true,
          "internalType": "address",
          "name": "to",
          "type": "address"
        },
        {
          "indexed": true,
          "internalType": "uint256",
          "name": "tokenId",
          "type": "uint256"
        }
      ],
      "name": "Transfer",
      "type": "event"
    },
    {
      "anonymous": false,
      "inputs": [
        {
          "indexed": false,
          "internalType": "address",
          "name": "account",
          "type": "address"
        }
      ],
      "name": "Unpaused",
      "type": "event"
    },
    {
      "inputs": [],
      "name": "DEFAULT_ADMIN_ROLE",
      "outputs": [
        {
          "internalType": "bytes32",
          "name": "",
          "type": "bytes32"
        }
      ],
      "stateMutability": "view",
      "type": "function"
    },
    {
      "inputs": [],
      "name": "OWNER_ROLE",
      "outputs": [
        {
          "internalType": "bytes32",
          "name": "",
          "type": "bytes32"
        }
      ],
      "stateMutability": "view",
      "type": "function"
    },
    {
      "inputs": [],
      "name": "PAYMENT_TOKEN",
      "outputs": [
        {
          "internalType": "contract IERC20",
          "name": "",
          "type": "address"
        }
      ],
      "stateMutability": "view",
      "type": "function"
    },
    {
      "inputs": [],
      "name": "PLATFORM_ROLE",
      "outputs": [
        {
          "internalType": "bytes32",
          "name": "",
          "type": "bytes32"
        }
      ],
      "stateMutability": "view",
      "type": "function"
    },
    {
      "inputs": [],
      "name": "RENTER_ROLE",
      "outputs": [
        {
          "internalType": "bytes32",
          "name": "",
          "type": "bytes32"
        }
      ],
      "stateMutability": "view",
      "type": "function"
    },
    {
      "inputs": [
        {
          "internalType": "address",
          "name": "to",
          "type": "address"
        },
        {
          "internalType": "uint256",
          "name": "tokenId",
          "type": "uint256"
        }
      ],
      "name": "approve",
      "outputs": [],
      "stateMutability": "nonpayable",
      "type": "function"
    },
    {
      "inputs": [
        {
          "internalType": "address",
          "name": "owner",
          "type": "address"
        }
      ],
      "name": "balanceOf",
      "outputs": [
        {
          "internalType": "uint256",
          "name": "",
          "type": "uint256"
        }
      ],
      "stateMutability": "view",
      "type": "function"
    },
    {
      "inputs": [
        {
          "internalType": "uint256",
          "name": "tokenId",
          "type": "uint256"
        }
      ],
      "name": "burn",
      "outputs": [],
      "stateMutability": "nonpayable",
      "type": "function"
    },
    {
      "inputs": [
        {
          "internalType": "uint256",
          "name": "tokenId",
          "type": "uint256"
        },
        {
          "internalType": "uint256",
          "name": "deadline",
          "type": "uint256"
        },
        {
          "internalType": "bytes",
          "name": "signature",
          "type": "bytes"
        }
      ],
      "name": "burnWithSignature",
      "outputs": [],
      "stateMutability": "nonpayable",
      "type": "function"
    },
    {
      "inputs": [],
      "name": "eip712Domain",
      "outputs": [
        {
          "internalType": "bytes1",
          "name": "fields",
          "type": "bytes1"
        },
        {
          "internalType": "string",
          "name": "name",
          "type": "string"
        },
        {
          "internalType": "string",
          "name": "version",
          "type": "string"
        },
        {
          "internalType": "uint256",
          "name": "chainId",
          "type": "uint256"
        },
        {
          "internalType": "address",
          "name": "verifyingContract",
          "type": "address"
        },
        {
          "internalType": "bytes32",
          "name": "salt",
          "type": "bytes32"
        },
        {
          "internalType": "uint256[]",
          "name": "extensions",
          "type": "uint256[]"
        }
      ],
      "stateMutability": "view",
      "type": "function"
    },
    {
      "inputs": [
        {
          "internalType": "uint256",
          "name": "tokenId",
          "type": "uint256"
        }
      ],
      "name": "endRental",
      "outputs": [],
      "stateMutability": "nonpayable",
      "type": "function"
    },
    {
      "inputs": [
        {
          "internalType": "uint256",
          "name": "tokenId",
          "type": "uint256"
        },
        {
          "internalType": "address",
          "name": "renter",
          "type": "address"
        },
        {
          "internalType": "uint256",
          "name": "deadline",
          "type": "uint256"
        },
        {
          "internalType": "bytes",
          "name": "signature",
          "type": "bytes"
        }
      ],
      "name": "endRentalWithSignature",
      "outputs": [],
      "stateMutability": "nonpayable",
      "type": "function"
    },
    {
      "inputs": [
        {
          "internalType": "uint256",
          "name": "tokenId",
          "type": "uint256"
        }
      ],
      "name": "exists",
      "outputs": [
        {
          "internalType": "bool",
          "name": "",
          "type": "bool"
        }
      ],
      "stateMutability": "view",
      "type": "function"
    },
    {
      "inputs": [
        {
          "internalType": "uint256",
          "name": "tokenId",
          "type": "uint256"
        },
        {
          "internalType": "uint256",
          "name": "additionalDuration",
          "type": "uint256"
        },
        {
          "internalType": "uint256",
          "name": "additionalPayment",
          "type": "uint256"
        }
      ],
      "name": "extendRental",
      "outputs": [],
      "stateMutability": "nonpayable",
      "type": "function"
    },
    {
      "inputs": [
        {
          "internalType": "uint256",
          "name": "tokenId",
          "type": "uint256"
        },
        {
          "internalType": "uint256",
          "name": "additionalDuration",
          "type": "uint256"
        },
        {
          "internalType": "uint256",
          "name": "additionalPayment",
          "type": "uint256"
        },
        {
          "internalType": "address",
          "name": "renter",
          "type": "address"
        },
        {
          "internalType": "uint256",
          "name": "deadline",
          "type": "uint256"
        },
        {
          "internalType": "bytes",
          "name": "signature",
          "type": "bytes"
        }
      ],
      "name": "extendRentalWithSignature",
      "outputs": [],
      "stateMutability": "nonpayable",
      "type": "function"
    },
    {
      "inputs": [
        {
          "internalType": "uint256",
          "name": "tokenId",
          "type": "uint256"
        }
      ],
      "name": "getApproved",
      "outputs": [
        {
          "internalType": "address",
          "name": "",
          "type": "address"
        }
      ],
      "stateMutability": "view",
      "type": "function"
    },
    {
      "inputs": [
        {
          "internalType": "uint256",
          "name": "tokenId",
          "type": "uint256"
        }
      ],
      "name": "getMintRoyaltyReceivers",
      "outputs": [
        {
          "components": [
            {
              "internalType": "address",
              "name": "receiver",
              "type": "address"
            },
            {
              "internalType": "uint96",
              "name": "feeNumerator",
              "type": "uint96"
            }
          ],
          "internalType": "struct KamiNFTCore.RoyaltyData[]",
          "name": "",
          "type": "tuple[]"
        }
      ],
      "stateMutability": "view",
      "type": "function"
    },
    {
      "inputs": [
        {
          "internalType": "uint256",
          "name": "tokenId",
          "type": "uint256"
        }
      ],
      "name": "getRentalInfo",
      "outputs": [
        {
          "components": [
            {
              "internalType": "address",
              "name": "renter",
              "type": "address"
            },
            {
              "internalType": "uint256",
              "name": "startTime",
              "type": "uint256"
            },
            {
              "internalType": "uint256",
              "name": "endTime",
              "type": "uint256"
            },
            {
              "internalType": "uint256",
              "name": "rentalPrice",
              "type": "uint256"
            },
            {
              "internalType": "bool",
              "name": "active",
              "type": "bool"
            }
          ],
          "internalType": "struct KamiNFTCore.Rental",
          "name": "",
          "type": "tuple"
        }
      ],
      "stateMutability": "view",
      "type": "function"
    },
    {
      "inputs": [
        {
          "internalType": "bytes32",
          "name": "role",
          "type": "bytes32"
        }
      ],
      "name": "getRoleAdmin",
      "outputs": [
        {
          "internalType": "bytes32",
          "name": "",
          "type": "bytes32"
        }
      ],
      "stateMutability": "view",
      "type": "function"
    },
    {
      "inputs": [
        {
          "internalType": "uint256",
          "name": "tokenId",
          "type": "uint256"
        }
      ],
      "name": "getTransferRoyaltyReceivers",
      "outputs": [
        {
          "components": [
            {
              "internalType": "address",
              "name": "receiver",
              "type": "address"
            },
            {
              "internalType": "uint96",
              "name": "feeNumerator",
              "type": "uint96"
            }
          ],
          "internalType": "struct KamiNFTCore.RoyaltyData[]",
          "name": "",
          "type": "tuple[]"
        }
      ],
      "stateMutability": "view",
      "type": "function"
    },
    {
      "inputs": [
        {
          "internalType": "bytes32",
          "name": "role",
          "type": "bytes32"
        },
        {
          "internalType": "address",
          "name": "account",
          "type": "address"
        }
      ],
      "name": "grantRole",
      "outputs": [],
      "stateMutability": "nonpayable",
      "type": "function"
    },
    {
      "inputs": [
        {
          "internalType": "bytes32",
          "name": "role",
          "type": "bytes32"
        },
        {
          "internalType": "address",
          "name": "account",
          "type": "address"
        }
      ],
      "name": "hasRole",
      "outputs": [
        {
          "internalType": "bool",
          "name": "",
          "type": "bool"
        }
      ],
      "stateMutability": "view",
      "type": "function"
    },
    {
      "inputs": [
        {
          "internalType": "address",
          "name": "to",
          "type": "address"
        },
        {
          "internalType": "uint256",
          "name": "tokenId",
          "type": "uint256"
        },
        {
          "internalType": "uint256",
          "name": "price",
          "type": "uint256"
        }
      ],
      "name": "initiateTransferWithRoyalty",
      "outputs": [],
      "stateMutability": "nonpayable",
      "type": "function"
    },
    {
      "inputs": [
        {
          "internalType": "address",
          "name": "to",
          "type": "address"
        },
        {
          "internalType": "uint256",
          "name": "tokenId",
          "type": "uint256"
        },
        {
          "internalType": "uint256",
          "name": "price",
          "type": "uint256"
        },
        {
          "internalType": "uint256",
          "name": "deadline",
          "type": "uint256"
        },
        {
          "internalType": "bytes",
          "name": "signature",
          "type": "bytes"
        }
      ],
      "name": "initiateTransferWithRoyaltyWithSignature",
      "outputs": [],
      "stateMutability": "nonpayable",
      "type": "function"
    },
    {
      "inputs": [
        {
          "internalType": "address",
          "name": "owner",
          "type": "address"
        },
        {
          "internalType": "address",
          "name": "operator",
          "type": "address"
        }
      ],
      "name": "isApprovedForAll",
      "outputs": [
        {
          "internalType": "bool",
          "name": "",
          "type": "bool"
        }
      ],
      "stateMutability": "view",
      "type": "function"
    },
    {
      "inputs": [
        {
          "internalType": "uint256",
          "name": "tokenId",
          "type": "uint256"
        }
      ],
      "name": "isRented",
      "outputs": [
        {
          "internalType": "bool",
          "name": "",
          "type": "bool"
        }
      ],
      "stateMutability": "view",
      "type": "function"
    },
    {
      "inputs": [
        {
          "internalType": "address",
          "name": "",
          "type": "address"
        },
        {
          "internalType": "address",
          "name": "",
          "type": "address"
        },
        {
          "internalType": "uint256",
          "name": "tokenId",
          "type": "uint256"
        },
        {
          "internalType": "uint256",
          "name": "price",
          "type": "uint256"
        }
      ],
      "name": "isTransferRoyaltyRequired",
      "outputs": [
        {
          "internalType": "bool",
          "name": "",
          "type": "bool"
        }
      ],
      "stateMutability": "view",
      "type": "function"
    },
    {
      "inputs": [
        {
          "internalType": "address",
          "name": "recipient",
          "type": "address"
        },
        {
          "internalType": "uint256",
          "name": "tokenPrice",
          "type": "uint256"
        },
        {
          "internalType": "string",
          "name": "uri",
          "type": "string"
        },
        {
          "components": [
            {
              "internalType": "address",
              "name": "receiver",
              "type": "address"
            },
            {
              "internalType": "uint96",
              "name": "feeNumerator",
              "type": "uint96"
            }
          ],
          "internalType": "struct KamiNFTCore.RoyaltyData[]",
          "name": "mintRoyalties",
          "type": "tuple[]"
        }
      ],
      "name": "mint",
      "outputs": [],
      "stateMutability": "nonpayable",
      "type": "function"
    },
    {
      "inputs": [
        {
          "internalType": "address",
          "name": "recipient",
          "type": "address"
        },
        {
          "internalType": "uint256",
          "name": "tokenPrice",
          "type": "uint256"
        },
        {
          "internalType": "string",
          "name": "uri",
          "type": "string"
        },
        {
          "components": [
            {
              "internalType": "address",
              "name": "receiver",
              "type": "address"
            },
            {
              "internalType": "uint96",
              "name": "feeNumerator",
              "type": "uint96"
            }
          ],
          "internalType": "struct KamiNFTCore.RoyaltyData[]",
          "name": "mintRoyalties",
          "type": "tuple[]"
        }
      ],
      "name": "mintFor",
      "outputs": [],
      "stateMutability": "nonpayable",
      "type": "function"
    },
    {
      "inputs": [],
      "name": "name",
      "outputs": [
        {
          "internalType": "string",
          "name": "",
          "type": "string"
        }
      ],
      "stateMutability": "view",
      "type": "function"
    },
    {
      "inputs": [
        {
          "internalType": "uint256",
          "name": "tokenId",
          "type": "uint256"
        }
      ],
      "name": "ownerOf",
      "outputs": [
        {
          "internalType": "address",
          "name": "",
          "type": "address"
        }
      ],
      "stateMutability": "view",
      "type": "function"
    },
    {
      "inputs": [],
      "name": "pause",
      "outputs": [],
      "stateMutability": "nonpayable",
      "type": "function"
    },
    {
      "inputs": [],
      "name": "paused",
      "outputs": [
        {
          "internalType": "bool",
          "name": "",
          "type": "bool"
        }
      ],
      "stateMutability": "view",
      "type": "function"
    },
    {
      "inputs": [
        {
          "internalType": "address",
          "name": "seller",
          "type": "address"
        },
        {
          "internalType": "uint256",
          "name": "tokenId",
          "type": "uint256"
        },
        {
          "internalType": "uint256",
          "name": "price",
          "type": "uint256"
        }
      ],
      "name": "payTransferRoyalty",
      "outputs": [],
      "stateMutability": "nonpayable",
      "type": "function"
    },
    {
      "inputs": [
        {
          "internalType": "address",
          "name": "seller",
          "type": "address"
        },
        {
          "internalType": "uint256",
          "name": "tokenId",
          "type": "uint256"
        },
        {
          "internalType": "uint256",
          "name": "price",
          "type": "uint256"
        },
        {
          "internalType": "address",
          "name": "buyer",
          "type": "address"
        },
        {
          "internalType": "uint256",
          "name": "deadline",
          "type": "uint256"
        },
        {
          "internalType": "bytes",
          "name": "signature",
          "type": "bytes"
        }
      ],
      "name": "payTransferRoyaltyWithSignature",
      "outputs": [],
      "stateMutability": "nonpayable",
      "type": "function"
    },
    {
      "inputs": [],
      "name": "paymentToken",
      "outputs": [
        {
          "internalType": "address",
          "name": "",
          "type": "address"
        }
      ],
      "stateMutability": "view",
      "type": "function"
    },
    {
      "inputs": [],
      "name": "platformAddress",
      "outputs": [
        {
          "internalType": "address",
          "name": "",
          "type": "address"
        }
      ],
      "stateMutability": "view",
      "type": "function"
    },
    {
      "inputs": [],
      "name": "platformCommission",
      "outputs": [
        {
          "internalType": "uint96",
          "name": "",
          "type": "uint96"
        }
      ],
      "stateMutability": "view",
      "type": "function"
    },
    {
      "inputs": [
        {
          "internalType": "bytes32",
          "name": "role",
          "type": "bytes32"
        },
        {
          "internalType": "address",
          "name": "callerConfirmation",
          "type": "address"
        }
      ],
      "name": "renounceRole",
      "outputs": [],
      "stateMutability": "nonpayable",
      "type": "function"
    },
    {
      "inputs": [
        {
          "internalType": "uint256",
          "name": "tokenId",
          "type": "uint256"
        },
        {
          "internalType": "uint256",
          "name": "duration",
          "type": "uint256"
        },
        {
          "internalType": "uint256",
          "name": "rentalPrice",
          "type": "uint256"
        },
        {
          "internalType": "address",
          "name": "renter",
          "type": "address"
        }
      ],
      "name": "rentToken",
      "outputs": [],
      "stateMutability": "nonpayable",
      "type": "function"
    },
    {
      "inputs": [
        {
          "internalType": "uint256",
          "name": "tokenId",
          "type": "uint256"
        },
        {
          "internalType": "uint256",
          "name": "duration",
          "type": "uint256"
        },
        {
          "internalType": "uint256",
          "name": "rentalPrice",
          "type": "uint256"
        },
        {
          "internalType": "address",
          "name": "renter",
          "type": "address"
        },
        {
          "internalType": "uint256",
          "name": "deadline",
          "type": "uint256"
        },
        {
          "internalType": "bytes",
          "name": "signature",
          "type": "bytes"
        }
      ],
      "name": "rentTokenWithSignature",
      "outputs": [],
      "stateMutability": "nonpayable",
      "type": "function"
    },
    {
      "inputs": [
        {
          "internalType": "bytes32",
          "name": "role",
          "type": "bytes32"
        },
        {
          "internalType": "address",
          "name": "account",
          "type": "address"
        }
      ],
      "name": "revokeRole",
      "outputs": [],
      "stateMutability": "nonpayable",
      "type": "function"
    },
    {
      "inputs": [
        {
          "internalType": "uint256",
          "name": "tokenId",
          "type": "uint256"
        },
        {
          "internalType": "uint256",
          "name": "price",
          "type": "uint256"
        }
      ],
      "name": "royaltyInfo",
      "outputs": [
        {
          "internalType": "address",
          "name": "receiver",
          "type": "address"
        },
        {
          "internalType": "uint256",
          "name": "royaltyAmount",
          "type": "uint256"
        }
      ],
      "stateMutability": "view",
      "type": "function"
    },
    {
      "inputs": [],
      "name": "royaltyPercentage",
      "outputs": [
        {
          "internalType": "uint96",
          "name": "",
          "type": "uint96"
        }
      ],
      "stateMutability": "view",
      "type": "function"
    },
    {
      "inputs": [
        {
          "internalType": "address",
          "name": "from",
          "type": "address"
        },
        {
          "internalType": "address",
          "name": "to",
          "type": "address"
        },
        {
          "internalType": "uint256",
          "name": "tokenId",
          "type": "uint256"
        }
      ],
      "name": "safeTransferFrom",
      "outputs": [],
      "stateMutability": "nonpayable",
      "type": "function"
    },
    {
      "inputs": [
        {
          "internalType": "address",
          "name": "from",
          "type": "address"
        },
        {
          "internalType": "address",
          "name": "to",
          "type": "address"
        },
        {
          "internalType": "uint256",
          "name": "tokenId",
          "type": "uint256"
        },
        {
          "internalType": "bytes",
          "name": "data",
          "type": "bytes"
        }
      ],
      "name": "safeTransferFrom",
      "outputs": [],
      "stateMutability": "nonpayable",
      "type": "function"
    },
    {
      "inputs": [
        {
          "internalType": "address",
          "name": "to",
          "type": "address"
        },
        {
          "internalType": "uint256",
          "name": "tokenId",
          "type": "uint256"
        },
        {
          "internalType": "address",
          "name": "seller",
          "type": "address"
        }
      ],
      "name": "sellToken",
      "outputs": [],
      "stateMutability": "nonpayable",
      "type": "function"
    },
    {
      "inputs": [
        {
          "internalType": "address",
          "name": "to",
          "type": "address"
        },
        {
          "internalType": "uint256",
          "name": "tokenId",
          "type": "uint256"
        },
        {
          "internalType": "uint256",
          "name": "deadline",
          "type": "uint256"
        },
        {
          "internalType": "bytes",
          "name": "signature",
          "type": "bytes"
        }
      ],
      "name": "sellTokenWithSignature",
      "outputs": [],
      "stateMutability": "nonpayable",
      "type": "function"
    },
    {
      "inputs": [
        {
          "internalType": "address",
          "name": "operator",
          "type": "address"
        },
        {
          "internalType": "bool",
          "name": "approved",
          "type": "bool"
        }
      ],
      "name": "setApprovalForAll",
      "outputs": [],
      "stateMutability": "nonpayable",
      "type": "function"
    },
    {
      "inputs": [
        {
          "internalType": "string",
          "name": "newBaseTokenURI",
          "type": "string"
        }
      ],
      "name": "setBaseURI",
      "outputs": [],
      "stateMutability": "nonpayable",
      "type": "function"
    },
    {
      "inputs": [
        {
          "components": [
            {
              "internalType": "address",
              "name": "receiver",
              "type": "address"
            },
            {
              "internalType": "uint96",
              "name": "feeNumerator",
              "type": "uint96"
            }
          ],
          "internalType": "struct KamiNFTCore.RoyaltyData[]",
          "name": "royalties",
          "type": "tuple[]"
        }
      ],
      "name": "setMintRoyalties",
      "outputs": [],
      "stateMutability": "nonpayable",
      "type": "function"
    },
    {
      "inputs": [
        {
          "internalType": "uint96",
          "name": "newPlatformCommissionPercentage",
          "type": "uint96"
        },
        {
          "internalType": "address",
          "name": "newPlatformAddress",
          "type": "address"
        }
      ],
      "name": "setPlatformCommission",
      "outputs": [],
      "stateMutability": "nonpayable",
      "type": "function"
    },
    {
      "inputs": [
        {
          "internalType": "uint256",
          "name": "tokenId",
          "type": "uint256"
        },
        {
          "internalType": "uint256",
          "name": "newPrice",
          "type": "uint256"
        }
      ],
      "name": "setPrice",
      "outputs": [],
      "stateMutability": "nonpayable",
      "type": "function"
    },
    {
      "inputs": [
        {
          "internalType": "uint96",
          "name": "newRoyaltyPercentage",
          "type": "uint96"
        }
      ],
      "name": "setRoyaltyPercentage",
      "outputs": [],
      "stateMutability": "nonpayable",
      "type": "function"
    },
    {
      "inputs": [
        {
          "internalType": "uint256",
          "name": "tokenId",
          "type": "uint256"
        },
        {
          "components": [
            {
              "internalType": "address",
              "name": "receiver",
              "type": "address"
            },
            {
              "internalType": "uint96",
              "name": "feeNumerator",
              "type": "uint96"
            }
          ],
          "internalType": "struct KamiNFTCore.RoyaltyData[]",
          "name": "royalties",
          "type": "tuple[]"
        }
      ],
      "name": "setTokenMintRoyalties",
      "outputs": [],
      "stateMutability": "nonpayable",
      "type": "function"
    },
    {
      "inputs": [
        {
          "internalType": "uint256",
          "name": "tokenId",
          "type": "uint256"
        },
        {
          "components": [
            {
              "internalType": "address",
              "name": "receiver",
              "type": "address"
            },
            {
              "internalType": "uint96",
              "name": "feeNumerator",
              "type": "uint96"
            }
          ],
          "internalType": "struct KamiNFTCore.RoyaltyData[]",
          "name": "royalties",
          "type": "tuple[]"
        }
      ],
      "name": "setTokenTransferRoyalties",
      "outputs": [],
      "stateMutability": "nonpayable",
      "type": "function"
    },
    {
      "inputs": [
        {
          "internalType": "uint256",
          "name": "tokenId",
          "type": "uint256"
        },
        {
          "internalType": "string",
          "name": "newTokenURI",
          "type": "string"
        }
      ],
      "name": "setTokenURI",
      "outputs": [],
      "stateMutability": "nonpayable",
      "type": "function"
    },
    {
      "inputs": [
        {
          "internalType": "uint256",
          "name": "tokenId",
          "type": "uint256"
        },
        {
          "internalType": "string",
          "name": "newTokenURI",
          "type": "string"
        },
        {
          "internalType": "uint256",
          "name": "deadline",
          "type": "uint256"
        },
        {
          "internalType": "bytes",
          "name": "signature",
          "type": "bytes"
        }
      ],
      "name": "setTokenURIWithSignature",
      "outputs": [],
      "stateMutability": "nonpayable",
      "type": "function"
    },
    {
      "inputs": [
        {
          "components": [
            {
              "internalType": "address",
              "name": "receiver",
              "type": "address"
            },
            {
              "internalType": "uint96",
              "name": "feeNumerator",
              "type": "uint96"
            }
          ],
          "internalType": "struct KamiNFTCore.RoyaltyData[]",
          "name": "royalties",
          "type": "tuple[]"
        }
      ],
      "name": "setTransferRoyalties",
      "outputs": [],
      "stateMutability": "nonpayable",
      "type": "function"
    },
    {
      "inputs": [
        {
          "internalType": "bytes4",
          "name": "interfaceId",
          "type": "bytes4"
        }
      ],
      "name": "supportsInterface",
      "outputs": [
        {
          "internalType": "bool",
          "name": "",
          "type": "bool"
        }
      ],
      "stateMutability": "view",
      "type": "function"
    },
    {
      "inputs": [],
      "name": "symbol",
      "outputs": [
        {
          "internalType": "string",
          "name": "",
          "type": "string"
        }
      ],
      "stateMutability": "view",
      "type": "function"
    },
    {
      "inputs": [
        {
          "internalType": "uint256",
          "name": "index",
          "type": "uint256"
        }
      ],
      "name": "tokenByIndex",
      "outputs": [
        {
          "internalType": "uint256",
          "name": "",
          "type": "uint256"
        }
      ],
      "stateMutability": "view",
      "type": "function"
    },
    {
      "inputs": [
        {
          "internalType": "address",
          "name": "owner",
          "type": "address"
        },
        {
          "internalType": "uint256",
          "name": "index",
          "type": "uint256"
        }
      ],
      "name": "tokenOfOwnerByIndex",
      "outputs": [
        {
          "internalType": "uint256",
          "name": "",
          "type": "uint256"
        }
      ],
      "stateMutability": "view",
      "type": "function"
    },
    {
      "inputs": [
        {
          "internalType": "uint256",
          "name": "",
          "type": "uint256"
        }
      ],
      "name": "tokenPrices",
      "outputs": [
        {
          "internalType": "uint256",
          "name": "",
          "type": "uint256"
        }
      ],
      "stateMutability": "view",
      "type": "function"
    },
    {
      "inputs": [
        {
          "internalType": "uint256",
          "name": "tokenId",
          "type": "uint256"
        }
      ],
      "name": "tokenURI",
      "outputs": [
        {
          "internalType": "string",
          "name": "",
          "type": "string"
        }
      ],
      "stateMutability": "view",
      "type": "function"
    },
    {
      "inputs": [
        {
          "internalType": "uint256",
          "name": "",
          "type": "uint256"
        }
      ],
      "name": "tokenURIs",
      "outputs": [
        {
          "internalType": "string",
          "name": "",
          "type": "string"
        }
      ],
      "stateMutability": "view",
      "type": "function"
    },
    {
      "inputs": [],
      "name": "totalSupply",
      "outputs": [
        {
          "internalType": "uint256",
          "name": "",
          "type": "uint256"
        }
      ],
      "stateMutability": "view",
      "type": "function"
    },
    {
      "inputs": [
        {
          "internalType": "address",
          "name": "from",
          "type": "address"
        },
        {
          "internalType": "address",
          "name": "to",
          "type": "address"
        },
        {
          "internalType": "uint256",
          "name": "tokenId",
          "type": "uint256"
        }
      ],
      "name": "transferFrom",
      "outputs": [],
      "stateMutability": "nonpayable",
      "type": "function"
    },
    {
      "inputs": [],
      "name": "unpause",
      "outputs": [],
      "stateMutability": "nonpayable",
      "type": "function"
    },
    {
      "inputs": [
        {
          "internalType": "uint96",
          "name": "newPlatformCommissionPercentage",
          "type": "uint96"
        },
        {
          "internalType": "address",
          "name": "newPlatformAddress",
          "type": "address"
        }
      ],
      "name": "updatePlatformCommission",
      "outputs": [],
      "stateMutability": "nonpayable",
      "type": "function"
    }
  ],
  "bytecode": "0x6101808060405234620007dd5762006a918038038091620000218285620007fe565b833981019060e081830312620007dd576200003c8162000822565b60208201519091906001600160401b038111620007dd5783620000619183016200085c565b60408201519093906001600160401b038111620007dd5781620000869184016200085c565b606083015190916001600160401b038211620007dd57620000a99184016200085c565b90620000b86080840162000822565b60a0840151939092906001600160601b0385168503620007dd5760c0620000e0910162000822565b9160405190620000f082620007e2565b60088252674b414d493732314360c01b6020830152604051976200011489620007e2565b60018952603160f81b60208a01528051906001600160401b038211620005a85760015490600182811c92168015620007d2575b6020831014620005875781601f84931162000771575b50602090601f8311600114620006f357600092620006e7575b50508160011b916000199060031b1c1916176001555b8051906001600160401b038211620005a85760025490600182811c92168015620006dc575b6020831014620005875781601f8493116200067b575b50602090601f8311600114620005fd57600092620005f1575b50508160011b916000199060031b1c1916176002555b620002018162000a75565b61012052620002108762000c1d565b6101405260208151910120958660e052602081519101209586610100524660a0526040519660208801917f8b73c3c69bb8fe3d512ecc4cf759cc79239f7b179b0ffacaa9a75d522b39400f8352604089015260608801524660808801523060a088015260a0875260c087019680881060018060401b03891117620005a85760408890525190206080523060c05260016014556001600160a01b03948516958615620005e25750848316948515620005d057821615620005d0576107d06001600160601b03851611620005be576101609586528051906001600160401b038211620005a857601754600181811c911680156200059d575b60208210146200058757601f81116200052e575b50602090601f8311600114620004a95791806200037095949262000369946000926200049d575b50508160011b916000199060031b1c1916176017555b6200036281620008b7565b5062000937565b50620009d9565b5060a01b6001600160a01b031916177fde1159fbbeca73b2aca5752c42b257ca18171ae3b3d3bbf22c7938e3a961a0cb557f1aa44fcb526383bd2f7c6231f8c09a41edc5b654966336907d6f785a5b3d288f80546001600160601b0319166103e8179055604051615c9c918262000d75833960805182615713015260a051826157ce015260c051826156dd015260e05182615762015261010051826157880152610120518261137b015261014051826113a401525181818161086701528181610b8301528181611333015281816115bb01528181611796015281816118ce0152818161196f015281816119b401528181611e42015281816126630152818161279b0152818161285d015281816129f601528181612ae501528181612ba601528181612e2401526138180152f35b01519050388062000341565b6017600090815260008051602062006a71833981519152929190601f198516905b81811062000515575092600192859262000369966200037099989610620004fb575b505050811b0160175562000357565b015160001960f88460031b161c19169055388080620004ec565b92936020600181928786015181550195019301620004ca565b601760005260008051602062006a71833981519152601f840160051c810191602085106200057c575b601f0160051c01905b8181106200056f57506200031a565b6000815560010162000560565b909150819062000557565b634e487b7160e01b600052602260045260246000fd5b90607f169062000306565b634e487b7160e01b600052604160045260246000fd5b604051630fdfac3160e31b8152600490fd5b60405163d92e233d60e01b8152600490fd5b63d92e233d60e01b8152600490fd5b015190503880620001e0565b60026000908152935060008051602062006a3183398151915291905b601f19841685106200065f576001945083601f1981161062000645575b505050811b01600255620001f6565b015160001960f88460031b161c1916905538808062000636565b8181015183556020948501946001909301929091019062000619565b600260005290915060008051602062006a31833981519152601f840160051c810160208510620006d4575b90849392915b601f830160051c82018110620006c4575050620001c7565b60008155859450600101620006ac565b5080620006a6565b91607f1691620001b1565b01519050388062000176565b60016000908152935060008051602062006a5183398151915291905b601f198416851062000755576001945083601f198116106200073b575b505050811b016001556200018c565b015160001960f88460031b161c191690553880806200072c565b818101518355602094850194600190930192909101906200070f565b600160005290915060008051602062006a51833981519152601f840160051c810160208510620007ca575b90849392915b601f830160051c82018110620007ba5750506200015d565b60008155859450600101620007a2565b50806200079c565b91607f169162000147565b600080fd5b604081019081106001600160401b03821117620005a857604052565b601f909101601f19168101906001600160401b03821190821017620005a857604052565b51906001600160a01b0382168203620007dd57565b60005b8381106200084b5750506000910152565b81810151838201526020016200083a565b81601f82011215620007dd5780516001600160401b038111620005a8576040519262000893601f8301601f191660200185620007fe565b81845260208284010111620007dd57620008b4916020808501910162000837565b90565b6001600160a01b031660008181527fad3228b676f7d3cd4284a5443f17f1962b36e491b30a40b2405849e597ba5fb5602052604081205490919060ff166200093357818052816020526040822081835260205260408220600160ff19825416179055339160008051602062006a118339815191528180a4600190565b5090565b6001600160a01b031660008181527fd329ff8a035c3ce5df2b0dae604d660c0d8783bf7e64be00c1d10db96c0b87b460205260408120549091907fb19546dff01e856fb3f010c267a7b1c60363cf8a4664e21cc89c26224620214e9060ff16620009d457808352826020526040832082845260205260408320600160ff1982541617905560008051602062006a11833981519152339380a4600190565b505090565b6001600160a01b031660008181527e4137ac999875a62b0381e65f8832c0a903cf25418dd0c40107411aa55dc68760205260408120549091907f797343f8d6a29aafeb3aaf0910a8973e0081c60c2f6c1f775cd9f76ea348fc1e9060ff16620009d457808352826020526040832082845260205260408320600160ff1982541617905560008051602062006a11833981519152339380a4600190565b80516020908181101562000af35750601f82511162000ab1578082519201519080831062000aa257501790565b82600019910360031b1b161790565b60449062000ae59260405193849263305a27a960e01b84528060048501528251928391826024870152868601910162000837565b601f01601f19168101030190fd5b906001600160401b038211620005a857600e54926001938481811c9116801562000c12575b838210146200058757601f811162000bd8575b5081601f841160011462000b6c575092829391839260009462000b60575b50501b916000199060031b1c191617600e5560ff90565b01519250388062000b49565b919083601f198116600e60005284600020946000905b8883831062000bbd575050501062000ba3575b505050811b01600e5560ff90565b015160001960f88460031b161c1916905538808062000b95565b85870151885590960195948501948793509081019062000b82565b600e60005284601f84600020920160051c820191601f860160051c015b82811062000c0557505062000b2b565b6000815501859062000bf5565b90607f169062000b18565b80516020908181101562000c4a5750601f82511162000ab1578082519201519080831062000aa257501790565b906001600160401b038211620005a857600f54926001938481811c9116801562000d69575b838210146200058757601f811162000d2f575b5081601f841160011462000cc3575092829391839260009462000cb7575b50501b916000199060031b1c191617600f5560ff90565b01519250388062000ca0565b919083601f198116600f60005284600020946000905b8883831062000d14575050501062000cfa575b505050811b01600f5560ff90565b015160001960f88460031b161c1916905538808062000cec565b85870151885590960195948501948793509081019062000cd9565b600f60005284601f84600020920160051c820191601f860160051c015b82811062000d5c57505062000c82565b6000815501859062000d4c565b90607f169062000c6f56fe608080604052600436101561001357600080fd5b60003560e01c90816301ffc9a71461316d5750806306fdde03146130dc578063081812fc1461309e578063095ea7b314612fb75780630a0a351514612f9657806310c551c514612f545780631169051d14610b18578063162094c414612e6657806318160ddd14612e485780631eae6ed714612df65780631fc7f7e914612da757806323b872dd14612d90578063248a9ca314612d6157806327dc3fbd14612d005780632a55205a14612cd95780632f2ff15d14612c9a5780632f745c5914612c255780633013ce291461131d578063314cfd33146128a057806334d6a91c1461254457806335e4d0a91461247757806336568abe146124305780633f4ba83a146123c657806342842e0e1461239857806342966c681461216b578063463dace01461214c578063492ae5a31461201a5780634f558e7914611fe95780634f6ccce714611f935780634fbda6fc14611ec357806355a9763214611da657806355f804b314611c605780635c975abb14611c3d5780635e27a77514611c12578063602481b614611aa65780636352211e14611a76578063694e91b814611a485780636c8b703f14611a0b5780636eddaebf146116d257806370824c5c1461169757806370a082311461166c5780637ad75d8d146114b65780638456cb591461145c57806384b0196e14611362578063877c86fb1461131d5780638a71bb2d146112e757806391d148541461129a57806395d89b41146111d457806397491d6f146111a05780639b1d4b1b1461088d5780639f6d68b014611139578063a217fddf1461111d578063a22cb4651461107b578063a2c98a1914610ea3578063aa15d40f14610e7b578063b88d4fde14610e0f578063b97c9f7714610de6578063c87b56dd14610daf578063c8a9aabc14610b3d578063cf9122d414610b18578063d547741f14610ad9578063dbe55e5614610aa3578063e58378bb14610a7a578063e5afe3e614610a4e578063e5f2e0cc14610915578063e985e9c5146108bf578063f249fd161461088d578063f60e11f21461077b578063f7d97577146107285763fc68c6891461032157600080fd5b34610723576060366003190112610723576001600160401b03602460043581356044358481116107235761035990369060040161333d565b9180421161071157604051602096878201927f6c4abaed6d4290f5c9035e4720ceec9c1755d0a944dbb8f561d1928ae4e4599684528660408401526060830152606082526080820190828210908211176106fc57926103c96103e095936103d1936103d796604052519020614ddd565b92369161359e565b906157f4565b90929192615830565b6103e982614004565b6001600160a01b0391908282169083168190036106ea5761040a8285615145565b808361041586614004565b16036106d8578360005260038652826040600020541692811515918261062d575b5050505080158015908161060a575b6000848152600387526040812080546001600160a01b0319169055849084600080516020615bf08339815191528280a41561058557505060095481600052600a845280604060002055600160401b81101561057057816104ae8260016104c79401600955613c05565b90919082549060031b91821b91600019901b1916179055565b6009546000199384820191821161055b57600a90836000528181526104f160406000205493613c05565b90549060031b1c610505816104ae86613c05565b600052526040600020556000526000604081205560095490811561054757500161054261053182613c05565b8154906000199060031b1b19169055565b600955005b634e487b7160e01b60009081526031600452fd5b83634e487b7160e01b60005260116004526000fd5b82634e487b7160e01b60005260416004526000fd5b610590575b506104c7565b61059981613c20565b826000526008855260406000205491600052600785526040600020918181036105df575b508260005260088552600060408120556000528352600060408120553861058a565b81600052828652604060002054816000528060406000205560005260088652604060002055386105bd565b610613846155e1565b826000526004865260406000206000198154019055610445565b8261067d575b50501561064257808080610436565b9061065d575060405190637e27328960e01b82526004820152fd5b61067960405192839263177e802f60e01b845260048401613413565b0390fd5b84811492509082156106b4575b821561069a575b50503880610633565b909150846000526005875260406000205416143880610691565b91508360005260068752604060002081600052875260ff604060002054169161068a565b6040516329572f6760e01b8152600490fd5b604051632057875960e21b8152600490fd5b86634e487b7160e01b60005260416004526000fd5b604051630819bdcd60e01b8152600490fd5b600080fd5b3461072357610736366133fd565b9061073f614027565b6001600160a01b0361075082614004565b1615610769576000526015602052604060002055600080f35b60405163677510db60e11b8152600490fd5b346107235760c03660031901126107235761079461326e565b60243590604435906107a461329a565b608435929060a4356001600160401b038111610723576107c890369060040161333d565b94908142116107115761084a956103d1610841926103c960405160208101907f5b5ee45476aec33538b5e06ea1921d91fd74e2c274d2c67f3660df1a76b5940782528c604082015289606082015260018060a01b038099169788608083015260a082015260a081526108398161352a565b519020614ddd565b90969196615830565b818516036106ea5761085b85614004565b16156107695761088b937f000000000000000000000000000000000000000000000000000000000000000061456d565b005b346107235760403660031901126107235761088b6108a96136a5565b6108b1613284565b906108ba614027565b613c70565b34610723576040366003190112610723576108d861326e565b6108e0613284565b9060018060a01b03809116600052600660205260406000209116600052602052602060ff604060002054166040519015158152f35b3461072357610923366132e0565b919061092d614027565b604051634f558e7960e01b815260048101839052602091908281602481305afa908115610a4257600091610a15575b5015610769576000805b8582106109e2576127109150036109d05782600052600080516020615bb08339815191529182815261099b60406000206140fe565b60005b8581106109a757005b600190856000528483526109ca60406000206109c4838a886140cd565b90614136565b0161099e565b604051630569d67b60e21b8152600490fd5b600190610a0d906001600160601b03610a0687610a00878c8a6140cd565b016140dd565b16906140f1565b910190610966565b610a359150833d8511610a3b575b610a2d8183613560565b8101906140b5565b8561095c565b503d610a23565b6040513d6000823e3d90fd5b346107235760203660031901126107235760043560005260156020526020604060002054604051908152f35b34610723576000366003190112610723576020604051600080516020615b308339815191528152f35b3461072357600036600319011261072357600080516020615b90833981519152546040516001600160a01b039091168152602090f35b346107235760403660031901126107235761088b600435610af8613284565b90806000526000602052610b1360016040600020015461408f565b6150d0565b346107235761088b610b293661336a565b94610b3894919493929361444c565b613744565b3461072357606036600319011261072357604435602435600435610b5f61444c565b6001600160a01b039182610b7283614004565b161561076957610b8182614004565b7f000000000000000000000000000000000000000000000000000000000000000090610bb08582161515614e03565b610bbb831515614e4c565b610bc6861515614eab565b83600052600080516020615b1083398151915294602086602052610bf460ff60046040600020015416614f09565b8560005286602052610c0e33836040600020541614614f4b565b610c1a8830338761446a565b610c4d600080516020615b90833981519152548060a01c9060009180610d97575b50818581610d84575b50505089613737565b906127109260018060601b039380610c7686600080516020615b70833981519152541686613724565b049485610ce1575b5050505090610c8c91613737565b9081610cd0575b5050508160005282602052610cb160026040600020019182546140f1565b9055600052602052610ccc60036040600020019182546140f1565b9055005b610cd9926144b1565b848080610c93565b610cea8a6151d2565b938451610cf8575b50610c7e565b949a929890959660009c949c9a92989a5b8d51811015610d675780808f8e8e8e610d348f8f8f610d2a60019b89613b77565b5101511690613724565b049283610d47575b505050505001610d09565b610d5d94610d5491613b77565b515116906144b1565b808f8e8e82610d3c565b50969450975097955097909850610c8c9250909189808080610cf2565b610d8f9216886144b1565b8a8185610c44565b612710919250610da7908c613724565b04908b610c3b565b3461072357602036600319011261072357610de2610dce600435613d97565b604051918291602083526020830190613249565b0390f35b34610723576000366003190112610723576020604051600080516020615c108339815191528152f35b3461072357608036600319011261072357610e2861326e565b610e30613284565b6064359190604435906001600160401b038411610723573660238501121561072357610e6961088b94369060248160040135910161359e565b92610e75838383613b04565b33615494565b34610723576020366003190112610723576020610e996004356158b5565b6040519015158152f35b34610723576080366003190112610723576004356001600160401b0360243581811161072357610ed790369060040161333d565b906044359360643584811161072357610ef490369060040161333d565b9086421161071157610f67916103d16103d7926103c9610f15368a8a61359e565b9a8b516020809d012090604051908d8201927f9d80cfda7d3bef0d400175b9c54c79ff0f2018450a6987c3e6a106b910b83d5584528a60408401526060830152608082015260808152610839816134d9565b610f7082614004565b6001600160a01b03918216908216036106ea57610f8c82614004565b16156107695782156110695760005260168452604060002092821161105357610fbf82610fb985546135d5565b856136bb565b600093601f8311600114610fef5750610ccc92938291600092610fe4575b5050613711565b013590508480610fdd565b90601f198316948460005282600020926000905b87821061103b575050836001959610611021575b505050811b019055005b0135600019600384901b60f8161c19169055838080611017565b80600184968294958701358155019501920190611003565b634e487b7160e01b600052604160045260246000fd5b6040516317314b6160e01b8152600490fd5b346107235760403660031901126107235761109461326e565b6024359081151590818303610723576001600160a01b0316918215611104576110d690336000526006602052604060002084600052602052604060002061432d565b6040519081527f17307eab39ab6107e8899845ad3d59bd9653f200f220920489ca2b5937696c3160203392a3005b604051630b61174360e31b815260048101849052602490fd5b3461072357600036600319011261072357602060405160008152f35b34610723576020366003190112610723576111526136a5565b61115a614027565b6001600160601b0316612710811161118e57600080516020615b7083398151915280546001600160601b0319169091179055005b60405163c2a2a95d60e01b8152600490fd5b34610723576020366003190112610723576004356001600160a01b036111c582614004565b16156107695761088b9061508c565b34610723576000366003190112610723576040516002546000826111f7836135d5565b918282526020936001908560018216918260001461127a57505060011461123a575b5061122692500383613560565b610de2604051928284938452830190613249565b849150600260005281600020906000915b858310611262575050611226935082010185611219565b8054838901850152879450869390920191810161124b565b60ff19168582015261122695151560051b85010192508791506112199050565b34610723576040366003190112610723576112b3613284565b600435600052600060205260406000209060018060a01b0316600052602052602060ff604060002054166040519015158152f35b3461072357600036600319011261072357600080516020615b70833981519152546040516001600160601b039091168152602090f35b34610723576000366003190112610723576040517f00000000000000000000000000000000000000000000000000000000000000006001600160a01b03168152602090f35b34610723576000366003190112610723576113fd61139f7f00000000000000000000000000000000000000000000000000000000000000006158ec565b6113c87f00000000000000000000000000000000000000000000000000000000000000006159c9565b604051906113d58261350f565b6000825261140b602091604051958695600f60f81b875260e0602088015260e0870190613249565b908582036040870152613249565b466060850152306080850152600060a085015283810360c08501526020808451928381520193019160005b82811061144557505050500390f35b835185528695509381019392810192600101611436565b3461072357600036600319011261072357611475614027565b61147d61444c565b600160ff19600d541617600d557f62e78cea01bee320cd4e420270b5ea74000d11b0c9f74754ebdbfc544b05a2586020604051338152a1005b34610723576080366003190112610723576114cf61326e565b6044356024356064356001600160401b038111610723576114f490369060040161333d565b92906114fe61444c565b81421161071157611567611570946103d1604051936103c9602086017f59bcf4730f527f68ed2585db45891e607e17e0a1fe74ec1a4c6c9e283e5c2855815260018060a01b0396878c16988960408301528a6060830152608082015260808152610839816134d9565b90959195615830565b80841691821561165a57828261158586614004565b16036115f7571561165a57611599836158b5565b61161b57826000526015602052604060002054801561160957846115df9187867f0000000000000000000000000000000000000000000000000000000000000000615277565b6115e883614004565b16036115f75761088b92614982565b6040516328cdac3360e01b8152600490fd5b60405163778580cf60e11b8152600490fd5b60405162461bcd60e51b8152602060048201526017602482015276115490cdcc8c4e881d1bdad95b881a5cc81c995b9d1959604a1b6044820152606490fd5b60405163d92e233d60e01b8152600490fd5b3461072357602036600319011261072357602061168f61168a61326e565b613c20565b604051908152f35b346107235760003660031901126107235760206040517f797343f8d6a29aafeb3aaf0910a8973e0081c60c2f6c1f775cd9f76ea348fc1e8152f35b34610723576080366003190112610723576116eb61329a565b6116f361444c565b6001600160a01b03611706600435614004565b1615610769576001600160a01b03811690811561165a57611728600435614004565b916001600160a01b0383169081146119f957611745901515614e03565b6117526024351515614f93565b61175f6044351515614fee565b600435600052600080516020615b1083398151915260205261178c60ff6004604060002001541615615046565b6117ba60443530337f000000000000000000000000000000000000000000000000000000000000000061446a565b6117ed600080516020615b90833981519152548060a01c90600091806119df575b5081806119a5575b5050604435613737565b9161271061181260018060601b03600080516020615b70833981519152541685613724565b0492836118f9575b61088b9361182791613737565b806118c8575b50506118c361183e602435426140f1565b60046040519161184d836134d9565b338352602083019042825260408401908152606084019060443582526080850192600184528435600052600080516020615b1083398151915260205260406000209560018060a01b0390511660018060a01b0319875416178655516001860155516002850155516003840155511515910161432d565b614ce8565b6118f2917f00000000000000000000000000000000000000000000000000000000000000006144b1565b828061182d565b6119046004356151d2565b8051611911575b5061181a565b9160009391935b8351811015611999576001906127106119486001600160601b03602061193e858a613b77565b5101511689613724565b0480611956575b5001611918565b61199390838060a01b0361196a8489613b77565b5151167f00000000000000000000000000000000000000000000000000000000000000006144b1565b8761194f565b5091509161088b61190b565b6119d8916001600160a01b03167f00000000000000000000000000000000000000000000000000000000000000006144b1565b84816117e3565b6127109192506119f190604435613724565b0490856117db565b604051631f01c24760e31b8152600490fd5b34610723576020366003190112610723576004356000526016602052610de2611a41610dce60406000206040519283809261360f565b0382613560565b34610723576000366003190112610723576020600080516020615b908339815191525460a01c604051908152f35b34610723576020366003190112610723576020611a94600435614004565b6040516001600160a01b039091168152f35b3461072357602080600319360112610723576004356001600160401b03811161072357611ad79036906004016132b0565b611adf614027565b6000805b828210611bec576127109150036109d057600080516020615bd08339815191529081546000835580611bc5575b5060005b818110611b1d57005b611b288183866140cd565b908354600160401b8110156110535760018101808655811015611baf5784600052866000200182359060018060a01b0382168092036107235780546001600160a01b0319169091178155600192611ba99190611b859089016140dd565b9080546001600160a01b031660a09290921b6001600160a01b031916919091179055565b01611b14565b634e487b7160e01b600052603260045260246000fd5b826000526020600020908101905b818110611be05750611b10565b60008155600101611bd3565b600190611c0a906001600160601b03610a0688610a0087898b6140cd565b910190611ae3565b3461072357602036600319011261072357610de2611c31600435614c37565b6040519182918261347d565b3461072357600036600319011261072357602060ff600d54166040519015158152f35b3461072357602080600319360112610723576001600160401b03600435818111610723573660238201121561072357611ca390369060248160040135910161359e565b91611cac614027565b825191821161105357611cc06017546135d5565b601f8111611d5f575b5080601f8311600114611cfb57508190611ceb93600092611cf0575050613711565b601755005b015190508380610fdd565b90601f19831693601760005282600020926000905b868210611d475750508360019510611d2e575b505050811b01601755005b015160001960f88460031b161c19169055828080611d23565b80600185968294968601518155019501930190611d10565b601760005281600020601f840160051c810191838510611d9c575b601f0160051c01905b818110611d905750611cc9565b60008155600101611d83565b9091508190611d7a565b3461072357606036600319011261072357611dbf61326e565b60243590604435906001600160a01b03908183169081840361072357611de361444c565b82611ded86614004565b1615610769578183611dfe87614004565b16036115f7578281161561165a57811561165a57611e1b856158b5565b61161b5784600052601560205260406000205480156116095781611e66868893611e6b95857f0000000000000000000000000000000000000000000000000000000000000000615277565b61472d565b91821680611e8c57604051637e27328960e01b815260048101869052602490fd5b03611e9357005b6040516364283d7b60e01b81526001600160a01b0392831660048201526024810193909352166044820152606490fd5b346107235760a036600319011261072357611edc61326e565b6024359060643590604435906084356001600160401b03811161072357611f0790369060040161333d565b939081421161071157611f77946103d1611567926103c960405160208101907faf45a5cd01ba55d05f1c402dedc42c73de3a407fb16434508366572ccab27671825260018060a01b0397888a1660408301528c60608301528a608083015260a082015260a081526108398161352a565b611f8085614004565b8482169116036106ea5761088b9361433e565b3461072357602036600319011261072357600435600954811015611fca57611fbc602091613c05565b90546040519160031b1c8152f35b6044906040519063295f44f760e21b8252600060048301526024820152fd5b346107235760203660031901126107235760206001600160a01b0361200f600435614004565b161515604051908152f35b3461072357602080600319360112610723576004356001600160401b0381116107235761204b9036906004016132b0565b612053614027565b6000805b828210612126576127109150036109d057600080516020615c5083398151915290815460008355806120ff575b5060005b81811061209157005b61209c8183866140cd565b908354600160401b8110156110535760018101808655811015611baf5784600052866000200182359060018060a01b0382168092036107235780546001600160a01b03191690911781556001926120f99190611b859089016140dd565b01612088565b826000526020600020908101905b81811061211a5750612084565b6000815560010161210d565b600190612144906001600160601b03610a0688610a0087898b6140cd565b910190612057565b3461072357602036600319011261072357610de2611c316004356151d2565b346107235760208060031936011261072357600435906001600160a01b038061219384614004565b1615610769576121a283614004565b81339116036106d8576121b53384615145565b82600052600382526040600020541690811591821580612375575b6000858152600384526040812080546001600160a01b0319169055859083600080516020615bf08339815191528280a483156122f057505060095483600052600a825280604060002055600160401b81101561105357836104ae82600161223a9401600955613c05565b600954600019918282019182116122da57600a908560005281815261226460406000205493613c05565b90549060031b1c612278816104ae86613c05565b60005252604060002055826000526000604081205560095480156122c457016122a361053182613c05565b6009556122ac57005b60249060405190637e27328960e01b82526004820152fd5b634e487b7160e01b600052603160045260246000fd5b634e487b7160e01b600052601160045260246000fd5b6122fb575b5061223a565b61230481613c20565b8460005260088352604060002054916000526007835260406000209181810361234a575b50846000526008835260006040812055600052815260006040812055836122f5565b8160005282845260406000205481600052806040600020556000526008845260406000205585612328565b61237e856155e1565b8160005260048352604060002060001981540190556121d0565b346107235761088b6123a9366133c8565b90604051926123b78461350f565b60008452610e75838383613b04565b34610723576000366003190112610723576123df614027565b600d5460ff81161561241e5760ff1916600d557f5db9ee0a495bf2e6ff9c91a7834c1ba4fdd244a5e8aa4e537bd38aeae4b073aa6020604051338152a1005b604051638dfc202b60e01b8152600490fd5b3461072357604036600319011261072357612449613284565b336001600160a01b038216036124655761088b906004356150d0565b60405163334bd91960e11b8152600490fd5b3461072357608036600319011261072357600435612493613284565b6044356064356001600160401b038111610723576124b590369060040161333d565b919092814211610711576125246103d7604051946103d160208701977f4c2e6b550c80c2b2d5bdaf810190bbb58f3e053a2b43e38a663c5b5197fe74ca89528960408901526103c960018060a01b03998a809816998a998a6060830152608082015260808152610839816134d9565b16036106ea578161253484614aca565b5116036106ea576111c582614004565b34610723576125523661342e565b61255e9693959661444c565b824211610711576103d16103d7926103c96125d09560405160208101917f04c9429b7be476f4cd813816f812c191113fa4f00477094b2c62df30b9783ea383528960408301528c60608301528a608083015260018060a01b038c1660a083015260c082015260c0815261083981613545565b6001600160a01b038481169116036106ea576001600160a01b0383161561165a576125fa81614004565b936001600160a01b0380861690851681146119f95761261a901515614e03565b612625811515614f93565b612630831515614fee565b81600052600080516020615b1083398151915260205261265b60ff6004604060002001541615615046565b6126878330867f000000000000000000000000000000000000000000000000000000000000000061446a565b6126b8600080516020615b90833981519152548060a01c9060009180612888575b50818061284e575b505084613737565b946127106126dd60018060601b03600080516020615b70833981519152541688613724565b0495866127c6575b6004926118c39594926126fe61088b9961270c94613737565b80612795575b5050426140f1565b926040519361271a856134d9565b6001600160a01b038781168652426020808801918252604080890194855260608901958652600160808a018181526000988952600080516020615b108339815191529093529620975188546001600160a01b03191693169290921787555193860193909355516002850155516003840155511515910161432d565b6127bf917f00000000000000000000000000000000000000000000000000000000000000006144b1565b8880612704565b6127cf846151d2565b80516127dc575b506126e5565b94929095939160005b865181101561283d576001906127106128156001600160601b03602061280b858d613b77565b510151168c613724565b0480612823575b50016127e5565b61283790838060a01b0361196a848c613b77565b8a61281c565b5093959294509092909160046127d6565b612881916001600160a01b03167f00000000000000000000000000000000000000000000000000000000000000006144b1565b87816126b0565b6127109192506128989087613724565b0490886126a8565b34610723576128ae3661342e565b6128be969594969392919361444c565b814211610711576103d7612933916103d1604051966103c9602089017feb1b9beb142887d8e9f09de0dad5352b7830094b3d8730f2bc71fcf59534defd81528b60408b01528a60608b01528c60808b015260018060a01b038916998a988960a083015260c082015260c0815261083981613545565b6001600160a01b0316036106ea57816001600160a01b0361295386614aca565b5116036106ea5761296384614004565b916129786001600160a01b0384161515614e03565b8015612be957612a1a916129f28792612992871515614e4c565b61299d841515614eab565b87600052600080516020615b108339815191526020526129c760ff60046040600020015416614f09565b6000888152600080516020615b1083398151915260205260409020546001600160a01b031614614f4b565b30907f000000000000000000000000000000000000000000000000000000000000000061446a565b612a4b600080516020615b90833981519152548060a01c9060009180612bd1575b508180612b97575b505085613737565b600080516020615b708339815191525461271090612a72906001600160601b031683613724565b049081612b10575b90612a8491613737565b80612adf575b505081600052600080516020615b10833981519152602052612ab560026040600020019182546140f1565b9055600052600080516020615b10833981519152602052610ccc60036040600020019182546140f1565b612b09917f00000000000000000000000000000000000000000000000000000000000000006144b1565b8380612a8a565b612b19856151d2565b8051612b26575b50612a7a565b93909491959260005b8551811015612b8757600190612710612b5f6001600160601b036020612b55858c613b77565b510151168b613724565b0480612b6d575b5001612b2f565b612b8190838060a01b0361196a848b613b77565b89612b66565b5092959194909350612a84612b20565b612bca916001600160a01b03167f00000000000000000000000000000000000000000000000000000000000000006144b1565b8681612a43565b612710919250612be19088613724565b049087612a3b565b60405162461bcd60e51b815260206004820152601460248201527350617965722063616e6e6f74206265207a65726f60601b6044820152606490fd5b3461072357604036600319011261072357612c3e61326e565b60243590612c4b81613c20565b821015612c7e5760018060a01b031660005260076020526040600020906000526020526020604060002054604051908152f35b61067960405192839263295f44f760e21b845260048401613413565b346107235760403660031901126107235761088b600435612cb9613284565b90806000526000602052612cd460016040600020015461408f565b614d76565b3461072357612cf0612cea366133fd565b90613b8b565b90610de260405192839283613413565b3461072357602036600319011261072357612d19613b4c565b5060a0612d27600435614aca565b608060405191600180851b038151168352602081015160208401526040810151604084015260608101516060840152015115156080820152f35b346107235760203660031901126107235760043560005260006020526020600160406000200154604051908152f35b346107235761088b612da1366133c8565b91613b04565b3461072357608036600319011261072357612dc061326e565b50612dc9613284565b50612dd5604435614c37565b51151580612deb575b6020906040519015158152f35b506064351515612dde565b3461072357612e0436613313565b916001600160a01b03612e1683614004565b16156107695761088b9233927f000000000000000000000000000000000000000000000000000000000000000061456d565b34610723576000366003190112610723576020600954604051908152f35b34610723576040366003190112610723576004356001600160401b0360243581811161072357612e9a90369060040161333d565b9092612ea4614027565b6001600160a01b03612eb582614004565b1615610769578115611069576000526020926016602052604060002092821161105357612ee682610fb985546135d5565b600093601f8311600114612f0a5750610ccc92938291600092610fe4575050613711565b90601f19831694846000526020600020926000905b878210612f3c57505083600195961061102157505050811b019055005b80600184968294958701358155019501920190612f1f565b3461072357612f6236613313565b6001600160a01b0380612f7484614004565b161561076957612f8383614004565b339116036106d85761088b92339261433e565b346107235761088b612fa7366132e0565b90612fb0614027565b3092614192565b3461072357604036600319011261072357612fd061326e565b602435612fdc81614004565b3315158061308b575b8061305e575b613046576001600160a01b039283169282918491167f8c5be1e5ebec7d5bd14f71427d1e84f3dd0314c0f7b2291e5b200ac8c7c3b925600080a4600090815260056020526040902080546001600160a01b0319169091179055005b60405163a9fbf51f60e01b8152336004820152602490fd5b5060018060a01b038116600052600660205260406000203360005260205260ff6040600020541615612feb565b506001600160a01b038116331415612fe5565b34610723576020366003190112610723576004356130bb81614004565b506000526005602052602060018060a01b0360406000205416604051908152f35b3461072357600036600319011261072357604051600060018260015492613102846135d5565b928383526020948560018216918260001461127a57505060011461312d575061122692500383613560565b849150600160005281600020906000915b858310613155575050611226935082010185611219565b8054838901850152879450869390920191810161313e565b34610723576020366003190112610723576004359063ffffffff60e01b82168092036107235760209163152a902d60e11b81149081156131af575b5015158152f35b63780e9d6360e01b8114915081156131c9575b50836131a8565b6380ac58cd60e01b811491508115613215575b81156131ea575b50836131c2565b637965db0b60e01b811491508115613204575b50836131e3565b6301ffc9a760e01b149050836131fd565b635b5e139f60e01b811491506131dc565b60005b8381106132395750506000910152565b8181015183820152602001613229565b9060209161326281518092818552858086019101613226565b601f01601f1916010190565b600435906001600160a01b038216820361072357565b602435906001600160a01b038216820361072357565b606435906001600160a01b038216820361072357565b9181601f84011215610723578235916001600160401b038311610723576020808501948460061b01011161072357565b9060406003198301126107235760043591602435906001600160401b0382116107235761330f916004016132b0565b9091565b6060906003190112610723576004356001600160a01b038116810361072357906024359060443590565b9181601f84011215610723578235916001600160401b038311610723576020838186019501011161072357565b6080600319820112610723576004356001600160a01b03811681036107235791602435916001600160401b039160443583811161072357826133ae9160040161333d565b939093926064359182116107235761330f916004016132b0565b6060906003190112610723576001600160a01b0390600435828116810361072357916024359081168103610723579060443590565b6040906003190112610723576004359060243590565b6001600160a01b039091168152602081019190915260400190565b9060c0600319830112610723576004359160243591604435916064356001600160a01b038116810361072357916084359160a435906001600160401b0382116107235761330f9160040161333d565b60208082019080835283518092528060408094019401926000905b8382106134a757505050505090565b845180516001600160a01b031687528301516001600160601b0316868401529485019493820193600190910190613498565b60a081019081106001600160401b0382111761105357604052565b604081019081106001600160401b0382111761105357604052565b602081019081106001600160401b0382111761105357604052565b60c081019081106001600160401b0382111761105357604052565b60e081019081106001600160401b0382111761105357604052565b601f909101601f19168101906001600160401b0382119082101761105357604052565b6001600160401b03811161105357601f01601f191660200190565b9291926135aa82613583565b916135b86040519384613560565b829481845281830111610723578281602093846000960137010152565b90600182811c92168015613605575b60208310146135ef57565b634e487b7160e01b600052602260045260246000fd5b91607f16916135e4565b80546000939261361e826135d5565b918282526020936001916001811690816000146136865750600114613645575b5050505050565b90939495506000929192528360002092846000945b8386106136725750505050010190388080808061363e565b80548587018301529401938590820161365a565b60ff19168685015250505090151560051b01019150388080808061363e565b600435906001600160601b038216820361072357565b90601f81116136c957505050565b6000916000526020600020906020601f850160051c83019410613707575b601f0160051c01915b8281106136fc57505050565b8181556001016136f0565b90925082906136e7565b8160011b916000199060031b1c19161790565b818102929181159184041417156122da57565b919082039182116122da57565b959490936001600160a01b039390928488169290831561165a578215611069576014549260001984146122da576001840160145560409485516137868161350f565b60009b8c825289613797888361472d565b16613aec57908c913b6139af575b508590525060156020908152858b2089905560168152948a20916001600160401b03821161399b576137db82610fb985546135d5565b8a90601f8311600114613938576137fb92918c918361392d575050613711565b90555b8561380e575b5050505050509050565b90613877916138697f0000000000000000000000000000000000000000000000000000000000000000976138448130338c61446a565b600080516020615b9083398151915254908160a01c918c92806138fa575b5050613737565b94816138e7575b50506151d2565b955b86518110156138d4576001906127106138a86001600160601b038561389e858d613b77565b5101511686613724565b04806138b6575b5001613879565b6138ce90866138c5848c613b77565b515116886144b1565b386138af565b5050505050905080388080808080613804565b6138f391309184614192565b3880613870565b61271091935061390a9083613724565b0491828a8161391a575b50613862565b61392592168c6144b1565b38828a613914565b013590503880610fdd565b838c52868c2091601f1984168d5b8982821061398557505090846001959493921061396b575b505050811b0190556137fe565b0135600019600384901b60f8161c1916905538808061395e565b6001849682939587013581550195019201613946565b634e487b7160e01b8b52604160045260248bfd5b6139f5836020928a9d9b99989796959e9c9a51948580948193630a85bd0160e11b83523360048401528360248401528c6044840152608060648401526084830190613249565b03925af18c9181613aa3575b50613a61578b8b8b3d15613a58573d613a1981613583565b90613a2683519283613560565b8152809360203d92013e5b82519283613a51578151633250574960e11b815260048101849052602490fd5b6020849101fd5b60609250613a31565b630a85bd0160e19b9293949596989a97999b1b9063ffffffff60e01b1603613a8c5750388a816137a5565b602490865190633250574960e11b82526004820152fd5b9091506020813d602011613ae4575b81613abf60209383613560565b81010312613ae057516001600160e01b031981168103613ae0579038613a01565b8c80fd5b3d9150613ab2565b87516339e3563760e11b8152600481018e9052602490fd5b906001600160a01b039081811615613b3357613b2290843391614982565b9080831690821603611e9357505050565b604051633250574960e11b815260006004820152602490fd5b60405190613b59826134d9565b60006080838281528260208201528260408201528260608201520152565b8051821015611baf5760209160051b010190565b600080516020615b70833981519152546001600160601b0393926127109291613bc4918491613bbd9190881690613724565b0491614c37565b908151158015613bdc57505050509050600090600090565b611baf576020613bf59201519460208601511690613724565b92516001600160a01b0316920490565b600954811015611baf57600960005260206000200190600090565b6001600160a01b03168015613c4057600052600460205260406000205490565b6040516322718ad960e21b815260006004820152602490fd5b6001600160401b0381116110535760051b60200190565b6001600160a01b03909116908115613d52576107d06001600160601b03821611613cff573015613cba5760a01b6001600160a01b03191617600080516020615b9083398151915255565b60405162461bcd60e51b815260206004820152601d60248201527f41636365737320636f6e74726f6c2063616e6e6f74206265207a65726f0000006044820152606490fd5b60405162461bcd60e51b815260206004820152602560248201527f506c6174666f726d20636f6d6d697373696f6e2063616e6e6f74206578636565604482015264642032302560d81b6064820152608490fd5b60405162461bcd60e51b815260206004820152601f60248201527f506c6174666f726d20616464726573732063616e6e6f74206265207a65726f006044820152606490fd5b6001600160a01b03613da882614004565b1615613ff257600081815260209160168352611a41613dd0604084206040519283809261360f565b8051613feb57509081908072184f03e93ff9f4daa797ed6e38ed64bf6a1f0160401b8381811015613fdd575b508590506904ee2d6d415b85acef8160201b80861015613fce575b5050662386f26fc1000080851015613fbf575b506305f5e10080851015613fb0575b5061271080851015613fa1575b506064841015613f91575b600a80941015613f87575b6001916001810194613e86613e7087613583565b96613e7e6040519889613560565b808852613583565b9484602189890194601f19809901368737890101905b613f58575b5050506040519586938360175491613eb8836135d5565b9260018116908115613f375750600114613ef3575b50505050613ee38291613ef09651938491613226565b0103908101835282613560565b90565b90919297939450601782528782205b838310613f2157505050613ef095613ee3918501019291953880613ecd565b80548a84018a0152899650918801918101613f02565b60ff191688860152505050801515028401019150613ee3613ef03880613ecd565b600019019082906f181899199a1a9b1b9c1cb0b131b232b360811b8282061a835304908582613e9c5750613ea1565b9060010190613e5c565b9092606460029104930190613e51565b60049192940493019038613e46565b60089192940493019038613e39565b60109192940493019038613e2a565b90919294049301908438613e17565b049350604091503880613dfc565b9250505090565b604051636c01c8cf60e11b8152600490fd5b6000818152600360205260409020546001600160a01b03169081156122ac575090565b3360009081527fd329ff8a035c3ce5df2b0dae604d660c0d8783bf7e64be00c1d10db96c0b87b46020526040902054600080516020615b308339815191529060ff16156140715750565b6044906040519063e2517d3f60e01b82523360048301526024820152fd5b80600052600060205260406000203360005260205260ff60406000205416156140715750565b90816020910312610723575180151581036107235790565b9190811015611baf5760061b0190565b356001600160601b03811681036107235790565b919082018092116122da57565b805490600090600081558261411257505050565b6000526020600020918201915b82811061412b57505050565b81815560010161411f565b805490600160401b8210156110535760018201808255821015611baf5760005260206000200181359160018060a01b0383168093036107235781546001600160a01b031916909217815561419091611b85906020016140dd565b565b9291909160409081518091634f558e7960e01b825286600483015281602460209485935afa90811561429e57600091614281575b5015614270576000805b84821061424a576127109150036142395784600052600080516020615b5083398151915290818152614204836000206140fe565b60005b8481106142175750505050505050565b60019087600052838352614233856000206109c483898b6140cd565b01614207565b8151630569d67b60e21b8152600490fd5b600190614268906001600160601b03610a0686610a00878b8d6140cd565b9101906141d0565b815163677510db60e11b8152600490fd5b6142989150823d8411610a3b57610a2d8183613560565b386141c6565b83513d6000823e3d90fd5b156142b057565b60405162461bcd60e51b815260206004820152602160248201527f53616c65207072696365206d7573742062652067726561746572207468616e206044820152600360fc1b6064820152608490fd5b90815260609190911b6001600160601b03191660208201526034810191909152605481019190915260740190565b9060ff801983541691151516179055565b91929091906001600160a01b0390811615614410578216156143d05761438e6143809161436c8515156142a9565b6040519283918660208401964292886142ff565b03601f198101835282613560565b519020600052600080516020615c708339815191526020526040600020600160ff19825416179055600080516020615c30833981519152602052604060002055565b60405162461bcd60e51b8152602060048201526018602482015277526563697069656e742063616e6e6f74206265207a65726f60401b6044820152606490fd5b60405162461bcd60e51b81526020600482015260146024820152734f776e65722063616e6e6f74206265207a65726f60601b6044820152606490fd5b60ff600d541661445857565b60405163d93c066560e01b8152600490fd5b6040516323b872dd60e01b60208201526001600160a01b039283166024820152929091166044830152606480830193909352918152614190916144ac826134d9565b6155ff565b6144ac61419093926144d860405194859263a9059cbb60e01b602085015260248401613413565b03601f198101845283613560565b156144ed57565b60405162461bcd60e51b815260206004820152601560248201527453656c6c65722063616e6e6f74206265207a65726f60581b6044820152606490fd5b1561453157565b60405162461bcd60e51b815260206004820152601460248201527342757965722063616e6e6f74206265207a65726f60601b6044820152606490fd5b9392916001600160a01b03919061458783851615156144e6565b614594838616151561452a565b61459f8115156142a9565b6000805b6103e881106146c7575b501561466b57614620926145ea91600080516020615b90833981519152548060a01c9260009380614653575b5083908161463f575b505050613737565b61461b858761271061461360018060601b03600080516020615b70833981519152541686613724565b04809561565b565b613737565b918261462d575b50505050565b6146369361446a565b38808080614627565b61464b9216898b61446a565b3882816145e2565b6127109194506146639084613724565b0492386145d9565b60405162461bcd60e51b815260206004820152602e60248201527f5472616e73666572206e6f7420696e69746961746564206f7220726f79616c7460448201526d1e48185b1c9958591e481c185a5960921b6064820152608490fd5b6146d18142613737565b600080516020615c7083398151915288866143806146fe60409586519283918b60209788850197886142ff565b51902060005252600020805460ff811661471c5750506001016145a3565b60ff191690555060019050386145ad565b6000828152600360209081526040808320546001600160a01b039081169592949192918615918215614962575b811691821590811561494c575b8487526003885285872080546001600160a01b0319168517905584848a600080516020615bf08339815191528a80a4156148e057600954848752600a8852858720819055600160401b8110156148cc57846104ae8260016147cb9401600955613c05565b156148635750506009546000199485820191821161484f5790600a839286959486528181526147fd8587205493613c05565b90549060031b1c614811816104ae86613c05565b86525282842055825281205560095490811561483b57500161483561053182613c05565b60095590565b634e487b7160e01b81526031600452602490fd5b634e487b7160e01b85526011600452602485fd5b8187969392969594950361487b575b50505050505090565b61488490613c20565b6000198101959086116148b85783526007825283832085845282528383208190558252600890522055388080808080614872565b634e487b7160e01b84526011600452602484fd5b634e487b7160e01b87526041600452602487fd5b8783146147cb576148f088613c20565b848752600888528587205490898852600789528688209181810361492a575b508588526008895287878120558752875285858120556147cb565b818952828a5287892054818a5280898b2055895260088a52878920553861490f565b8387526004885285872060018154019055614767565b61496b846155e1565b87865260048752848620805460001901905561475a565b6000908282526020926003845260018060a01b03604092818486205416968281168015159081614a29575b505050861591821561496257811691821590811561494c578487526003885285872080546001600160a01b0319168517905584848a600080516020615bf08339815191528a80a4156148e057600954848752600a8852858720819055600160401b8110156148cc57846104ae8260016147cb9401600955613c05565b81614a7d575b5015614a3c5780806149ad565b8484918915600014614a60578151637e27328960e01b815260048101849052602490fd5b905163177e802f60e01b8152918291610679919060048401613413565b89811491508115614aad575b8115614a97575b5038614a2f565b9050848752600588528386882054161438614a90565b8988526006895286882081895289528688205460ff169150614a89565b614ad2613b4c565b5060408051634f558e7960e01b815260048101839052602092908381602481305afa90811561429e57600091614ba5575b5015614b6a5760ff91600491600052600080516020615b1083398151915284528060002090805194614b34866134d9565b82546001600160a01b03168652600183015490860152600282015490850152600381015460608501520154161515608082015290565b815162461bcd60e51b8152600481018490526014602482015273151bdad95b88191bd95cc81b9bdd08195e1a5cdd60621b6044820152606490fd5b614bbc9150843d8611610a3b57610a2d8183613560565b38614b03565b908154614bce81613c59565b92604093614bdf6040519182613560565b82815280946020809201926000526020600020906000935b858510614c0657505050505050565b60018481928451614c16816134f4565b8654848060a01b038116825260a01c83820152815201930194019391614bf7565b6000526020600080516020615bb083398151915260205260409060406000208054614cdc5750600080516020615bd0833981519152805491614c7883613c59565b93614c866040519586613560565b83855260208501926000526020600020906000935b858510614cab5750505050505090565b60018481928451614cbb816134f4565b8654848060a01b038116825260a01c83820152815201930194019391614c9b565b9050613ef09150614bc2565b6001600160a01b031660008181527f64d20ad6c082d9621149fdda479032d4fb46f976cd92c72281623a586193c3b86020526040812054909190600080516020615c108339815191529060ff16614d7157808352826020526040832082845260205260408320600160ff19825416179055600080516020615af0833981519152339380a4600190565b505090565b9060009180835282602052604083209160018060a01b03169182845260205260ff60408420541615600014614d7157808352826020526040832082845260205260408320600160ff19825416179055600080516020615af0833981519152339380a4600190565b604290614de86156da565b906040519161190160f01b8352600283015260228201522090565b15614e0a57565b60405162461bcd60e51b815260206004820152601a602482015279546f6b656e206f776e65722063616e6e6f74206265207a65726f60301b6044820152606490fd5b15614e5357565b60405162461bcd60e51b815260206004820152602a60248201527f4164646974696f6e616c206475726174696f6e206d75737420626520677265616044820152690746572207468616e20360b41b6064820152608490fd5b15614eb257565b60405162461bcd60e51b815260206004820152602960248201527f4164646974696f6e616c207061796d656e74206d75737420626520677265617460448201526806572207468616e20360bc1b6064820152608490fd5b15614f1057565b60405162461bcd60e51b8152602060048201526013602482015272151bdad95b881a5cc81b9bdd081c995b9d1959606a1b6044820152606490fd5b15614f5257565b60405162461bcd60e51b815260206004820152601960248201527821b0b63632b91036bab9ba103132903a3432903932b73a32b960391b6044820152606490fd5b15614f9a57565b60405162461bcd60e51b815260206004820152602660248201527f52656e74616c206475726174696f6e206d75737420626520677265617465722060448201526507468616e20360d41b6064820152608490fd5b15614ff557565b60405162461bcd60e51b815260206004820152602360248201527f52656e74616c207072696365206d75737420626520677265617465722074686160448201526206e20360ec1b6064820152608490fd5b1561504d57565b60405162461bcd60e51b8152602060048201526017602482015276151bdad95b881a5cc8185b1c9958591e481c995b9d1959604a1b6044820152606490fd5b80600052600080516020615b1083398151915290816020526150b860ff60046040600020015416614f09565b600052602052600460406000200160ff198154169055565b9060009180835282602052604083209160018060a01b03169182845260205260ff604084205416600014614d715780835282602052604083208284526020526040832060ff1981541690557ff6391f5c32d9c69d2a47ea670b442974b53935d1edc7fd64eb21e047a839171b339380a4600190565b6001600160a01b03918216919061515d831515614e03565b615166816158b5565b61516f57505050565b600052600080516020615b10833981519152602052604060002054160361519257565b60405162461bcd60e51b815260206004820152601860248201527721b0b73737ba10313ab937103932b73a32b2103a37b5b2b760411b6044820152606490fd5b6000526020600080516020615b5083398151915260205260409060406000208054614cdc5750600080516020615c5083398151915280549161521383613c59565b936152216040519586613560565b83855260208501926000526020600020906000935b8585106152465750505050505090565b60018481928451615256816134f4565b8654848060a01b038116825260a01c83820152815201930194019391615236565b929390926001600160a01b03615290848216151561452a565b61529d81841615156144e6565b6152a88615156142a9565b600080516020615b90833981519152805460a01c906000918061547c575b506152d38830888761446a565b6152dd8289613737565b918381615468575b5050600080516020615b7083398151915254612710936001600160601b03925090849061531490841685613724565b0493846153db575b5050509061532991613737565b82816153ca575b505050604051916020830193845260018060601b0319809260601b16604084015260601b166054820152604881526080810181811060018060401b03821117611053576040525190206000527f6b770677edae0e90cca492948fa872f24dbe9c82ebeb8d39118b033a5e1bd3e16020526040600020600160ff19825416179055600080516020615c30833981519152602052604060002055565b6153d3926144b1565b388082615330565b6153e489614c37565b9283516153f2575b5061531c565b9495989197909660009b949a939b5b8c5181101561544e5780808e8d8d8d6154238e8e6020610d2a60019b89613b77565b049283615436575b505050505001615401565b61544394610d5491613b77565b80388f8d8f9161542b565b5096509650969391985096615329925090913880806153ec565b615474925416856144b1565b3880836152e5565b61271091925061548c9089613724565b0490386152c6565b90939192833b6154a5575050505050565b604051630a85bd0160e11b8082526001600160a01b0393841660048301529583166024820152604481019190915260806064820152949216926020929185906154f2906084830190613249565b039483816000978189895af186918161559d575b50615567575050503d60001461555e573d61552081613583565b9061552e6040519283613560565b81528093823d92013e5b8251928361555957604051633250574960e11b815260048101849052602490fd5b019050fd5b60609250615538565b919450915063ffffffff60e01b16036155855750388080808061363e565b60249060405190633250574960e11b82526004820152fd5b9091508481813d83116155da575b6155b58183613560565b810103126155d657516001600160e01b0319811681036155d6579038615506565b8680fd5b503d6155ab565b600090815260056020526040902080546001600160a01b0319169055565b906000602091828151910182855af115610a42576000513d61565257506001600160a01b0381163b155b6156305750565b604051635274afe760e01b81526001600160a01b039091166004820152602490fd5b60011415615629565b6156689094939194614c37565b918251156156d35760005b83518110156156cb576001906127106156996001600160601b03602061193e858a613b77565b04806156a7575b5001615673565b6156c590838060a01b036156bb8489613b77565b515116868661446a565b386156a0565b505050509050565b5050509050565b307f00000000000000000000000000000000000000000000000000000000000000006001600160a01b031614806157cb575b15615735577f000000000000000000000000000000000000000000000000000000000000000090565b60405160208101907f8b73c3c69bb8fe3d512ecc4cf759cc79239f7b179b0ffacaa9a75d522b39400f82527f000000000000000000000000000000000000000000000000000000000000000060408201527f000000000000000000000000000000000000000000000000000000000000000060608201524660808201523060a082015260a081526157c58161352a565b51902090565b507f0000000000000000000000000000000000000000000000000000000000000000461461570c565b81519190604183036158255761581e92506020820151906060604084015193015160001a90615a69565b9192909190565b505060009160029190565b600481101561589f5780615842575050565b6001810361585c5760405163f645eedf60e01b8152600490fd5b6002810361587d5760405163fce698f760e01b815260048101839052602490fd5b6003146158875750565b602490604051906335e2f38360e21b82526004820152fd5b634e487b7160e01b600052602160045260246000fd5b600052600080516020615b10833981519152602052604060002060ff60048201541690816158e1575090565b600291500154421090565b60ff811461592a5760ff811690601f8211615918576040519161590e836134f4565b8252602082015290565b604051632cd44ac360e21b8152600490fd5b50604051600e5481600061593d836135d5565b8083526020936001908181169081156159a95750600114615967575b5050613ef092500382613560565b90939150600e60005281600020936000915b818310615991575050613ef093508201013880615959565b85548784018501529485019486945091830191615979565b915050613ef094925060ff191682840152151560051b8201013880615959565b60ff81146159eb5760ff811690601f8211615918576040519161590e836134f4565b50604051600f548160006159fe836135d5565b8083526020936001908181169081156159a95750600114615a27575050613ef092500382613560565b90939150600f60005281600020936000915b818310615a51575050613ef093508201013880615959565b85548784018501529485019486945091830191615a39565b91906fa2a8918ca85bafe22016d0b997e4df60600160ff1b038411615ae357926020929160ff608095604051948552168484015260408301526060820152600092839182805260015afa15615ad75780516001600160a01b03811615615ace57918190565b50809160019190565b604051903d90823e3d90fd5b5050506000916003919056fe2f8788117e7eff1d82e926ec794901d17c78024a50270940304540a733656f0defbf0e557c8acb6e3deb011ac697e5553b802e419ed4680395101c0ddc5e8723b19546dff01e856fb3f010c267a7b1c60363cf8a4664e21cc89c26224620214e1aa44fcb526383bd2f7c6231f8c09a41edc5b654966336907d6f785a5b3d28921aa44fcb526383bd2f7c6231f8c09a41edc5b654966336907d6f785a5b3d288fde1159fbbeca73b2aca5752c42b257ca18171ae3b3d3bbf22c7938e3a961a0cb1aa44fcb526383bd2f7c6231f8c09a41edc5b654966336907d6f785a5b3d28931aa44fcb526383bd2f7c6231f8c09a41edc5b654966336907d6f785a5b3d2891ddf252ad1be2c89b69c2b068fc378daa952ba7f163c4a11628f55a4df523b3ef3b652633b3026fa70803ad50b58b0ae884cefe3497643f62c67c466f41a6e88d6b770677edae0e90cca492948fa872f24dbe9c82ebeb8d39118b033a5e1bd3e01aa44fcb526383bd2f7c6231f8c09a41edc5b654966336907d6f785a5b3d28906b770677edae0e90cca492948fa872f24dbe9c82ebeb8d39118b033a5e1bd3dfa164736f6c6343000818000a2f8788117e7eff1d82e926ec794901d17c78024a50270940304540a733656f0d405787fa12a823e0f2b7631cc41b3ba8828b3321ca811111fa75cd3aa3bb5aceb10e2d527612073b26eecdfd717e6a320cf44b4afac2b0732d9fcbe2b7fa0cf6c624b66cc0138b8fabc209247f72d758e1cf3343756d543badbf24212bed8c15",
  "linkReferences": {},
  "deployedLinkReferences": {}
}