{
  "_format": "hh-sol-artifact-1",
  "contractName": "KAMI721AC",
  "sourceName": "contracts/KAMI721AC.sol",
  "abi": [
    {
      "inputs": [
        {
          "internalType": "address",
          "name": "paymentToken_",
          "type": "address"
        },
        {
          "internalType": "string",
          "name": "name_",
          "type": "string"
        },
        {
          "internalType": "string",
          "name": "symbol_",
          "type": "string"
        },
        {
          "internalType": "string",
          "name": "baseTokenURI_",
          "type": "string"
        },
        {
          "internalType": "address",
          "name": "platformAddress_",
          "type": "address"
        },
        {
          "internalType": "uint96",
          "name": "platformCommissionPercentage_",
          "type": "uint96"
        },
        {
          "internalType": "address",
          "name": "adminAddress_",
          "type": "address"
        },
        {
          "internalType": "uint256",
          "name": "totalSupply_",
          "type": "uint256"
        },
        {
          "internalType": "uint256",
          "name": "mintPrice_",
          "type": "uint256"
        }
      ],
      "stateMutability": "nonpayable",
      "type": "constructor"
    },
    {
      "inputs": [],
      "name": "AccessControlBadConfirmation",
      "type": "error"
    },
    {
      "inputs": [
        {
          "internalType": "address",
          "name": "account",
          "type": "address"
        },
        {
          "internalType": "bytes32",
          "name": "neededRole",
          "type": "bytes32"
        }
      ],
      "name": "AccessControlUnauthorizedAccount",
      "type": "error"
    },
    {
      "inputs": [],
      "name": "AlreadyClaimed",
      "type": "error"
    },
    {
      "inputs": [],
      "name": "ArrayLengthMismatch",
      "type": "error"
    },
    {
      "inputs": [],
      "name": "CallerNotOwner",
      "type": "error"
    },
    {
      "inputs": [],
      "name": "CallerNotTokenOwnerOrApproved",
      "type": "error"
    },
    {
      "inputs": [],
      "name": "ECDSAInvalidSignature",
      "type": "error"
    },
    {
      "inputs": [
        {
          "internalType": "uint256",
          "name": "length",
          "type": "uint256"
        }
      ],
      "name": "ECDSAInvalidSignatureLength",
      "type": "error"
    },
    {
      "inputs": [
        {
          "internalType": "bytes32",
          "name": "s",
          "type": "bytes32"
        }
      ],
      "name": "ECDSAInvalidSignatureS",
      "type": "error"
    },
    {
      "inputs": [
        {
          "internalType": "uint256",
          "name": "numerator",
          "type": "uint256"
        },
        {
          "internalType": "uint256",
          "name": "denominator",
          "type": "uint256"
        }
      ],
      "name": "ERC2981InvalidDefaultRoyalty",
      "type": "error"
    },
    {
      "inputs": [
        {
          "internalType": "address",
          "name": "receiver",
          "type": "address"
        }
      ],
      "name": "ERC2981InvalidDefaultRoyaltyReceiver",
      "type": "error"
    },
    {
      "inputs": [
        {
          "internalType": "uint256",
          "name": "tokenId",
          "type": "uint256"
        },
        {
          "internalType": "uint256",
          "name": "numerator",
          "type": "uint256"
        },
        {
          "internalType": "uint256",
          "name": "denominator",
          "type": "uint256"
        }
      ],
      "name": "ERC2981InvalidTokenRoyalty",
      "type": "error"
    },
    {
      "inputs": [
        {
          "internalType": "uint256",
          "name": "tokenId",
          "type": "uint256"
        },
        {
          "internalType": "address",
          "name": "receiver",
          "type": "address"
        }
      ],
      "name": "ERC2981InvalidTokenRoyaltyReceiver",
      "type": "error"
    },
    {
      "inputs": [],
      "name": "ERC721EnumerableForbiddenBatchMint",
      "type": "error"
    },
    {
      "inputs": [
        {
          "internalType": "address",
          "name": "sender",
          "type": "address"
        },
        {
          "internalType": "uint256",
          "name": "tokenId",
          "type": "uint256"
        },
        {
          "internalType": "address",
          "name": "owner",
          "type": "address"
        }
      ],
      "name": "ERC721IncorrectOwner",
      "type": "error"
    },
    {
      "inputs": [
        {
          "internalType": "address",
          "name": "operator",
          "type": "address"
        },
        {
          "internalType": "uint256",
          "name": "tokenId",
          "type": "uint256"
        }
      ],
      "name": "ERC721InsufficientApproval",
      "type": "error"
    },
    {
      "inputs": [
        {
          "internalType": "address",
          "name": "approver",
          "type": "address"
        }
      ],
      "name": "ERC721InvalidApprover",
      "type": "error"
    },
    {
      "inputs": [
        {
          "internalType": "address",
          "name": "operator",
          "type": "address"
        }
      ],
      "name": "ERC721InvalidOperator",
      "type": "error"
    },
    {
      "inputs": [
        {
          "internalType": "address",
          "name": "owner",
          "type": "address"
        }
      ],
      "name": "ERC721InvalidOwner",
      "type": "error"
    },
    {
      "inputs": [
        {
          "internalType": "address",
          "name": "receiver",
          "type": "address"
        }
      ],
      "name": "ERC721InvalidReceiver",
      "type": "error"
    },
    {
      "inputs": [
        {
          "internalType": "address",
          "name": "sender",
          "type": "address"
        }
      ],
      "name": "ERC721InvalidSender",
      "type": "error"
    },
    {
      "inputs": [
        {
          "internalType": "uint256",
          "name": "tokenId",
          "type": "uint256"
        }
      ],
      "name": "ERC721NonexistentToken",
      "type": "error"
    },
    {
      "inputs": [
        {
          "internalType": "address",
          "name": "owner",
          "type": "address"
        },
        {
          "internalType": "uint256",
          "name": "index",
          "type": "uint256"
        }
      ],
      "name": "ERC721OutOfBoundsIndex",
      "type": "error"
    },
    {
      "inputs": [],
      "name": "EmptyRecipientsArray",
      "type": "error"
    },
    {
      "inputs": [],
      "name": "EmptyTokenURI",
      "type": "error"
    },
    {
      "inputs": [],
      "name": "EnforcedPause",
      "type": "error"
    },
    {
      "inputs": [],
      "name": "ExpectedPause",
      "type": "error"
    },
    {
      "inputs": [],
      "name": "InvalidPaymentTokenAddress",
      "type": "error"
    },
    {
      "inputs": [],
      "name": "InvalidPlatformAddress",
      "type": "error"
    },
    {
      "inputs": [],
      "name": "InvalidPrice",
      "type": "error"
    },
    {
      "inputs": [],
      "name": "InvalidRecipientAddress",
      "type": "error"
    },
    {
      "inputs": [],
      "name": "InvalidShortString",
      "type": "error"
    },
    {
      "inputs": [],
      "name": "InvalidSigner",
      "type": "error"
    },
    {
      "inputs": [],
      "name": "MintPriceNotSet",
      "type": "error"
    },
    {
      "inputs": [],
      "name": "OwnerCannotRentOwnToken",
      "type": "error"
    },
    {
      "inputs": [],
      "name": "PlatformCommissionTooHigh",
      "type": "error"
    },
    {
      "inputs": [],
      "name": "QueryForNonexistentToken",
      "type": "error"
    },
    {
      "inputs": [],
      "name": "RecipientAlreadyClaimed",
      "type": "error"
    },
    {
      "inputs": [],
      "name": "RoyaltiesMustSumTo10000",
      "type": "error"
    },
    {
      "inputs": [],
      "name": "RoyaltyPercentageTooHigh",
      "type": "error"
    },
    {
      "inputs": [
        {
          "internalType": "address",
          "name": "token",
          "type": "address"
        }
      ],
      "name": "SafeERC20FailedOperation",
      "type": "error"
    },
    {
      "inputs": [],
      "name": "SalePriceNotSet",
      "type": "error"
    },
    {
      "inputs": [],
      "name": "SellerNotTokenOwner",
      "type": "error"
    },
    {
      "inputs": [],
      "name": "SignatureExpired",
      "type": "error"
    },
    {
      "inputs": [
        {
          "internalType": "string",
          "name": "str",
          "type": "string"
        }
      ],
      "name": "StringTooLong",
      "type": "error"
    },
    {
      "inputs": [],
      "name": "TokenDoesNotExist",
      "type": "error"
    },
    {
      "inputs": [],
      "name": "TokenPriceNotSet",
      "type": "error"
    },
    {
      "inputs": [],
      "name": "TokenSupplyExceeded",
      "type": "error"
    },
    {
      "inputs": [],
      "name": "TooManyRecipients",
      "type": "error"
    },
    {
      "inputs": [],
      "name": "ZeroAddress",
      "type": "error"
    },
    {
      "anonymous": false,
      "inputs": [
        {
          "indexed": true,
          "internalType": "address",
          "name": "owner",
          "type": "address"
        },
        {
          "indexed": true,
          "internalType": "address",
          "name": "approved",
          "type": "address"
        },
        {
          "indexed": true,
          "internalType": "uint256",
          "name": "tokenId",
          "type": "uint256"
        }
      ],
      "name": "Approval",
      "type": "event"
    },
    {
      "anonymous": false,
      "inputs": [
        {
          "indexed": true,
          "internalType": "address",
          "name": "owner",
          "type": "address"
        },
        {
          "indexed": true,
          "internalType": "address",
          "name": "operator",
          "type": "address"
        },
        {
          "indexed": false,
          "internalType": "bool",
          "name": "approved",
          "type": "bool"
        }
      ],
      "name": "ApprovalForAll",
      "type": "event"
    },
    {
      "anonymous": false,
      "inputs": [
        {
          "indexed": true,
          "internalType": "address",
          "name": "caller",
          "type": "address"
        },
        {
          "indexed": false,
          "internalType": "address[]",
          "name": "recipients",
          "type": "address[]"
        }
      ],
      "name": "BatchClaimed",
      "type": "event"
    },
    {
      "anonymous": false,
      "inputs": [
        {
          "indexed": true,
          "internalType": "address",
          "name": "owner",
          "type": "address"
        },
        {
          "indexed": false,
          "internalType": "address[]",
          "name": "recipients",
          "type": "address[]"
        },
        {
          "indexed": false,
          "internalType": "uint256",
          "name": "totalPayment",
          "type": "uint256"
        }
      ],
      "name": "BatchClaimedFor",
      "type": "event"
    },
    {
      "anonymous": false,
      "inputs": [],
      "name": "EIP712DomainChanged",
      "type": "event"
    },
    {
      "anonymous": false,
      "inputs": [
        {
          "indexed": false,
          "internalType": "uint256",
          "name": "oldPrice",
          "type": "uint256"
        },
        {
          "indexed": false,
          "internalType": "uint256",
          "name": "newPrice",
          "type": "uint256"
        }
      ],
      "name": "MintPriceUpdated",
      "type": "event"
    },
    {
      "anonymous": false,
      "inputs": [
        {
          "indexed": false,
          "internalType": "address",
          "name": "account",
          "type": "address"
        }
      ],
      "name": "Paused",
      "type": "event"
    },
    {
      "anonymous": false,
      "inputs": [
        {
          "indexed": true,
          "internalType": "bytes32",
          "name": "role",
          "type": "bytes32"
        },
        {
          "indexed": true,
          "internalType": "bytes32",
          "name": "previousAdminRole",
          "type": "bytes32"
        },
        {
          "indexed": true,
          "internalType": "bytes32",
          "name": "newAdminRole",
          "type": "bytes32"
        }
      ],
      "name": "RoleAdminChanged",
      "type": "event"
    },
    {
      "anonymous": false,
      "inputs": [
        {
          "indexed": true,
          "internalType": "bytes32",
          "name": "role",
          "type": "bytes32"
        },
        {
          "indexed": true,
          "internalType": "address",
          "name": "account",
          "type": "address"
        },
        {
          "indexed": true,
          "internalType": "address",
          "name": "sender",
          "type": "address"
        }
      ],
      "name": "RoleGranted",
      "type": "event"
    },
    {
      "anonymous": false,
      "inputs": [
        {
          "indexed": true,
          "internalType": "bytes32",
          "name": "role",
          "type": "bytes32"
        },
        {
          "indexed": true,
          "internalType": "address",
          "name": "account",
          "type": "address"
        },
        {
          "indexed": true,
          "internalType": "address",
          "name": "sender",
          "type": "address"
        }
      ],
      "name": "RoleRevoked",
      "type": "event"
    },
    {
      "anonymous": false,
      "inputs": [
        {
          "indexed": true,
          "internalType": "uint256",
          "name": "tokenId",
          "type": "uint256"
        },
        {
          "indexed": false,
          "internalType": "uint256",
          "name": "oldPrice",
          "type": "uint256"
        },
        {
          "indexed": false,
          "internalType": "uint256",
          "name": "newPrice",
          "type": "uint256"
        }
      ],
      "name": "SalePriceUpdated",
      "type": "event"
    },
    {
      "anonymous": false,
      "inputs": [
        {
          "indexed": true,
          "internalType": "address",
          "name": "claimer",
          "type": "address"
        },
        {
          "indexed": true,
          "internalType": "uint256",
          "name": "tokenId",
          "type": "uint256"
        },
        {
          "indexed": false,
          "internalType": "uint256",
          "name": "paymentAmount",
          "type": "uint256"
        }
      ],
      "name": "TokenClaimed",
      "type": "event"
    },
    {
      "anonymous": false,
      "inputs": [
        {
          "indexed": true,
          "internalType": "address",
          "name": "from",
          "type": "address"
        },
        {
          "indexed": true,
          "internalType": "address",
          "name": "to",
          "type": "address"
        },
        {
          "indexed": true,
          "internalType": "uint256",
          "name": "tokenId",
          "type": "uint256"
        }
      ],
      "name": "Transfer",
      "type": "event"
    },
    {
      "anonymous": false,
      "inputs": [
        {
          "indexed": false,
          "internalType": "address",
          "name": "account",
          "type": "address"
        }
      ],
      "name": "Unpaused",
      "type": "event"
    },
    {
      "inputs": [],
      "name": "DEFAULT_ADMIN_ROLE",
      "outputs": [
        {
          "internalType": "bytes32",
          "name": "",
          "type": "bytes32"
        }
      ],
      "stateMutability": "view",
      "type": "function"
    },
    {
      "inputs": [],
      "name": "OWNER_ROLE",
      "outputs": [
        {
          "internalType": "bytes32",
          "name": "",
          "type": "bytes32"
        }
      ],
      "stateMutability": "view",
      "type": "function"
    },
    {
      "inputs": [],
      "name": "PAYMENT_TOKEN",
      "outputs": [
        {
          "internalType": "contract IERC20",
          "name": "",
          "type": "address"
        }
      ],
      "stateMutability": "view",
      "type": "function"
    },
    {
      "inputs": [],
      "name": "PLATFORM_ROLE",
      "outputs": [
        {
          "internalType": "bytes32",
          "name": "",
          "type": "bytes32"
        }
      ],
      "stateMutability": "view",
      "type": "function"
    },
    {
      "inputs": [],
      "name": "RENTER_ROLE",
      "outputs": [
        {
          "internalType": "bytes32",
          "name": "",
          "type": "bytes32"
        }
      ],
      "stateMutability": "view",
      "type": "function"
    },
    {
      "inputs": [
        {
          "internalType": "address",
          "name": "to",
          "type": "address"
        },
        {
          "internalType": "uint256",
          "name": "tokenId",
          "type": "uint256"
        }
      ],
      "name": "approve",
      "outputs": [],
      "stateMutability": "nonpayable",
      "type": "function"
    },
    {
      "inputs": [
        {
          "internalType": "address",
          "name": "owner",
          "type": "address"
        }
      ],
      "name": "balanceOf",
      "outputs": [
        {
          "internalType": "uint256",
          "name": "",
          "type": "uint256"
        }
      ],
      "stateMutability": "view",
      "type": "function"
    },
    {
      "inputs": [
        {
          "internalType": "address[]",
          "name": "recipients",
          "type": "address[]"
        },
        {
          "internalType": "string[]",
          "name": "uris",
          "type": "string[]"
        },
        {
          "components": [
            {
              "internalType": "address",
              "name": "receiver",
              "type": "address"
            },
            {
              "internalType": "uint96",
              "name": "feeNumerator",
              "type": "uint96"
            }
          ],
          "internalType": "struct KamiNFTCore.RoyaltyData[]",
          "name": "mintRoyalties",
          "type": "tuple[]"
        }
      ],
      "name": "batchClaim",
      "outputs": [],
      "stateMutability": "nonpayable",
      "type": "function"
    },
    {
      "inputs": [
        {
          "internalType": "address[]",
          "name": "recipients",
          "type": "address[]"
        },
        {
          "internalType": "string[]",
          "name": "uris",
          "type": "string[]"
        },
        {
          "components": [
            {
              "internalType": "address",
              "name": "receiver",
              "type": "address"
            },
            {
              "internalType": "uint96",
              "name": "feeNumerator",
              "type": "uint96"
            }
          ],
          "internalType": "struct KamiNFTCore.RoyaltyData[]",
          "name": "mintRoyalties",
          "type": "tuple[]"
        }
      ],
      "name": "batchClaimFor",
      "outputs": [],
      "stateMutability": "nonpayable",
      "type": "function"
    },
    {
      "inputs": [
        {
          "internalType": "uint256",
          "name": "tokenId",
          "type": "uint256"
        }
      ],
      "name": "burn",
      "outputs": [],
      "stateMutability": "nonpayable",
      "type": "function"
    },
    {
      "inputs": [
        {
          "internalType": "uint256",
          "name": "tokenId",
          "type": "uint256"
        },
        {
          "internalType": "uint256",
          "name": "deadline",
          "type": "uint256"
        },
        {
          "internalType": "bytes",
          "name": "signature",
          "type": "bytes"
        }
      ],
      "name": "burnWithSignature",
      "outputs": [],
      "stateMutability": "nonpayable",
      "type": "function"
    },
    {
      "inputs": [
        {
          "internalType": "string",
          "name": "uri",
          "type": "string"
        },
        {
          "components": [
            {
              "internalType": "address",
              "name": "receiver",
              "type": "address"
            },
            {
              "internalType": "uint96",
              "name": "feeNumerator",
              "type": "uint96"
            }
          ],
          "internalType": "struct KamiNFTCore.RoyaltyData[]",
          "name": "mintRoyalties",
          "type": "tuple[]"
        }
      ],
      "name": "claim",
      "outputs": [],
      "stateMutability": "nonpayable",
      "type": "function"
    },
    {
      "inputs": [
        {
          "internalType": "address",
          "name": "claimer",
          "type": "address"
        },
        {
          "internalType": "string",
          "name": "uri",
          "type": "string"
        },
        {
          "components": [
            {
              "internalType": "address",
              "name": "receiver",
              "type": "address"
            },
            {
              "internalType": "uint96",
              "name": "feeNumerator",
              "type": "uint96"
            }
          ],
          "internalType": "struct KamiNFTCore.RoyaltyData[]",
          "name": "mintRoyalties",
          "type": "tuple[]"
        },
        {
          "internalType": "uint256",
          "name": "deadline",
          "type": "uint256"
        },
        {
          "internalType": "bytes",
          "name": "signature",
          "type": "bytes"
        }
      ],
      "name": "claimWithSignature",
      "outputs": [],
      "stateMutability": "nonpayable",
      "type": "function"
    },
    {
      "inputs": [],
      "name": "eip712Domain",
      "outputs": [
        {
          "internalType": "bytes1",
          "name": "fields",
          "type": "bytes1"
        },
        {
          "internalType": "string",
          "name": "name",
          "type": "string"
        },
        {
          "internalType": "string",
          "name": "version",
          "type": "string"
        },
        {
          "internalType": "uint256",
          "name": "chainId",
          "type": "uint256"
        },
        {
          "internalType": "address",
          "name": "verifyingContract",
          "type": "address"
        },
        {
          "internalType": "bytes32",
          "name": "salt",
          "type": "bytes32"
        },
        {
          "internalType": "uint256[]",
          "name": "extensions",
          "type": "uint256[]"
        }
      ],
      "stateMutability": "view",
      "type": "function"
    },
    {
      "inputs": [
        {
          "internalType": "uint256",
          "name": "tokenId",
          "type": "uint256"
        }
      ],
      "name": "endRental",
      "outputs": [],
      "stateMutability": "nonpayable",
      "type": "function"
    },
    {
      "inputs": [
        {
          "internalType": "uint256",
          "name": "tokenId",
          "type": "uint256"
        },
        {
          "internalType": "address",
          "name": "renter",
          "type": "address"
        },
        {
          "internalType": "uint256",
          "name": "deadline",
          "type": "uint256"
        },
        {
          "internalType": "bytes",
          "name": "signature",
          "type": "bytes"
        }
      ],
      "name": "endRentalWithSignature",
      "outputs": [],
      "stateMutability": "nonpayable",
      "type": "function"
    },
    {
      "inputs": [
        {
          "internalType": "uint256",
          "name": "tokenId",
          "type": "uint256"
        }
      ],
      "name": "exists",
      "outputs": [
        {
          "internalType": "bool",
          "name": "",
          "type": "bool"
        }
      ],
      "stateMutability": "view",
      "type": "function"
    },
    {
      "inputs": [
        {
          "internalType": "uint256",
          "name": "tokenId",
          "type": "uint256"
        },
        {
          "internalType": "uint256",
          "name": "additionalDuration",
          "type": "uint256"
        },
        {
          "internalType": "uint256",
          "name": "additionalPayment",
          "type": "uint256"
        }
      ],
      "name": "extendRental",
      "outputs": [],
      "stateMutability": "nonpayable",
      "type": "function"
    },
    {
      "inputs": [
        {
          "internalType": "uint256",
          "name": "tokenId",
          "type": "uint256"
        },
        {
          "internalType": "uint256",
          "name": "additionalDuration",
          "type": "uint256"
        },
        {
          "internalType": "uint256",
          "name": "additionalPayment",
          "type": "uint256"
        },
        {
          "internalType": "address",
          "name": "renter",
          "type": "address"
        },
        {
          "internalType": "uint256",
          "name": "deadline",
          "type": "uint256"
        },
        {
          "internalType": "bytes",
          "name": "signature",
          "type": "bytes"
        }
      ],
      "name": "extendRentalWithSignature",
      "outputs": [],
      "stateMutability": "nonpayable",
      "type": "function"
    },
    {
      "inputs": [
        {
          "internalType": "uint256",
          "name": "tokenId",
          "type": "uint256"
        }
      ],
      "name": "getApproved",
      "outputs": [
        {
          "internalType": "address",
          "name": "",
          "type": "address"
        }
      ],
      "stateMutability": "view",
      "type": "function"
    },
    {
      "inputs": [
        {
          "internalType": "uint256",
          "name": "tokenId",
          "type": "uint256"
        }
      ],
      "name": "getMintRoyaltyReceivers",
      "outputs": [
        {
          "components": [
            {
              "internalType": "address",
              "name": "receiver",
              "type": "address"
            },
            {
              "internalType": "uint96",
              "name": "feeNumerator",
              "type": "uint96"
            }
          ],
          "internalType": "struct KamiNFTCore.RoyaltyData[]",
          "name": "",
          "type": "tuple[]"
        }
      ],
      "stateMutability": "view",
      "type": "function"
    },
    {
      "inputs": [
        {
          "internalType": "uint256",
          "name": "tokenId",
          "type": "uint256"
        }
      ],
      "name": "getRentalInfo",
      "outputs": [
        {
          "internalType": "address",
          "name": "renter",
          "type": "address"
        },
        {
          "internalType": "uint256",
          "name": "startTime",
          "type": "uint256"
        },
        {
          "internalType": "uint256",
          "name": "endTime",
          "type": "uint256"
        },
        {
          "internalType": "uint256",
          "name": "rentalPrice",
          "type": "uint256"
        },
        {
          "internalType": "bool",
          "name": "active",
          "type": "bool"
        }
      ],
      "stateMutability": "view",
      "type": "function"
    },
    {
      "inputs": [
        {
          "internalType": "bytes32",
          "name": "role",
          "type": "bytes32"
        }
      ],
      "name": "getRoleAdmin",
      "outputs": [
        {
          "internalType": "bytes32",
          "name": "",
          "type": "bytes32"
        }
      ],
      "stateMutability": "view",
      "type": "function"
    },
    {
      "inputs": [
        {
          "internalType": "uint256",
          "name": "tokenId",
          "type": "uint256"
        }
      ],
      "name": "getRoyaltyInfo",
      "outputs": [
        {
          "internalType": "address[]",
          "name": "receivers",
          "type": "address[]"
        },
        {
          "internalType": "uint256[]",
          "name": "amounts",
          "type": "uint256[]"
        }
      ],
      "stateMutability": "view",
      "type": "function"
    },
    {
      "inputs": [],
      "name": "getTotalMinted",
      "outputs": [
        {
          "internalType": "uint256",
          "name": "",
          "type": "uint256"
        }
      ],
      "stateMutability": "view",
      "type": "function"
    },
    {
      "inputs": [
        {
          "internalType": "uint256",
          "name": "tokenId",
          "type": "uint256"
        }
      ],
      "name": "getTransferRoyaltyReceivers",
      "outputs": [
        {
          "components": [
            {
              "internalType": "address",
              "name": "receiver",
              "type": "address"
            },
            {
              "internalType": "uint96",
              "name": "feeNumerator",
              "type": "uint96"
            }
          ],
          "internalType": "struct KamiNFTCore.RoyaltyData[]",
          "name": "",
          "type": "tuple[]"
        }
      ],
      "stateMutability": "view",
      "type": "function"
    },
    {
      "inputs": [
        {
          "internalType": "bytes32",
          "name": "role",
          "type": "bytes32"
        },
        {
          "internalType": "address",
          "name": "account",
          "type": "address"
        }
      ],
      "name": "grantRole",
      "outputs": [],
      "stateMutability": "nonpayable",
      "type": "function"
    },
    {
      "inputs": [
        {
          "internalType": "address",
          "name": "user",
          "type": "address"
        }
      ],
      "name": "hasActiveRentals",
      "outputs": [
        {
          "internalType": "bool",
          "name": "",
          "type": "bool"
        }
      ],
      "stateMutability": "view",
      "type": "function"
    },
    {
      "inputs": [
        {
          "internalType": "address",
          "name": "",
          "type": "address"
        }
      ],
      "name": "hasClaimed",
      "outputs": [
        {
          "internalType": "bool",
          "name": "",
          "type": "bool"
        }
      ],
      "stateMutability": "view",
      "type": "function"
    },
    {
      "inputs": [
        {
          "internalType": "bytes32",
          "name": "role",
          "type": "bytes32"
        },
        {
          "internalType": "address",
          "name": "account",
          "type": "address"
        }
      ],
      "name": "hasRole",
      "outputs": [
        {
          "internalType": "bool",
          "name": "",
          "type": "bool"
        }
      ],
      "stateMutability": "view",
      "type": "function"
    },
    {
      "inputs": [
        {
          "internalType": "address",
          "name": "to",
          "type": "address"
        },
        {
          "internalType": "uint256",
          "name": "tokenId",
          "type": "uint256"
        },
        {
          "internalType": "uint256",
          "name": "price",
          "type": "uint256"
        }
      ],
      "name": "initiateTransferWithRoyalty",
      "outputs": [],
      "stateMutability": "nonpayable",
      "type": "function"
    },
    {
      "inputs": [
        {
          "internalType": "address",
          "name": "to",
          "type": "address"
        },
        {
          "internalType": "uint256",
          "name": "tokenId",
          "type": "uint256"
        },
        {
          "internalType": "uint256",
          "name": "price",
          "type": "uint256"
        },
        {
          "internalType": "uint256",
          "name": "deadline",
          "type": "uint256"
        },
        {
          "internalType": "bytes",
          "name": "signature",
          "type": "bytes"
        }
      ],
      "name": "initiateTransferWithRoyaltyWithSignature",
      "outputs": [],
      "stateMutability": "nonpayable",
      "type": "function"
    },
    {
      "inputs": [
        {
          "internalType": "address",
          "name": "owner",
          "type": "address"
        },
        {
          "internalType": "address",
          "name": "operator",
          "type": "address"
        }
      ],
      "name": "isApprovedForAll",
      "outputs": [
        {
          "internalType": "bool",
          "name": "",
          "type": "bool"
        }
      ],
      "stateMutability": "view",
      "type": "function"
    },
    {
      "inputs": [
        {
          "internalType": "uint256",
          "name": "tokenId",
          "type": "uint256"
        }
      ],
      "name": "isRented",
      "outputs": [
        {
          "internalType": "bool",
          "name": "",
          "type": "bool"
        }
      ],
      "stateMutability": "view",
      "type": "function"
    },
    {
      "inputs": [
        {
          "internalType": "address",
          "name": "",
          "type": "address"
        },
        {
          "internalType": "address",
          "name": "",
          "type": "address"
        },
        {
          "internalType": "uint256",
          "name": "tokenId",
          "type": "uint256"
        },
        {
          "internalType": "uint256",
          "name": "price",
          "type": "uint256"
        }
      ],
      "name": "isTransferRoyaltyRequired",
      "outputs": [
        {
          "internalType": "bool",
          "name": "",
          "type": "bool"
        }
      ],
      "stateMutability": "view",
      "type": "function"
    },
    {
      "inputs": [],
      "name": "maxTotalSupply",
      "outputs": [
        {
          "internalType": "uint256",
          "name": "",
          "type": "uint256"
        }
      ],
      "stateMutability": "view",
      "type": "function"
    },
    {
      "inputs": [
        {
          "internalType": "address",
          "name": "recipient",
          "type": "address"
        },
        {
          "internalType": "string",
          "name": "uri",
          "type": "string"
        },
        {
          "components": [
            {
              "internalType": "address",
              "name": "receiver",
              "type": "address"
            },
            {
              "internalType": "uint96",
              "name": "feeNumerator",
              "type": "uint96"
            }
          ],
          "internalType": "struct KamiNFTCore.RoyaltyData[]",
          "name": "mintRoyalties",
          "type": "tuple[]"
        }
      ],
      "name": "mint",
      "outputs": [],
      "stateMutability": "nonpayable",
      "type": "function"
    },
    {
      "inputs": [],
      "name": "mintPrice",
      "outputs": [
        {
          "internalType": "uint256",
          "name": "",
          "type": "uint256"
        }
      ],
      "stateMutability": "view",
      "type": "function"
    },
    {
      "inputs": [],
      "name": "name",
      "outputs": [
        {
          "internalType": "string",
          "name": "",
          "type": "string"
        }
      ],
      "stateMutability": "view",
      "type": "function"
    },
    {
      "inputs": [
        {
          "internalType": "uint256",
          "name": "tokenId",
          "type": "uint256"
        }
      ],
      "name": "ownerOf",
      "outputs": [
        {
          "internalType": "address",
          "name": "",
          "type": "address"
        }
      ],
      "stateMutability": "view",
      "type": "function"
    },
    {
      "inputs": [],
      "name": "pause",
      "outputs": [],
      "stateMutability": "nonpayable",
      "type": "function"
    },
    {
      "inputs": [],
      "name": "paused",
      "outputs": [
        {
          "internalType": "bool",
          "name": "",
          "type": "bool"
        }
      ],
      "stateMutability": "view",
      "type": "function"
    },
    {
      "inputs": [
        {
          "internalType": "address",
          "name": "",
          "type": "address"
        },
        {
          "internalType": "uint256",
          "name": "tokenId",
          "type": "uint256"
        },
        {
          "internalType": "uint256",
          "name": "price",
          "type": "uint256"
        }
      ],
      "name": "payTransferRoyalty",
      "outputs": [],
      "stateMutability": "nonpayable",
      "type": "function"
    },
    {
      "inputs": [
        {
          "internalType": "address",
          "name": "",
          "type": "address"
        },
        {
          "internalType": "uint256",
          "name": "tokenId",
          "type": "uint256"
        },
        {
          "internalType": "uint256",
          "name": "price",
          "type": "uint256"
        },
        {
          "internalType": "address",
          "name": "buyer",
          "type": "address"
        },
        {
          "internalType": "uint256",
          "name": "deadline",
          "type": "uint256"
        },
        {
          "internalType": "bytes",
          "name": "signature",
          "type": "bytes"
        }
      ],
      "name": "payTransferRoyaltyWithSignature",
      "outputs": [],
      "stateMutability": "nonpayable",
      "type": "function"
    },
    {
      "inputs": [],
      "name": "paymentToken",
      "outputs": [
        {
          "internalType": "address",
          "name": "",
          "type": "address"
        }
      ],
      "stateMutability": "view",
      "type": "function"
    },
    {
      "inputs": [],
      "name": "platformAddress",
      "outputs": [
        {
          "internalType": "address",
          "name": "",
          "type": "address"
        }
      ],
      "stateMutability": "view",
      "type": "function"
    },
    {
      "inputs": [],
      "name": "platformCommissionPercentage",
      "outputs": [
        {
          "internalType": "uint96",
          "name": "",
          "type": "uint96"
        }
      ],
      "stateMutability": "view",
      "type": "function"
    },
    {
      "inputs": [
        {
          "internalType": "bytes32",
          "name": "role",
          "type": "bytes32"
        },
        {
          "internalType": "address",
          "name": "callerConfirmation",
          "type": "address"
        }
      ],
      "name": "renounceRole",
      "outputs": [],
      "stateMutability": "nonpayable",
      "type": "function"
    },
    {
      "inputs": [
        {
          "internalType": "uint256",
          "name": "tokenId",
          "type": "uint256"
        },
        {
          "internalType": "uint256",
          "name": "duration",
          "type": "uint256"
        },
        {
          "internalType": "uint256",
          "name": "rentalPrice",
          "type": "uint256"
        },
        {
          "internalType": "address",
          "name": "renter",
          "type": "address"
        }
      ],
      "name": "rentToken",
      "outputs": [],
      "stateMutability": "nonpayable",
      "type": "function"
    },
    {
      "inputs": [
        {
          "internalType": "uint256",
          "name": "tokenId",
          "type": "uint256"
        },
        {
          "internalType": "uint256",
          "name": "duration",
          "type": "uint256"
        },
        {
          "internalType": "uint256",
          "name": "rentalPrice",
          "type": "uint256"
        },
        {
          "internalType": "address",
          "name": "renter",
          "type": "address"
        },
        {
          "internalType": "uint256",
          "name": "deadline",
          "type": "uint256"
        },
        {
          "internalType": "bytes",
          "name": "signature",
          "type": "bytes"
        }
      ],
      "name": "rentTokenWithSignature",
      "outputs": [],
      "stateMutability": "nonpayable",
      "type": "function"
    },
    {
      "inputs": [
        {
          "internalType": "bytes32",
          "name": "role",
          "type": "bytes32"
        },
        {
          "internalType": "address",
          "name": "account",
          "type": "address"
        }
      ],
      "name": "revokeRole",
      "outputs": [],
      "stateMutability": "nonpayable",
      "type": "function"
    },
    {
      "inputs": [
        {
          "internalType": "uint256",
          "name": "tokenId",
          "type": "uint256"
        },
        {
          "internalType": "uint256",
          "name": "salePrice",
          "type": "uint256"
        }
      ],
      "name": "royaltyInfo",
      "outputs": [
        {
          "internalType": "address",
          "name": "receiver",
          "type": "address"
        },
        {
          "internalType": "uint256",
          "name": "royaltyAmount",
          "type": "uint256"
        }
      ],
      "stateMutability": "view",
      "type": "function"
    },
    {
      "inputs": [],
      "name": "royaltyPercentage",
      "outputs": [
        {
          "internalType": "uint96",
          "name": "",
          "type": "uint96"
        }
      ],
      "stateMutability": "view",
      "type": "function"
    },
    {
      "inputs": [
        {
          "internalType": "address",
          "name": "from",
          "type": "address"
        },
        {
          "internalType": "address",
          "name": "to",
          "type": "address"
        },
        {
          "internalType": "uint256",
          "name": "tokenId",
          "type": "uint256"
        }
      ],
      "name": "safeTransferFrom",
      "outputs": [],
      "stateMutability": "nonpayable",
      "type": "function"
    },
    {
      "inputs": [
        {
          "internalType": "address",
          "name": "from",
          "type": "address"
        },
        {
          "internalType": "address",
          "name": "to",
          "type": "address"
        },
        {
          "internalType": "uint256",
          "name": "tokenId",
          "type": "uint256"
        },
        {
          "internalType": "bytes",
          "name": "data",
          "type": "bytes"
        }
      ],
      "name": "safeTransferFrom",
      "outputs": [],
      "stateMutability": "nonpayable",
      "type": "function"
    },
    {
      "inputs": [
        {
          "internalType": "uint256",
          "name": "",
          "type": "uint256"
        }
      ],
      "name": "salePrices",
      "outputs": [
        {
          "internalType": "uint256",
          "name": "",
          "type": "uint256"
        }
      ],
      "stateMutability": "view",
      "type": "function"
    },
    {
      "inputs": [
        {
          "internalType": "address",
          "name": "to",
          "type": "address"
        },
        {
          "internalType": "uint256",
          "name": "tokenId",
          "type": "uint256"
        },
        {
          "internalType": "address",
          "name": "seller",
          "type": "address"
        }
      ],
      "name": "sellToken",
      "outputs": [],
      "stateMutability": "nonpayable",
      "type": "function"
    },
    {
      "inputs": [
        {
          "internalType": "address",
          "name": "to",
          "type": "address"
        },
        {
          "internalType": "uint256",
          "name": "tokenId",
          "type": "uint256"
        },
        {
          "internalType": "uint256",
          "name": "deadline",
          "type": "uint256"
        },
        {
          "internalType": "bytes",
          "name": "signature",
          "type": "bytes"
        }
      ],
      "name": "sellTokenWithSignature",
      "outputs": [],
      "stateMutability": "nonpayable",
      "type": "function"
    },
    {
      "inputs": [
        {
          "internalType": "address",
          "name": "operator",
          "type": "address"
        },
        {
          "internalType": "bool",
          "name": "approved",
          "type": "bool"
        }
      ],
      "name": "setApprovalForAll",
      "outputs": [],
      "stateMutability": "nonpayable",
      "type": "function"
    },
    {
      "inputs": [
        {
          "internalType": "string",
          "name": "baseURI",
          "type": "string"
        }
      ],
      "name": "setBaseURI",
      "outputs": [],
      "stateMutability": "nonpayable",
      "type": "function"
    },
    {
      "inputs": [
        {
          "internalType": "uint256",
          "name": "newMintPrice",
          "type": "uint256"
        }
      ],
      "name": "setMintPrice",
      "outputs": [],
      "stateMutability": "nonpayable",
      "type": "function"
    },
    {
      "inputs": [
        {
          "components": [
            {
              "internalType": "address",
              "name": "receiver",
              "type": "address"
            },
            {
              "internalType": "uint96",
              "name": "feeNumerator",
              "type": "uint96"
            }
          ],
          "internalType": "struct KamiNFTCore.RoyaltyData[]",
          "name": "royalties",
          "type": "tuple[]"
        }
      ],
      "name": "setMintRoyalties",
      "outputs": [],
      "stateMutability": "nonpayable",
      "type": "function"
    },
    {
      "inputs": [
        {
          "internalType": "uint96",
          "name": "newPlatformCommissionPercentage",
          "type": "uint96"
        },
        {
          "internalType": "address",
          "name": "newPlatformAddress",
          "type": "address"
        }
      ],
      "name": "setPlatformCommission",
      "outputs": [],
      "stateMutability": "nonpayable",
      "type": "function"
    },
    {
      "inputs": [
        {
          "internalType": "uint256",
          "name": "tokenId",
          "type": "uint256"
        },
        {
          "internalType": "uint256",
          "name": "newPrice",
          "type": "uint256"
        }
      ],
      "name": "setPrice",
      "outputs": [],
      "stateMutability": "nonpayable",
      "type": "function"
    },
    {
      "inputs": [
        {
          "internalType": "uint96",
          "name": "newRoyaltyPercentage",
          "type": "uint96"
        }
      ],
      "name": "setRoyaltyPercentage",
      "outputs": [],
      "stateMutability": "nonpayable",
      "type": "function"
    },
    {
      "inputs": [
        {
          "internalType": "uint256",
          "name": "tokenId",
          "type": "uint256"
        },
        {
          "internalType": "uint256",
          "name": "newSalePrice",
          "type": "uint256"
        }
      ],
      "name": "setSalePrice",
      "outputs": [],
      "stateMutability": "nonpayable",
      "type": "function"
    },
    {
      "inputs": [
        {
          "internalType": "uint256",
          "name": "tokenId",
          "type": "uint256"
        },
        {
          "internalType": "uint256",
          "name": "newSalePrice",
          "type": "uint256"
        },
        {
          "internalType": "uint256",
          "name": "deadline",
          "type": "uint256"
        },
        {
          "internalType": "bytes",
          "name": "signature",
          "type": "bytes"
        }
      ],
      "name": "setSalePriceWithSignature",
      "outputs": [],
      "stateMutability": "nonpayable",
      "type": "function"
    },
    {
      "inputs": [
        {
          "internalType": "uint256",
          "name": "tokenId",
          "type": "uint256"
        },
        {
          "components": [
            {
              "internalType": "address",
              "name": "receiver",
              "type": "address"
            },
            {
              "internalType": "uint96",
              "name": "feeNumerator",
              "type": "uint96"
            }
          ],
          "internalType": "struct KamiNFTCore.RoyaltyData[]",
          "name": "royalties",
          "type": "tuple[]"
        }
      ],
      "name": "setTokenMintRoyalties",
      "outputs": [],
      "stateMutability": "nonpayable",
      "type": "function"
    },
    {
      "inputs": [
        {
          "internalType": "uint256",
          "name": "tokenId",
          "type": "uint256"
        },
        {
          "components": [
            {
              "internalType": "address",
              "name": "receiver",
              "type": "address"
            },
            {
              "internalType": "uint96",
              "name": "feeNumerator",
              "type": "uint96"
            }
          ],
          "internalType": "struct KamiNFTCore.RoyaltyData[]",
          "name": "royalties",
          "type": "tuple[]"
        }
      ],
      "name": "setTokenTransferRoyalties",
      "outputs": [],
      "stateMutability": "nonpayable",
      "type": "function"
    },
    {
      "inputs": [
        {
          "internalType": "uint256",
          "name": "tokenId",
          "type": "uint256"
        },
        {
          "internalType": "string",
          "name": "newTokenURI",
          "type": "string"
        }
      ],
      "name": "setTokenURI",
      "outputs": [],
      "stateMutability": "nonpayable",
      "type": "function"
    },
    {
      "inputs": [
        {
          "internalType": "uint256",
          "name": "tokenId",
          "type": "uint256"
        },
        {
          "internalType": "string",
          "name": "newTokenURI",
          "type": "string"
        },
        {
          "internalType": "uint256",
          "name": "deadline",
          "type": "uint256"
        },
        {
          "internalType": "bytes",
          "name": "signature",
          "type": "bytes"
        }
      ],
      "name": "setTokenURIWithSignature",
      "outputs": [],
      "stateMutability": "nonpayable",
      "type": "function"
    },
    {
      "inputs": [
        {
          "internalType": "uint256",
          "name": "maxSupply",
          "type": "uint256"
        }
      ],
      "name": "setTotalSupply",
      "outputs": [],
      "stateMutability": "nonpayable",
      "type": "function"
    },
    {
      "inputs": [
        {
          "components": [
            {
              "internalType": "address",
              "name": "receiver",
              "type": "address"
            },
            {
              "internalType": "uint96",
              "name": "feeNumerator",
              "type": "uint96"
            }
          ],
          "internalType": "struct KamiNFTCore.RoyaltyData[]",
          "name": "royalties",
          "type": "tuple[]"
        }
      ],
      "name": "setTransferRoyalties",
      "outputs": [],
      "stateMutability": "nonpayable",
      "type": "function"
    },
    {
      "inputs": [
        {
          "internalType": "bytes4",
          "name": "interfaceId",
          "type": "bytes4"
        }
      ],
      "name": "supportsInterface",
      "outputs": [
        {
          "internalType": "bool",
          "name": "",
          "type": "bool"
        }
      ],
      "stateMutability": "view",
      "type": "function"
    },
    {
      "inputs": [],
      "name": "symbol",
      "outputs": [
        {
          "internalType": "string",
          "name": "",
          "type": "string"
        }
      ],
      "stateMutability": "view",
      "type": "function"
    },
    {
      "inputs": [
        {
          "internalType": "uint256",
          "name": "index",
          "type": "uint256"
        }
      ],
      "name": "tokenByIndex",
      "outputs": [
        {
          "internalType": "uint256",
          "name": "",
          "type": "uint256"
        }
      ],
      "stateMutability": "view",
      "type": "function"
    },
    {
      "inputs": [
        {
          "internalType": "address",
          "name": "owner",
          "type": "address"
        },
        {
          "internalType": "uint256",
          "name": "index",
          "type": "uint256"
        }
      ],
      "name": "tokenOfOwnerByIndex",
      "outputs": [
        {
          "internalType": "uint256",
          "name": "",
          "type": "uint256"
        }
      ],
      "stateMutability": "view",
      "type": "function"
    },
    {
      "inputs": [
        {
          "internalType": "uint256",
          "name": "",
          "type": "uint256"
        }
      ],
      "name": "tokenPrices",
      "outputs": [
        {
          "internalType": "uint256",
          "name": "",
          "type": "uint256"
        }
      ],
      "stateMutability": "view",
      "type": "function"
    },
    {
      "inputs": [
        {
          "internalType": "uint256",
          "name": "tokenId",
          "type": "uint256"
        }
      ],
      "name": "tokenURI",
      "outputs": [
        {
          "internalType": "string",
          "name": "",
          "type": "string"
        }
      ],
      "stateMutability": "view",
      "type": "function"
    },
    {
      "inputs": [
        {
          "internalType": "uint256",
          "name": "",
          "type": "uint256"
        }
      ],
      "name": "tokenURIs",
      "outputs": [
        {
          "internalType": "string",
          "name": "",
          "type": "string"
        }
      ],
      "stateMutability": "view",
      "type": "function"
    },
    {
      "inputs": [],
      "name": "totalSupply",
      "outputs": [
        {
          "internalType": "uint256",
          "name": "",
          "type": "uint256"
        }
      ],
      "stateMutability": "view",
      "type": "function"
    },
    {
      "inputs": [
        {
          "internalType": "address",
          "name": "from",
          "type": "address"
        },
        {
          "internalType": "address",
          "name": "to",
          "type": "address"
        },
        {
          "internalType": "uint256",
          "name": "tokenId",
          "type": "uint256"
        }
      ],
      "name": "transferFrom",
      "outputs": [],
      "stateMutability": "nonpayable",
      "type": "function"
    },
    {
      "inputs": [],
      "name": "unpause",
      "outputs": [],
      "stateMutability": "nonpayable",
      "type": "function"
    }
  ],
  "bytecode": "0x6101808060405234620008675762008129803803809162000021828562000888565b83398101906101208183031262000867576200003d81620008ac565b60208201516001600160401b0381116200086757836200005f918401620008e6565b60408301516001600160401b03811162000867578462000081918501620008e6565b606084015190946001600160401b0382116200086757620000a4918501620008e6565b91620000b360808501620008ac565b60a0850151909390916001600160601b03831683036200086757620000db60c08701620008ac565b9361010060e08801519701519760405190620000f7826200086c565b60098252684b414d49373231414360b81b6020830152604051926200011c846200086c565b60018452603160f81b60208501528051906001600160401b038211620006195760015490600182811c921680156200085c575b6020831014620005f85781601f849311620007f8575b50602090601f83116001146200077e5760009262000772575b50508160011b916000199060031b1c1916176001555b8051906001600160401b038211620006195760025490600182811c9216801562000767575b6020831014620005f85781601f84931162000703575b50602090601f8311600114620006855760009262000679575b50508160011b916000199060031b1c1916176002555b620002098162000aff565b61012052620002188262000ca7565b6101405260208151910120908160e0526020815191012080610100524660a052604051917f8b73c3c69bb8fe3d512ecc4cf759cc79239f7b179b0ffacaa9a75d522b39400f6020840152604083015260608201524660808201523060a082015260a081528060c081011060018060401b0360c083011117620006195760c08181016040528151602083012060805230905260016014556001600160a01b038216156200066557506001600160a01b0385161562000653576001600160a01b0384161562000641576107d06001600160601b038416116200062f576001600160a01b0316610160528051906001600160401b0382116200061957601954600181811c911680156200060e575b6020821014620005f857601f811162000592575b50602090601f831160011462000516579180620003f79492620003fe9796946000926200050a575b50508160011b916000199060031b1c1916176019555b6001600160a01b03841660a09190911b6001600160a01b031916177fde1159fbbeca73b2aca5752c42b257ca18171ae3b3d3bbf22c7938e3a961a0cb557f1aa44fcb526383bd2f7c6231f8c09a41edc5b654966336907d6f785a5b3d288f80546001600160601b0319166103e8179055620003f08162000941565b50620009c1565b5062000a63565b508062000500575b506015556040516172ca908162000dff823960805181616c25015260a05181616ce0015260c05181616bef015260e05181616c7401526101005181616c9a015261012051816120bc015261014051816120e801526101605181818161098d01528181610f83015281816110680152818161128f01528181611458015281816119ec01528181611ab701528181612074015281816122ce015281816124a0015281816126c4015281816127fc0152818161289d015281816128e201528181612d72015281816131190152818161389c015281816139d401528181613a9601528181613c5b01528181613d4a01528181613e0b015261409e0152f35b601b553862000406565b0151905038806200035f565b90601960005260206000209160005b601f198516811062000579575092620003f79492600192620003fe98979583601f198116106200055f575b505050811b0160195562000375565b015160001960f88460031b161c1916905538808062000550565b9192602060018192868501518155019401920162000525565b60196000527f944998273e477b495144fb8794c914197f3ccb46be2900f4698fd0ef743c9695601f840160051c810160208510620005f0575b601f830160051c82018110620005e357505062000337565b60008155600101620005cb565b5080620005cb565b634e487b7160e01b600052602260045260246000fd5b90607f169062000323565b634e487b7160e01b600052604160045260246000fd5b6040516338bc77d960e21b8152600490fd5b60405163d92e233d60e01b8152600490fd5b6040516344c7ef3760e11b8152600490fd5b60c06004916337021e9960e11b8282015201fd5b015190503880620001e8565b600260009081529350600080516020620080e983398151915291905b601f1984168510620006e7576001945083601f19811610620006cd575b505050811b01600255620001fe565b015160001960f88460031b161c19169055388080620006be565b81810151835560209485019460019093019290910190620006a1565b6002600052909150600080516020620080e9833981519152601f840160051c810191602085106200075c575b90601f859493920160051c01905b8181106200074c5750620001cf565b600081558493506001016200073d565b90915081906200072f565b91607f1691620001b9565b0151905038806200017e565b60016000908152600080516020620081098339815191529350601f198516905b818110620007df5750908460019594939210620007c5575b505050811b0160015562000194565b015160001960f88460031b161c19169055388080620007b6565b929360206001819287860151815501950193016200079e565b600160005290915060008051602062008109833981519152601f840160051c8101916020851062000851575b90601f859493920160051c01905b81811062000841575062000165565b6000815584935060010162000832565b909150819062000824565b91607f16916200014f565b600080fd5b604081019081106001600160401b038211176200061957604052565b601f909101601f19168101906001600160401b038211908210176200061957604052565b51906001600160a01b03821682036200086757565b60005b838110620008d55750506000910152565b8181015183820152602001620008c4565b81601f82011215620008675780516001600160401b0381116200061957604051926200091d601f8301601f19166020018562000888565b8184526020828401011162000867576200093e9160208085019101620008c1565b90565b6001600160a01b031660008181527fad3228b676f7d3cd4284a5443f17f1962b36e491b30a40b2405849e597ba5fb5602052604081205490919060ff16620009bd57818052816020526040822081835260205260408220600160ff198254161790553391600080516020620080c98339815191528180a4600190565b5090565b6001600160a01b031660008181527fd329ff8a035c3ce5df2b0dae604d660c0d8783bf7e64be00c1d10db96c0b87b460205260408120549091907fb19546dff01e856fb3f010c267a7b1c60363cf8a4664e21cc89c26224620214e9060ff1662000a5e57808352826020526040832082845260205260408320600160ff19825416179055600080516020620080c9833981519152339380a4600190565b505090565b6001600160a01b031660008181527e4137ac999875a62b0381e65f8832c0a903cf25418dd0c40107411aa55dc68760205260408120549091907f797343f8d6a29aafeb3aaf0910a8973e0081c60c2f6c1f775cd9f76ea348fc1e9060ff1662000a5e57808352826020526040832082845260205260408320600160ff19825416179055600080516020620080c9833981519152339380a4600190565b80516020908181101562000b7d5750601f82511162000b3b578082519201519080831062000b2c57501790565b82600019910360031b1b161790565b60449062000b6f9260405193849263305a27a960e01b845280600485015282519283918260248701528686019101620008c1565b601f01601f19168101030190fd5b906001600160401b0382116200061957600e54926001938481811c9116801562000c9c575b83821014620005f857601f811162000c62575b5081601f841160011462000bf6575092829391839260009462000bea575b50501b916000199060031b1c191617600e5560ff90565b01519250388062000bd3565b919083601f198116600e60005284600020946000905b8883831062000c47575050501062000c2d575b505050811b01600e5560ff90565b015160001960f88460031b161c1916905538808062000c1f565b85870151885590960195948501948793509081019062000c0c565b600e60005284601f84600020920160051c820191601f860160051c015b82811062000c8f57505062000bb5565b6000815501859062000c7f565b90607f169062000ba2565b80516020908181101562000cd45750601f82511162000b3b578082519201519080831062000b2c57501790565b906001600160401b0382116200061957600f54926001938481811c9116801562000df3575b83821014620005f857601f811162000db9575b5081601f841160011462000d4d575092829391839260009462000d41575b50501b916000199060031b1c191617600f5560ff90565b01519250388062000d2a565b919083601f198116600f60005284600020946000905b8883831062000d9e575050501062000d84575b505050811b01600f5560ff90565b015160001960f88460031b161c1916905538808062000d76565b85870151885590960195948501948793509081019062000d63565b600f60005284601f84600020920160051c820191601f860160051c015b82811062000de657505062000d0c565b6000815501859062000dd6565b90607f169062000cf956fe608080604052600436101561001357600080fd5b60003560e01c90816301ffc9a71461445e57508063053992c51461442d57806306fdde031461439c578063081812fc1461435e578063095ea7b3146142775780630a0a3515146142365780630ca1c5c9146140c25780630daf4c971461420b57806310c551c5146141e9578063162094c4146140e057806318160ddd146140c25780631eae6ed71461407c5780631fc7f7e91461402d57806323b872dd14614016578063248a9ca314613fe757806327dc3fbd14613f835780632a55205a14613f5c5780632ab4d05214613f3e5780632f2ff15d14613eff5780632f745c5914613e8a5780633013ce291461205e578063314cfd3314613b05578063321f532714613ad957806334d6a91c1461377d57806335e4d0a9146136a057806336568abe146136595780633f4ba83a146135d257806342842e0e146135b357806342966c68146133a0578063463dace014613381578063492ae5a3146132455780634b7adf0514612ef65780634f558e7914612ed85780634f6ccce714612e825780634fbda6fc14612db257806355a9763214612d0957806355f804b314612b9c5780635c975abb14612b795780635e27a77514612b4e578063602481b6146129c45780636352211e146129945780636817c76c146129765780636c8b703f146129395780636eddaebf1461261957806370824c5c146125f057806370a08231146125c557806370c528cf1461237f57806373b2e80e146123405780637ad75d8d146121e45780638456cb591461216d57806384b0196e146120a3578063877c86fb1461205e5780638a71bb2d1461202857806391d1485414611fdb57806392303e0614611fad57806395d89b4114611ee757806397491d6f14611e8d5780639f6d68b014611e09578063a217fddf14611ded578063a22cb46514611d4b578063a2c98a1914611ba4578063aa15d40f14611b74578063b76c632b14611afa578063b7971fc61461180b578063b88d4fde1461179f578063b97c9f7714611776578063bf75ff1c146116bb578063c87b56dd14611684578063c8a9aabc14611421578063d547741f146113e2578063d9061aa514611146578063dbe55e5614611110578063e41fa41d14610dbf578063e58378bb14610d96578063e5afe3e614610d6a578063e5f2e0cc14610c12578063e985e9c514610bbc578063f249fd1614610a26578063f4a0a528146109b3578063f60e11f2146108a9578063f7d9757714610807578063f7ea7a3d146107b75763fc68c689146103b057600080fd5b346107b25760603660031901126107b2576001600160401b03602460043581356044358481116107b2576103e8903690600401614644565b918042116107a057604051602096878201927f6c4abaed6d4290f5c9035e4720ceec9c1755d0a944dbb8f561d1928ae4e45996845286604084015260608301526060825260808201908282109082111761078b579261045861046f95936104609361046696604052519020615e6b565b923691614831565b90616d06565b90929192616d42565b61047882615181565b6001600160a01b0391908282169083168190036107795761049982856162ab565b80836104a486615181565b160361076757836000526003865282604060002054169281151591826106bc575b50505050801580159081610699575b6000848152600387526040812080546001600160a01b03191690558490846000805160206171de8339815191528280a41561061457505060095481600052600a845280604060002055600160401b8110156105ff578161053d8260016105569401600955614cc6565b90919082549060031b91821b91600019901b1916179055565b600954600019938482019182116105ea57600a908360005281815261058060406000205493614cc6565b90549060031b1c6105948161053d86614cc6565b60005252604060002055600052600060408120556009549081156105d65750016105d16105c082614cc6565b8154906000199060031b1b19169055565b600955005b634e487b7160e01b60009081526031600452fd5b83634e487b7160e01b60005260116004526000fd5b82634e487b7160e01b60005260416004526000fd5b61061f575b50610556565b61062881614ce1565b8260005260088552604060002054916000526007855260406000209181810361066e575b5082600052600885526000604081205560005283526000604081205538610619565b816000528286526040600020548160005280604060002055600052600886526040600020553861064c565b6106a284616b56565b8260005260048652604060002060001981540190556104d4565b8261070c575b5050156106d1578080806104c5565b906106ec575060405190637e27328960e01b82526004820152fd5b61070860405192839263177e802f60e01b8452600484016146a6565b0390fd5b8481149250908215610743575b8215610729575b505038806106c2565b909150846000526005875260406000205416143880610720565b91508360005260068752604060002081600052875260ff6040600020541691610719565b6040516329572f6760e01b8152600490fd5b604051632057875960e21b8152600490fd5b86634e487b7160e01b60005260416004526000fd5b604051630819bdcd60e01b8152600490fd5b600080fd5b346107b25760203660031901126107b25733600090815260008051602061707e833981519152602052604090205460ff16156107f557600435601b55005b604051632e6c18c960e11b8152600490fd5b346107b25761081536614517565b33600090815260008051602061707e833981519152602052604090205460ff16156107f55761084382614c55565b156108975760407fae83572f861e1ad5a0091d29986e73633965028088f707f39079ed27236f889c9183600052601660205281600020908082549255601760205280836000205582519182526020820152a2005b60405163677510db60e11b8152600490fd5b346107b25760c03660031901126107b2576108c2614575565b506044356024356108d16145a1565b9060843560a4356001600160401b0381116107b2576108f4903690600401614644565b93908242116107a0576109769461046061096d9261045860405160208101907f5b5ee45476aec33538b5e06ea1921d91fd74e2c274d2c67f3660df1a76b5940782528960408201528b606082015260018060a01b038098169889608083015260a082015260a08152610965816147a2565b519020615e6b565b90959195616d42565b831603610779576109b19261098a82615181565b917f00000000000000000000000000000000000000000000000000000000000000006155cc565b005b346107b25760203660031901126107b25733600090815260008051602061707e83398151915260205260409020546004359060ff16156107f55760407f2e1c9e000c6e8dda4d03536adb13b7cb6034ccff90d17f01de381e4d5097b52591601554908060155582519182526020820152a1005b346107b25760403660031901126107b257610a3f61496c565b610a4761458b565b60008051602061717e83398151915280546001600160a01b039081169390831691908215610b77576107d06001600160601b03821611610b24573015610adf5760a01b6001600160a01b031916821790558203610aa057005b600082815260008051602061723e83398151915260205260409020546109b1929060ff16610acf575b50615d8d565b610ad8906161d3565b5082610ac9565b60405162461bcd60e51b815260206004820152601d60248201527f41636365737320636f6e74726f6c2063616e6e6f74206265207a65726f0000006044820152606490fd5b60405162461bcd60e51b815260206004820152602560248201527f506c6174666f726d20636f6d6d697373696f6e2063616e6e6f74206578636565604482015264642032302560d81b6064820152608490fd5b60405162461bcd60e51b815260206004820152601f60248201527f506c6174666f726d20616464726573732063616e6e6f74206265207a65726f006044820152606490fd5b346107b25760403660031901126107b257610bd5614575565b610bdd61458b565b9060018060a01b03809116600052600660205260406000209116600052602052602060ff604060002054166040519015158152f35b346107b257610c20366145e7565b33600090815260008051602061707e8339815191526020908152604090912054919392909160ff16156107f557604051634f558e7960e01b8152600481018490528281602481305afa908115610d5e57600091610d31575b5015610897576000805b858210610cfe57612710915003610cec578260005260008051602061719e83398151915291828152610cb760406000206151ed565b60005b858110610cc357005b60019085600052848352610ce66040600020610ce0838a886151bc565b90615225565b01610cba565b604051630569d67b60e21b8152600490fd5b600190610d29906001600160601b03610d2287610d1c878c8a6151bc565b016151cc565b16906151e0565b910190610c82565b610d519150833d8511610d57575b610d4981836147f3565b8101906151a4565b85610c78565b503d610d3f565b6040513d6000823e3d90fd5b346107b25760203660031901126107b25760043560005260176020526020604060002054604051908152f35b346107b25760003660031901126107b257602060405160008051602061711e8339815191528152f35b346107b257610dcd366149b2565b929190849594156110fe57606486116110ec578186036110da57601554156110c85760005b868110610e3a57867f5f3c9cc400a6e4d8a7ee0835f4f43f9bb0fdd28b79013b92de0dabd527ef4c0c610e35886040519182916020835233956020840191614ed0565b0390a2005b610e4d610e48828989614eac565b614ebc565b6001600160a01b038116156110b6576001600160a01b0381166000908152601a602052604090205460ff166110a457610e87828587614e6b565b9050156110925760155480611060575b50601b548061103f575b506014805490610eb082614a13565b9055610ebc81836163dd565b601554816000526016602052806040600020556017602052604060002055610ee5838688614e6b565b6000838152601860205260409020916001600160401b03821161102957610f1682610f108554614868565b85614a97565b600090601f8311600114610fb9579180610f409260019897969594600092610fae575b5050614aed565b90555b87610f6e575b50828060a01b0316600052601a60205260406000208260ff1982541617905501610df2565b610fa890610f7e308a888461527e565b6015547f00000000000000000000000000000000000000000000000000000000000000009161677d565b89610f49565b013590508e80610f39565b83600097969594939297526020600020906000975b601f1984168910611011576001985083601f19811610610ff7575b505050851b85019055610f43565b0135600019600384901b60f8161c191690558c8080610fe9565b81810135835560209889019860019093019201610fce565b634e487b7160e01b600052604160045260246000fd5b600954101561104e5788610ea1565b604051631c07ee3d60e01b8152600490fd5b61108c9030837f0000000000000000000000000000000000000000000000000000000000000000616701565b88610e97565b6040516317314b6160e01b8152600490fd5b604051634ec117b560e11b8152600490fd5b60405163226ccff560e11b8152600490fd5b6040516309d97cfd60e21b8152600490fd5b60405163512509d360e11b8152600490fd5b604051635531b49560e01b8152600490fd5b60405163d982238560e01b8152600490fd5b346107b25760003660031901126107b25760008051602061717e833981519152546040516001600160a01b039091168152602090f35b346107b25760403660031901126107b2576001600160401b036004358181116107b257611177903690600401614644565b90916024358181116107b2576111919036906004016145b7565b91909133600052602092601a845260ff604060002054166113d0576015928354156110c857851561109257601b54806113c1575b50601454956111d387614a13565b6014556111e087336163dd565b8454876000526016875280604060002055601787526040600020556018865260406000209181116110295761121f816112198454614868565b84614a97565b6000601f821160011461134a579080611252926000805160206170be83398151915298999a60009261133f575050614aed565b90555b82549081611286575b50505033600052601a83526040600020600160ff1982541617905554916040519283523392a3005b6112f0926112b77f000000000000000000000000000000000000000000000000000000000000000093303386616701565b6112e160008051602061717e833981519152548060a01c906000918061130b575b50508654614c37565b91816112f8575b50508661677d565b84808061125e565b6113049130918a61527e565b87806112e8565b61271091925061131c908954614b6d565b04908180156112d857611338916001600160a01b031687616748565b8a816112d8565b013590508a80610f39565b601f1982169083600052876000209160005b8181106113aa5750998392916001946000805160206170be8339815191529a9b9c10611390575b505050811b019055611255565b0135600019600384901b60f8161c19169055898080611383565b91928960018192868f01358155019401920161135c565b600954101561104e57876111c5565b604051630c8d9eab60e31b8152600490fd5b346107b25760403660031901126107b2576109b160043561140161458b565b9080600052600060205261141c600160406000200154615ccd565b616248565b346107b25760603660031901126107b257604435602435600435611443615395565b61144c81615181565b6001600160a01b0392907f0000000000000000000000000000000000000000000000000000000000000000906114858582161515615e91565b611490831515615eda565b61149b861515615f39565b836000526000805160206170de833981519152946020866020526114c960ff60046040600020015416615f97565b85600052866020526114e333836040600020541614615fd9565b6114ef88303387616701565b61152260008051602061717e833981519152548060a01c906000918061166c575b50818581611659575b50505089614c37565b906127109260018060601b03938061154b8660008051602061715e833981519152541686614b6d565b0494856115b6575b505050509061156191614c37565b90816115a5575b505050816000528260205261158660026040600020019182546151e0565b90556000526020526115a160036040600020019182546151e0565b9055005b6115ae92616748565b848080611568565b6115bf8a616338565b9384516115cd575b50611553565b949a929890959660009c949c9a92989a5b8d5181101561163c5780808f8e8e8e6116098f8f8f6115ff60019b89614b80565b5101511690614b6d565b04928361161c575b5050505050016115de565b6116329461162991614b80565b51511690616748565b808f8e8e82611611565b5096945097509795509790985061156192509091898080806115c7565b611664921688616748565b8a8185611519565b61271091925061167c908c614b6d565b04908b611510565b346107b25760203660031901126107b2576116b76116a3600435614f1d565b604051918291602083526020830190614550565b0390f35b346107b25760803660031901126107b2576004356024356044356064356001600160401b0381116107b2576116f4903690600401614644565b8242116107a057610460610466926104586117529560405160208101917f67b7741549353440cc75038cfc78ea67121217094240f7ff73c9e7724d21922283528a60408301528960608301526080820152608081526109658161476c565b61175b83615181565b6001600160a01b039182169116036107795761084382614c55565b346107b25760003660031901126107b25760206040516000805160206171fe8339815191528152f35b346107b25760803660031901126107b2576117b8614575565b6117c061458b565b6064359190604435906001600160401b0384116107b257366023850112156107b2576117f96109b1943690602481600401359101614831565b92611805838383614b00565b33616a09565b346107b257611819366149b2565b33600090815260008051602061707e833981519152602052604090205493959390919060ff16156107f55784156110fe57606485116110ec578285036110da5760155480156110c8578561186c91614b6d565b9560005b848110611ae0575086611aaf575b60005b8681106118cf57877fc790cf53c8ec5abcec9e7425457455b2f05a3384ca5ced92b25ffcd8eb3238a1886118c18960405192604084526040840191614ed0565b9260208201528033930390a2005b6118dd610e48828989614eac565b6001600160a01b038116156110b6576001600160a01b0381166000908152601a602052604090205460ff166110a457601b5480611aa0575b5060149081549161192583614a13565b905561193182826163dd565b60155482600052601660205280604060002055601760205260406000205561195a838886614e6b565b6000848152601860205260409020916001600160401b0382116110295761198582610f108554614868565b600090601f8311600114611a335791806119ae9260019897969594600092611a28575050614aed565b90555b838060a01b0316600052601a60205260406000208360ff198254161790556015546119de575b5001611881565b611a119086611a17576015547f00000000000000000000000000000000000000000000000000000000000000009161677d565b896119d7565b611a233088888461527e565b610f7e565b013590508f80610f39565b601f198316918460005260206000209260005b818110611a88575090846001999897969594939210611a6e575b505050851b850190556119b1565b0135600019600384901b60f8161c191690558d8080611a60565b91936020600181928787013581550195019201611a46565b600954101561104e5789611915565b611adb8730337f0000000000000000000000000000000000000000000000000000000000000000616701565b61187e565b611aeb818684614e6b565b90501561109257600101611870565b346107b2576020806003193601126107b257611b17600435614d63565b6040929192519283916040830160408452825180915260206060850193019460005b828110611b545785806116b787878382036020850152614938565b86516001600160a01b031685529581019587955093810193600101611b39565b346107b25760203660031901126107b257611b8d615395565b6020611b9a600435616dc7565b6040519015158152f35b346107b25760803660031901126107b2576004356001600160401b036024358181116107b257611bd8903690600401614644565b90604435936064358481116107b257611bf5903690600401614644565b908642116107a057611c689161046061046692610458611c16368a8a614831565b9a8b516020809d012090604051908d8201927f9d80cfda7d3bef0d400175b9c54c79ff0f2018450a6987c3e6a106b910b83d5584528a604084015260608301526080820152608081526109658161476c565b611c7182615181565b6001600160a01b0391821691160361077957611c8c81614c55565b156108975782156110925760005260188452604060002092821161102957611cb882610f108554614868565b600093601f8311600114611ce757506115a192938291600092611cdc575050614aed565b013590508480610f39565b90601f198316948460005282600020926000905b878210611d33575050836001959610611d19575b505050811b019055005b0135600019600384901b60f8161c19169055838080611d0f565b80600184968294958701358155019501920190611cfb565b346107b25760403660031901126107b257611d64614575565b60243590811515908183036107b2576001600160a01b0316918215611dd457611da6903360005260066020526040600020846000526020526040600020614c44565b6040519081527f17307eab39ab6107e8899845ad3d59bd9653f200f220920489ca2b5937696c3160203392a3005b604051630b61174360e31b815260048101849052602490fd5b346107b25760003660031901126107b257602060405160008152f35b346107b25760203660031901126107b257611e2261496c565b33600090815260008051602061707e833981519152602052604090205460ff16156107f5576001600160601b03166127108111611e7b5760008051602061715e83398151915280546001600160601b0319169091179055005b60405163c2a2a95d60e01b8152600490fd5b346107b25760203660031901126107b257600435611ea9615395565b611eb28161611a565b6001600160a01b0390611ec490615a8c565b5116611ece615395565b611ed781614a22565b15611ede57005b6109b19061615e565b346107b25760003660031901126107b257604051600254600082611f0a83614868565b9182825260209360019085600182169182600014611f8d575050600114611f4d575b50611f39925003836147f3565b6116b7604051928284938452830190614550565b849150600260005281600020906000915b858310611f75575050611f39935082010185611f2c565b80548389018501528794508693909201918101611f5e565b60ff191685820152611f3995151560051b8501019250879150611f2c9050565b346107b25760003660031901126107b257602060008051602061717e8339815191525460a01c604051908152f35b346107b25760403660031901126107b257611ff461458b565b600435600052600060205260406000209060018060a01b0316600052602052602060ff604060002054166040519015158152f35b346107b25760003660031901126107b25760008051602061715e833981519152546040516001600160601b039091168152602090f35b346107b25760003660031901126107b2576040517f00000000000000000000000000000000000000000000000000000000000000006001600160a01b03168152602090f35b346107b25760003660031901126107b25761213e6120e07f0000000000000000000000000000000000000000000000000000000000000000616e5a565b6116b761210c7f0000000000000000000000000000000000000000000000000000000000000000616f37565b61214c6040519161211c836147bd565b60008352604051958695600f60f81b875260e0602088015260e0870190614550565b908582036040870152614550565b90466060850152306080850152600060a085015283820360c0850152614938565b346107b25760003660031901126107b25733600090815260008051602061707e833981519152602052604090205460ff16156107f5576121ab615395565b600160ff19600d541617600d557f62e78cea01bee320cd4e420270b5ea74000d11b0c9f74754ebdbfc544b05a2586020604051338152a1005b346107b25760803660031901126107b2576121fd614575565b6044356024356064356001600160401b0381116107b257612222903690600401614644565b92908142116107a0576122959361046061228c9261045860405160208101907f59bcf4730f527f68ed2585db45891e607e17e0a1fe74ec1a4c6c9e283e5c2855825260018060a01b0397888c1660408301528960608301526080820152608081526109658161476c565b90949194616d42565b80831690811561232e5781816122aa85615181565b160361230a57826000526016602052604060002054801561231c57846122f29187867f00000000000000000000000000000000000000000000000000000000000000006167ec565b6122fb83615181565b160361230a576109b19261578c565b6040516328cdac3360e01b8152600490fd5b604051630eb0d5b160e11b8152600490fd5b60405163d92e233d60e01b8152600490fd5b346107b25760203660031901126107b2576001600160a01b03612361614575565b16600052601a602052602060ff604060002054166040519015158152f35b346107b25760603660031901126107b257612398614575565b6001600160401b036024358181116107b2576123b8903690600401614644565b90926044358381116107b2576123d29036906004016145b7565b9390926123dd615395565b6001600160a01b03958387161561232e57811561109257601554156110c857601b54806125b6575b5061241f601454809561241782614a13565b6014556163dd565b6015549084600052602091601683528060406000205560178352604060002055601882526040600020938311611029576124638361245d8654614868565b86614a97565b600091601f841160011461254d5750612486929160009183612542575050614aed565b90555b601554928361249457005b6124f26109b1956124c87f000000000000000000000000000000000000000000000000000000000000000096303389616701565b60008051602061717e83398151915254908160a01c9160009280612513575b505050601554614c37565b9281612500575b505061677d565b61250c9130918461527e565b84806124f9565b6127109192935061252690601554614b6d565b04809281156124e75761253a921688616748565b8781816124e7565b013590508880610f39565b91601f1984168560005283600020936000905b82821061259e575050908460019594939210612584575b505050811b019055612489565b0135600019600384901b60f8161c19169055878080612577565b80600185978294968801358155019601930190612560565b600954101561104e5787612405565b346107b25760203660031901126107b25760206125e86125e3614575565b614ce1565b604051908152f35b346107b25760003660031901126107b257602060405160008051602061709e8339815191528152f35b346107b25760803660031901126107b2576126326145a1565b61263a615395565b6001600160a01b03811690811561232e57612656600435615181565b916001600160a01b03831690811461292757612673901515615e91565b6126806024351515616021565b61268d604435151561607c565b6004356000526000805160206170de8339815191526020526126ba60ff60046040600020015416156160d4565b6126e860443530337f0000000000000000000000000000000000000000000000000000000000000000616701565b61271b60008051602061717e833981519152548060a01c906000918061290d575b5081806128d3575b5050604435614c37565b9161271061274060018060601b0360008051602061715e833981519152541685614b6d565b049283612827575b6109b19361275591614c37565b806127f6575b50506127f161276c602435426151e0565b60046040519161277b8361476c565b3383526020830190428252604084019081526060840190604435825260808501926001845284356000526000805160206170de83398151915260205260406000209560018060a01b0390511660018060a01b03198754161786555160018601555160028501555160038401555115159101614c44565b615d11565b612820917f0000000000000000000000000000000000000000000000000000000000000000616748565b828061275b565b612832600435616338565b805161283f575b50612748565b9160009391935b83518110156128c7576001906127106128766001600160601b03602061286c858a614b80565b5101511689614b6d565b0480612884575b5001612846565b6128c190838060a01b036128988489614b80565b5151167f0000000000000000000000000000000000000000000000000000000000000000616748565b8761287d565b509150916109b1612839565b612906916001600160a01b03167f0000000000000000000000000000000000000000000000000000000000000000616748565b8481612711565b61271091925061291f90604435614b6d565b049085612709565b604051631f01c24760e31b8152600490fd5b346107b25760203660031901126107b25760043560005260186020526116b761296f6116a36040600020604051928380926148a2565b03826147f3565b346107b25760003660031901126107b2576020601554604051908152f35b346107b25760203660031901126107b25760206129b2600435615181565b6040516001600160a01b039091168152f35b346107b2576020806003193601126107b2576004356001600160401b0381116107b2576129f59036906004016145b7565b60008051602061711e83398151915260005260008352604060002033600052835260ff60406000205416156107f5576000805b828210612b2857612710915003610cec576000805160206171be8339815191529081546000835580612b02575b5060005b818110612a6257005b612a6d8183866151bc565b908354600160401b8110156110295760018101808655811015612aec57600192612ac288612ae69388600052816000200192868060a01b03612aae82614ebc565b16878060a01b0319855416178455016151cc565b9080546001600160a01b031660a09290921b6001600160a01b031916919091179055565b01612a59565b634e487b7160e01b600052603260045260246000fd5b8260005284600020908101905b818110612b1c5750612a55565b60008155600101612b0f565b600190612b46906001600160601b03610d2288610d1c87898b6151bc565b910190612a28565b346107b25760203660031901126107b2576116b7612b6d600435615c1c565b60405191829182614710565b346107b25760003660031901126107b257602060ff600d54166040519015158152f35b346107b2576020806003193601126107b2576001600160401b036004358181116107b257366023820112156107b257612bdf903690602481600401359101614831565b9160008051602061711e83398151915260005260008152604060002033600052815260ff60406000205416156107f557825191821161102957612c23601954614868565b601f8111612cc2575b5080601f8311600114612c5e57508190612c4e93600092612c53575050614aed565b601955005b015190508380610f39565b90601f19831693601960005282600020926000905b868210612caa5750508360019510612c91575b505050811b01601955005b015160001960f88460031b161c19169055828080612c86565b80600185968294968601518155019501930190612c73565b601960005281600020601f840160051c810191838510612cff575b601f0160051c01905b818110612cf35750612c2c565b60008155600101612ce6565b9091508190612cdd565b346107b25760603660031901126107b257612d22614575565b6044356024356001600160a01b03808316908184036107b257811561232e57612d4a83615181565b160361230a5780600052601660205260406000205492831561231c57612d96836109b19583857f00000000000000000000000000000000000000000000000000000000000000006167ec565b60405192612da3846147bd565b60008452611805838383614b00565b346107b25760a03660031901126107b257612dcb614575565b6024359060643590604435906084356001600160401b0381116107b257612df6903690600401614644565b93908142116107a057612e669461046061096d9261045860405160208101907faf45a5cd01ba55d05f1c402dedc42c73de3a407fb16434508366572ccab27671825260018060a01b0397888a1660408301528c60608301528a608083015260a082015260a08152610965816147a2565b612e6f85615181565b848216911603610779576109b193615437565b346107b25760203660031901126107b257600435600954811015612eb957612eab602091614cc6565b90546040519160031b1c8152f35b6044906040519063295f44f760e21b8252600060048301526024820152fd5b346107b25760203660031901126107b2576020611b9a600435614c55565b346107b25760a03660031901126107b257612f0f614575565b6024356001600160401b0381116107b257612f2e903690600401614644565b91906044356001600160401b0381116107b257612f4f9036906004016145b7565b916064356084356001600160401b0381116107b257612f72903690600401614644565b8242116107a05761046061046692610458612ff595612f92368d8a614831565b6020815191012090604051917f3244a904551cea4102da008ab856e2f1eb0bcd007bc5fd7256073c94920b4ade602084015260018060a01b038d1660408401526060830152608082015260808152612fe98161476c565b60208151910120615e6b565b6001600160a01b03858116911603610779576001600160a01b0384166000908152601a602052604090205460ff166113d057601554156110c857841561109257601b5480613236575b506014549461304c86614a13565b60145561305986866163dd565b601554866000526016602052806040600020556017602052604060002055601860205260406000209160018060401b0382116110295761309d82610f108554614868565b600090601f83116001146131cb576130bf929160009183612542575050614aed565b90555b6015549081613110575b5050506001600160a01b03166000818152601a6020908152604091829020805460ff1916600117905560155491519182526000805160206170be83398151915291a3005b61317b926131417f000000000000000000000000000000000000000000000000000000000000000093308786616701565b61316c60008051602061717e833981519152548060a01c9060009180613196575b5050601554614c37565b9181613183575b50508461677d565b8280806130cc565b61318f9130918861527e565b8580613173565b6127109192506131a890601554614b6d565b0490818015613162576131c4916001600160a01b031687616748565b8881613162565b836000939293526020600020906000935b601f198416851061321e576001945083601f19811610613204575b505050811b0190556130c2565b0135600019600384901b60f8161c191690558780806131f7565b818101358355602094850194600190930192016131dc565b600954101561104e578561303e565b346107b2576020806003193601126107b2576004356001600160401b0381116107b2576132769036906004016145b7565b60008051602061711e83398151915260005260008352604060002033600052835260ff60406000205416156107f5576000805b82821061335b57612710915003610cec5760008051602061727e8339815191529081546000835580613335575b5060005b8181106132e357005b6132ee8183866151bc565b908354600160401b8110156110295760018101808655811015612aec57600192612ac28861332f9388600052816000200192868060a01b03612aae82614ebc565b016132da565b8260005284600020908101905b81811061334f57506132d6565b60008155600101613342565b600190613379906001600160601b03610d2288610d1c87898b6151bc565b9101906132a9565b346107b25760203660031901126107b2576116b7612b6d600435616338565b346107b2576020806003193601126107b257600435906133c86133c283615181565b836162ab565b60008281526003825260409020546001600160a01b031680159190821580613590575b6000858152600384526040812080546001600160a01b03191690558590836000805160206171de8339815191528280a4831561350b57505060095483600052600a825280604060002055600160401b811015611029578361053d8260016134559401600955614cc6565b600954600019918282019182116134f557600a908560005281815261347f60406000205493614cc6565b90549060031b1c6134938161053d86614cc6565b60005252604060002055826000526000604081205560095480156134df57016134be6105c082614cc6565b6009556134c757005b60249060405190637e27328960e01b82526004820152fd5b634e487b7160e01b600052603160045260246000fd5b634e487b7160e01b600052601160045260246000fd5b613516575b50613455565b61351f81614ce1565b84600052600883526040600020549160005260078352604060002091818103613565575b5084600052600883526000604081205560005281526000604081205583613510565b8160005282845260406000205481600052806040600020556000526008845260406000205585613543565b61359985616b56565b8160005260048352604060002060001981540190556133eb565b346107b2576109b16135c436614671565b9060405192612da3846147bd565b346107b25760003660031901126107b25733600090815260008051602061707e833981519152602052604090205460ff16156107f557600d5460ff8116156136475760ff1916600d557f5db9ee0a495bf2e6ff9c91a7834c1ba4fdd244a5e8aa4e537bd38aeae4b073aa6020604051338152a1005b604051638dfc202b60e01b8152600490fd5b346107b25760403660031901126107b25761367261458b565b336001600160a01b0382160361368e576109b190600435616248565b60405163334bd91960e11b8152600490fd5b346107b25760803660031901126107b2576004356136bc61458b565b906044356064356001600160401b0381116107b2576136df903690600401614644565b916136e8615395565b8042116107a057610458916137566104666040519561046060208801947f4c2e6b550c80c2b2d5bdaf810190bbb58f3e053a2b43e38a663c5b5197fe74ca86528960408a015260018060a01b03978896878d169a8b998a60608301526080820152608081526109658161476c565b16036107795761376583615a8c565b511603610779576137759061611a565b611ece615395565b346107b25761378b366146c1565b61379796939596615395565b8242116107a057610460610466926104586138099560405160208101917f04c9429b7be476f4cd813816f812c191113fa4f00477094b2c62df30b9783ea383528960408301528c60608301528a608083015260018060a01b038c1660a083015260c082015260c08152610965816147d8565b6001600160a01b03848116911603610779576001600160a01b0383161561232e5761383381615181565b936001600160a01b03808616908516811461292757613853901515615e91565b61385e811515616021565b61386983151561607c565b816000526000805160206170de83398151915260205261389460ff60046040600020015416156160d4565b6138c08330867f0000000000000000000000000000000000000000000000000000000000000000616701565b6138f160008051602061717e833981519152548060a01c9060009180613ac1575b508180613a87575b505084614c37565b9461271061391660018060601b0360008051602061715e833981519152541688614b6d565b0495866139ff575b6004926127f19594926139376109b19961394594614c37565b806139ce575b5050426151e0565b92604051936139538561476c565b6001600160a01b038781168652426020808801918252604080890194855260608901958652600160808a0181815260009889526000805160206170de8339815191529093529620975188546001600160a01b031916931692909217875551938601939093555160028501555160038401555115159101614c44565b6139f8917f0000000000000000000000000000000000000000000000000000000000000000616748565b888061393d565b613a0884616338565b8051613a15575b5061391e565b94929095939160005b8651811015613a7657600190612710613a4e6001600160601b036020613a44858d614b80565b510151168c614b6d565b0480613a5c575b5001613a1e565b613a7090838060a01b03612898848c614b80565b8a613a55565b509395929450909290916004613a0f565b613aba916001600160a01b03167f0000000000000000000000000000000000000000000000000000000000000000616748565b87816138e9565b612710919250613ad19087614b6d565b0490886138e1565b346107b25760203660031901126107b25760043560005260166020526020604060002054604051908152f35b346107b257613b13366146c1565b613b239695949693929193615395565b8142116107a057610466613b989161046060405196610458602089017feb1b9beb142887d8e9f09de0dad5352b7830094b3d8730f2bc71fcf59534defd81528b60408b01528a60608b01528c60808b015260018060a01b038916998a988960a083015260c082015260c08152610965816147d8565b6001600160a01b03160361077957816001600160a01b03613bb886615a8c565b51160361077957613bc884615181565b91613bdd6001600160a01b0384161515615e91565b8015613e4e57613c7f91613c578792613bf7871515615eda565b613c02841515615f39565b876000526000805160206170de833981519152602052613c2c60ff60046040600020015416615f97565b60008881526000805160206170de83398151915260205260409020546001600160a01b031614615fd9565b30907f0000000000000000000000000000000000000000000000000000000000000000616701565b613cb060008051602061717e833981519152548060a01c9060009180613e36575b508180613dfc575b505085614c37565b60008051602061715e8339815191525461271090613cd7906001600160601b031683614b6d565b049081613d75575b90613ce991614c37565b80613d44575b5050816000526000805160206170de833981519152602052613d1a60026040600020019182546151e0565b90556000526000805160206170de8339815191526020526115a160036040600020019182546151e0565b613d6e917f0000000000000000000000000000000000000000000000000000000000000000616748565b8380613cef565b613d7e85616338565b8051613d8b575b50613cdf565b93909491959260005b8551811015613dec57600190612710613dc46001600160601b036020613dba858c614b80565b510151168b614b6d565b0480613dd2575b5001613d94565b613de690838060a01b03612898848b614b80565b89613dcb565b5092959194909350613ce9613d85565b613e2f916001600160a01b03167f0000000000000000000000000000000000000000000000000000000000000000616748565b8681613ca8565b612710919250613e469088614b6d565b049087613ca0565b60405162461bcd60e51b815260206004820152601460248201527350617965722063616e6e6f74206265207a65726f60601b6044820152606490fd5b346107b25760403660031901126107b257613ea3614575565b60243590613eb081614ce1565b821015613ee35760018060a01b031660005260076020526040600020906000526020526020604060002054604051908152f35b61070860405192839263295f44f760e21b8452600484016146a6565b346107b25760403660031901126107b2576109b1600435613f1e61458b565b90806000526000602052613f39600160406000200154615ccd565b615e04565b346107b25760003660031901126107b2576020601b54604051908152f35b346107b257613f73613f6d36614517565b90614b94565b906116b7604051928392836146a6565b346107b25760203660031901126107b257613f9c615395565b60a0613fa9600435615a8c565b600180831b03815116906020810151906040810151608060608301519201511515926040519485526020850152604084015260608301526080820152f35b346107b25760203660031901126107b25760043560005260006020526020600160406000200154604051908152f35b346107b2576109b161402736614671565b91614b00565b346107b25760803660031901126107b257614046614575565b5061404f61458b565b5061405b604435615c1c565b51151580614071575b6020906040519015158152f35b506064351515614064565b346107b2576109b161408d3661461a565b90915061409982615181565b9033927f00000000000000000000000000000000000000000000000000000000000000006155cc565b346107b25760003660031901126107b2576020600954604051908152f35b346107b25760403660031901126107b2576004356001600160401b036024358181116107b257614114903690600401614644565b9060008051602061711e83398151915260005260209360008552604060002033600052855260ff60406000205416156107f55761415081614c55565b15610897578215611092576000526018845260406000209282116110295761417c82610f108554614868565b600093601f83116001146141a057506115a192938291600092611cdc575050614aed565b90601f198316948460005282600020926000905b8782106141d1575050836001959610611d1957505050811b019055005b806001849682949587013581550195019201906141b4565b346107b2576109b16141fa3661461a565b909161420583615181565b92615437565b346107b25760203660031901126107b2576020611b9a614229614575565b614231615395565b614a22565b346107b257614244366145e7565b33600090815260008051602061707e833981519152602052604090205491929160ff16156107f5576109b192309261527e565b346107b25760403660031901126107b257614290614575565b60243561429c81615181565b3315158061434b575b8061431e575b614306576001600160a01b039283169282918491167f8c5be1e5ebec7d5bd14f71427d1e84f3dd0314c0f7b2291e5b200ac8c7c3b925600080a4600090815260056020526040902080546001600160a01b0319169091179055005b60405163a9fbf51f60e01b8152336004820152602490fd5b5060018060a01b038116600052600660205260406000203360005260205260ff60406000205416156142ab565b506001600160a01b0381163314156142a5565b346107b25760203660031901126107b25760043561437b81615181565b506000526005602052602060018060a01b0360406000205416604051908152f35b346107b25760003660031901126107b2576040516000600182600154926143c284614868565b9283835260209485600182169182600014611f8d5750506001146143ed5750611f39925003836147f3565b849150600160005281600020906000915b858310614415575050611f39935082010185611f2c565b805483890185015287945086939092019181016143fe565b346107b25761443b36614517565b61444482615181565b336001600160a01b03909116036107675761084382614c55565b346107b25760203660031901126107b2576004359063ffffffff60e01b82168092036107b25760209163152a902d60e11b81149081156144a0575b5015158152f35b63780e9d6360e01b8114915081156144ba575b5083614499565b6380ac58cd60e01b811491508115614506575b81156144db575b50836144b3565b637965db0b60e01b8114915081156144f5575b50836144d4565b6301ffc9a760e01b149050836144ee565b635b5e139f60e01b811491506144cd565b60409060031901126107b2576004359060243590565b60005b8381106145405750506000910152565b8181015183820152602001614530565b906020916145698151809281855285808601910161452d565b601f01601f1916010190565b600435906001600160a01b03821682036107b257565b602435906001600160a01b03821682036107b257565b606435906001600160a01b03821682036107b257565b9181601f840112156107b2578235916001600160401b0383116107b2576020808501948460061b0101116107b257565b9060406003198301126107b25760043591602435906001600160401b0382116107b257614616916004016145b7565b9091565b60609060031901126107b2576004356001600160a01b03811681036107b257906024359060443590565b9181601f840112156107b2578235916001600160401b0383116107b257602083818601950101116107b257565b60609060031901126107b2576001600160a01b039060043582811681036107b2579160243590811681036107b2579060443590565b6001600160a01b039091168152602081019190915260400190565b9060c06003198301126107b2576004359160243591604435916064356001600160a01b03811681036107b257916084359160a435906001600160401b0382116107b25761461691600401614644565b60208082019080835283518092528060408094019401926000905b83821061473a57505050505090565b845180516001600160a01b031687528301516001600160601b031686840152948501949382019360019091019061472b565b60a081019081106001600160401b0382111761102957604052565b604081019081106001600160401b0382111761102957604052565b60c081019081106001600160401b0382111761102957604052565b602081019081106001600160401b0382111761102957604052565b60e081019081106001600160401b0382111761102957604052565b601f909101601f19168101906001600160401b0382119082101761102957604052565b6001600160401b03811161102957601f01601f191660200190565b92919261483d82614816565b9161484b60405193846147f3565b8294818452818301116107b2578281602093846000960137010152565b90600182811c92168015614898575b602083101461488257565b634e487b7160e01b600052602260045260246000fd5b91607f1691614877565b8054600093926148b182614868565b9182825260209360019160018116908160001461491957506001146148d8575b5050505050565b90939495506000929192528360002092846000945b838610614905575050505001019038808080806148d1565b8054858701830152940193859082016148ed565b60ff19168685015250505090151560051b0101915038808080806148d1565b90815180825260208080930193019160005b828110614958575050505090565b83518552938101939281019260010161494a565b600435906001600160601b03821682036107b257565b9181601f840112156107b2578235916001600160401b0383116107b2576020808501948460051b0101116107b257565b9060606003198301126107b2576001600160401b036004358181116107b257836149de91600401614982565b939093926024358381116107b257826149f991600401614982565b939093926044359182116107b257614616916004016145b7565b60001981146134f55760010190565b6014549060019060015b83811115614a3d5750505050600090565b604060008281526000805160206170de8339815191526020522060ff6004820154169081614a80575b50614a7957614a7490614a13565b614a2c565b5050905090565b546001600160a01b03848116911614905038614a66565b90601f8111614aa557505050565b6000916000526020600020906020601f850160051c83019410614ae3575b601f0160051c01915b828110614ad857505050565b818155600101614acc565b9092508290614ac3565b8160011b916000199060031b1c19161790565b91906001600160a01b039081811615614b5457614b20829184339161578c565b9316921690828203614b3157505050565b60649350604051926364283d7b60e01b8452600484015260248301526044820152fd5b604051633250574960e11b815260006004820152602490fd5b818102929181159184041417156134f557565b8051821015612aec5760209160051b010190565b919060008115614c235750915b8215614c1a5761271090614bd982614bd260018060601b03968760008051602061715e833981519152541690614b6d565b0491615c1c565b908151158015614bf157505050509050600090600090565b612aec576020614c0a9201519460208601511690614b6d565b92516001600160a01b0316920490565b50600091508190565b604091508381526016602052205491614ba1565b919082039182116134f557565b9060ff801983541691151516179055565b604051906331a9108f60e11b82526004820152602081602481305afa9081614c87575b50614c8257600090565b600190565b6020813d602011614cbe575b81614ca0602093836147f3565b810103126107b257516001600160a01b038116036107b25738614c78565b3d9150614c93565b600954811015612aec57600960005260206000200190600090565b6001600160a01b03168015614d0157600052600460205260406000205490565b6040516322718ad960e21b815260006004820152602490fd5b6001600160401b0381116110295760051b60200190565b90614d3b82614d1a565b614d4860405191826147f3565b8281528092614d59601f1991614d1a565b0190602036910137565b90600082815260209260166020526040822054908115614e5b5761271091614daf83614da860018060601b03938460008051602061715e833981519152541690614b6d565b0492615c1c565b95865115614e2f57614dc18751614d31565b96614dcc8151614d31565b955b8151811015614e26576001906001600160a01b03614dec8285614b80565b515116614df9828c614b80565b5286614e148686614e0a8588614b80565b5101511688614b6d565b04614e1f828a614b80565b5201614dce565b50505050505090565b505050509150604051614e41816147bd565b82815260405192614e51846147bd565b8084523681379190565b50509150604051614e41816147bd565b9190811015612aec5760051b81013590601e19813603018212156107b25701803591906001600160401b0383116107b25760200182360381136107b2579190565b9190811015612aec5760051b0190565b356001600160a01b03811681036107b25790565b9190808252602080920192916000805b838210614eef57505050505090565b9091929394853560018060a01b038116809103614f19578152830194830193929160010190614ee0565b8280fd5b614f2681614c55565b1561516f5760008181526020916018835261296f614f4d60408420604051928380926148a2565b805161516857509081908072184f03e93ff9f4daa797ed6e38ed64bf6a1f0160401b838181101561515a575b508590506904ee2d6d415b85acef8160201b8086101561514b575b5050662386f26fc100008085101561513c575b506305f5e1008085101561512d575b506127108085101561511e575b50606484101561510e575b600a80941015615104575b6001916001810194615003614fed87614816565b96614ffb60405198896147f3565b808852614816565b9484602189890194601f19809901368737890101905b6150d5575b505050604051958693836019549161503583614868565b92600181169081156150b45750600114615070575b50505050615060829161506d965193849161452d565b01039081018352826147f3565b90565b90919297939450601982528782205b83831061509e5750505061506d9561506091850101929195388061504a565b80548a84018a015289965091880191810161507f565b60ff19168886015250505080151502840101915061506061506d388061504a565b600019019082906f181899199a1a9b1b9c1cb0b131b232b360811b8282061a835304908582615019575061501e565b9060010190614fd9565b9092606460029104930190614fce565b60049192940493019038614fc3565b60089192940493019038614fb6565b60109192940493019038614fa7565b90919294049301908438614f94565b049350604091503880614f79565b9250505090565b604051636c01c8cf60e11b8152600490fd5b6000818152600360205260409020546001600160a01b03169081156134c7575090565b908160209103126107b2575180151581036107b25790565b9190811015612aec5760061b0190565b356001600160601b03811681036107b25790565b919082018092116134f557565b805490600090600081558261520157505050565b6000526020600020918201915b82811061521a57505050565b81815560010161520e565b908154600160401b8110156110295760018101808455811015612aec576020612ac29161527c9460005281600020019260018060a01b0361526582614ebc565b85546001600160a01b0319169116178455016151cc565b565b9291909160409081518091634f558e7960e01b825286600483015281602460209485935afa90811561538a5760009161536d575b501561535c576000805b84821061533657612710915003615325578460005260008051602061713e833981519152908181526152f0836000206151ed565b60005b8481106153035750505050505050565b6001908760005283835261531f85600020610ce083898b6151bc565b016152f3565b8151630569d67b60e21b8152600490fd5b600190615354906001600160601b03610d2286610d1c878b8d6151bc565b9101906152bc565b815163677510db60e11b8152600490fd5b6153849150823d8411610d5757610d4981836147f3565b386152b2565b83513d6000823e3d90fd5b60ff600d54166153a157565b60405163d93c066560e01b8152600490fd5b156153ba57565b60405162461bcd60e51b815260206004820152602160248201527f53616c65207072696365206d7573742062652067726561746572207468616e206044820152600360fc1b6064820152608490fd5b90815260609190911b6001600160601b03191660208201526034810191909152605481019190915260740190565b91929091906001600160a01b0390811615615509578216156154c957615487615479916154658515156153b3565b604051928391866020840196429288615409565b03601f1981018352826147f3565b51902060005260008051602061729e8339815191526020526040600020600160ff1982541617905560008051602061725e833981519152602052604060002055565b60405162461bcd60e51b8152602060048201526018602482015277526563697069656e742063616e6e6f74206265207a65726f60401b6044820152606490fd5b60405162461bcd60e51b81526020600482015260146024820152734f776e65722063616e6e6f74206265207a65726f60601b6044820152606490fd5b1561554c57565b60405162461bcd60e51b815260206004820152601560248201527453656c6c65722063616e6e6f74206265207a65726f60581b6044820152606490fd5b1561559057565b60405162461bcd60e51b815260206004820152601460248201527342757965722063616e6e6f74206265207a65726f60601b6044820152606490fd5b9392916001600160a01b0391906155e68385161515615545565b6155f38386161515615589565b6155fe8115156153b3565b6000805b6103e88110615726575b50156156ca5761567f926156499160008051602061717e833981519152548060a01c92600093806156b2575b5083908161569e575b505050614c37565b61567a858761271061567260018060601b0360008051602061715e833981519152541686614b6d565b048095616b74565b614c37565b918261568c575b50505050565b61569593616701565b38808080615686565b6156aa9216898b616701565b388281615641565b6127109194506156c29084614b6d565b049238615638565b60405162461bcd60e51b815260206004820152602e60248201527f5472616e73666572206e6f7420696e69746961746564206f7220726f79616c7460448201526d1e48185b1c9958591e481c185a5960921b6064820152608490fd5b6157308142614c37565b60008051602061729e833981519152888661547961575d60409586519283918b6020978885019788615409565b51902060005252600020805460ff811661577b575050600101615602565b60ff1916905550600190503861560c565b6000908282526020926003845260018060a01b036040928184862054169682811680151590816159eb575b50505086159182156159cb575b81169182159081156159b5575b8487526003885285872080546001600160a01b0319168517905584848a6000805160206171de8339815191528a80a41561594957600954848752600a8852858720819055600160401b811015615935578461053d8260016158359401600955614cc6565b156158cd575050600954600019948582019182116158b95790600a839286959486528181526158678587205493614cc6565b90549060031b1c61587b8161053d86614cc6565b8652528284205582528120556009549081156158a557500161589f6105c082614cc6565b60095590565b634e487b7160e01b81526031600452602490fd5b634e487b7160e01b85526011600452602485fd5b818796939296959495036158e45750505050505090565b6158ed90614ce1565b6000198101959086116159215783526007825283832085845282528383208190558252600890522055388080808080614e26565b634e487b7160e01b84526011600452602484fd5b634e487b7160e01b87526041600452602487fd5b8783146158355761595988614ce1565b8487526008885285872054908988526007895286882091818103615993575b50858852600889528787812055875287528585812055615835565b818952828a5287892054818a5280898b2055895260088a528789205538615978565b83875260048852858720600181540190556157d1565b6159d484616b56565b8786526004875284862080546000190190556157c4565b81615a3f575b50156159fe5780806157b7565b8484918915600014615a22578151637e27328960e01b815260048101849052602490fd5b905163177e802f60e01b81529182916107089190600484016146a6565b89811491508115615a6f575b8115615a59575b50386159f1565b9050848752600588528386882054161438615a52565b8988526006895286882081895289528688205460ff169150615a4b565b6040805191615a9a8361476c565b6000908184528160806020958287820152828682015282606082015201528251634f558e7960e01b81528160048201528481602481305afa908115615b9d578391615b80575b5015615b455791808260ff94600494526000805160206170de83398151915286522090805194615b0f8661476c565b82546001600160a01b03168652600183015490860152600282015490850152600381015460608501520154161515608082015290565b825162461bcd60e51b8152600481018590526014602482015273151bdad95b88191bd95cc81b9bdd08195e1a5cdd60621b6044820152606490fd5b615b979150853d8711610d5757610d4981836147f3565b38615ae0565b84513d85823e3d90fd5b908154615bb381614d1a565b92604093615bc460405191826147f3565b82815280946020809201926000526020600020906000935b858510615beb57505050505050565b60018481928451615bfb81614787565b8654848060a01b038116825260a01c83820152815201930194019391615bdc565b600052602060008051602061719e83398151915260205260409060406000208054615cc157506000805160206171be833981519152805491615c5d83614d1a565b93615c6b60405195866147f3565b83855260208501926000526020600020906000935b858510615c905750505050505090565b60018481928451615ca081614787565b8654848060a01b038116825260a01c83820152815201930194019391615c80565b905061506d9150615ba7565b80600052600060205260406000203360005260205260ff6040600020541615615cf35750565b6044906040519063e2517d3f60e01b82523360048301526024820152fd5b6001600160a01b031660008181526000805160206170fe83398151915260205260408120549091906000805160206171fe8339815191529060ff16615d8857808352826020526040832082845260205260408320600160ff1982541617905560008051602061705e833981519152339380a4600190565b505090565b6001600160a01b0316600081815260008051602061723e833981519152602052604081205490919060008051602061709e8339815191529060ff16615d8857808352826020526040832082845260205260408320600160ff1982541617905560008051602061705e833981519152339380a4600190565b9060009180835282602052604083209160018060a01b03169182845260205260ff60408420541615600014615d8857808352826020526040832082845260205260408320600160ff1982541617905560008051602061705e833981519152339380a4600190565b604290615e76616bec565b906040519161190160f01b8352600283015260228201522090565b15615e9857565b60405162461bcd60e51b815260206004820152601a602482015279546f6b656e206f776e65722063616e6e6f74206265207a65726f60301b6044820152606490fd5b15615ee157565b60405162461bcd60e51b815260206004820152602a60248201527f4164646974696f6e616c206475726174696f6e206d75737420626520677265616044820152690746572207468616e20360b41b6064820152608490fd5b15615f4057565b60405162461bcd60e51b815260206004820152602960248201527f4164646974696f6e616c207061796d656e74206d75737420626520677265617460448201526806572207468616e20360bc1b6064820152608490fd5b15615f9e57565b60405162461bcd60e51b8152602060048201526013602482015272151bdad95b881a5cc81b9bdd081c995b9d1959606a1b6044820152606490fd5b15615fe057565b60405162461bcd60e51b815260206004820152601960248201527821b0b63632b91036bab9ba103132903a3432903932b73a32b960391b6044820152606490fd5b1561602857565b60405162461bcd60e51b815260206004820152602660248201527f52656e74616c206475726174696f6e206d75737420626520677265617465722060448201526507468616e20360d41b6064820152608490fd5b1561608357565b60405162461bcd60e51b815260206004820152602360248201527f52656e74616c207072696365206d75737420626520677265617465722074686160448201526206e20360ec1b6064820152608490fd5b156160db57565b60405162461bcd60e51b8152602060048201526017602482015276151bdad95b881a5cc8185b1c9958591e481c995b9d1959604a1b6044820152606490fd5b806000526000805160206170de833981519152908160205261614660ff60046040600020015416615f97565b600052602052600460406000200160ff198154169055565b6001600160a01b031660008181526000805160206170fe83398151915260205260408120549091906000805160206171fe8339815191529060ff1615615d885780835282602052604083208284526020526040832060ff19815416905560008051602061721e833981519152339380a4600190565b6001600160a01b0316600081815260008051602061723e833981519152602052604081205490919060008051602061709e8339815191529060ff1615615d885780835282602052604083208284526020526040832060ff19815416905560008051602061721e833981519152339380a4600190565b9060009180835282602052604083209160018060a01b03169182845260205260ff604084205416600014615d885780835282602052604083208284526020526040832060ff19815416905560008051602061721e833981519152339380a4600190565b6001600160a01b0391821691906162c3831515615e91565b6162cc81616dc7565b6162d557505050565b6000526000805160206170de83398151915260205260406000205416036162f857565b60405162461bcd60e51b815260206004820152601860248201527721b0b73737ba10313ab937103932b73a32b2103a37b5b2b760411b6044820152606490fd5b600052602060008051602061713e83398151915260205260409060406000208054615cc1575060008051602061727e83398151915280549161637983614d1a565b9361638760405195866147f3565b83855260208501926000526020600020906000935b8585106163ac5750505050505090565b600184819284516163bc81614787565b8654848060a01b038116825260a01c8382015281520193019401939161639c565b919060408051906163ed826147bd565b6000808352926001600160a01b038681169390919084156166e95785969782875260209360038552858820541680159087821592836166c9575b818b526004808952898c2080546001019055878c5260038952898c2080546001600160a01b031916841790559a8790839085906000805160206171de8339815191529080a4156166595750600954858b52600a8752878b20819055600160401b81101561664657906164a48661053d8460018d9601600955614cc6565b036165fa575b6165e3573b6164bd575b50505050505050565b826164fb91859697989994955180938192630a85bd0160e11b96878452338d8501528d60248501526044840152608060648401526084830190614550565b03818b8a5af188918161659f575b50616568575050503d60001461655f573d61652381614816565b90616530845192836147f3565b81528095823d92013e5b8451948561655957505051633250574960e11b81529182015260249150fd5b85925001fd5b6060945061653a565b919650915063ffffffff60e01b160361658a57505050388080808080806164b4565b51633250574960e11b81529182015260249150fd5b9091508481813d83116165dc575b6165b781836147f3565b810103126165d857516001600160e01b0319811681036165d8579038616509565b8880fd5b503d6165ad565b84516339e3563760e11b8152808801899052602490fd5b61660382614ce1565b600019810190811161663357878a5260078652868a20818b52865284878b2055848a5260088652868a20556164aa565b634e487b7160e01b8a526011895260248afd5b634e487b7160e01b8b5260418a5260248bfd5b908082146164a4578a61666b82614ce1565b878252600889528982205483835260078a528a808420938383036166a7575b905089915052600889528c8a8120558c5287528a888120556164a4565b838152848c52818120548382528083832055815260088c522055388a8e61668a565b6166d287616b56565b828b5260048852888b208054600019019055616427565b8351633250574960e11b815260048101879052602490fd5b6040516323b872dd60e01b60208201526001600160a01b03928316602482015292909116604483015260648083019390935291815261527c916167438261476c565b616dfe565b61674361527c939261676f60405194859263a9059cbb60e01b6020850152602484016146a6565b03601f1981018452836147f3565b61678a9093929193616338565b9060005b82518110156167e5576001906127106167b46001600160601b036020614e0a8589614b80565b04806167c2575b500161678e565b6167df90838060a01b036167d68488614b80565b51511685616748565b386167bb565b5050509050565b929390926001600160a01b036168058482161515615589565b6168128184161515615545565b61681d8615156153b3565b60008051602061717e833981519152805460a01c90600091806169f1575b5061684888308887616701565b6168528289614c37565b9183816169dd575b505060008051602061715e83398151915254612710936001600160601b03925090849061688990841685614b6d565b049384616950575b5050509061689e91614c37565b828161693f575b505050604051916020830193845260018060601b0319809260601b16604084015260601b166054820152604881526080810181811060018060401b03821117611029576040525190206000527f6b770677edae0e90cca492948fa872f24dbe9c82ebeb8d39118b033a5e1bd3e16020526040600020600160ff1982541617905560008051602061725e833981519152602052604060002055565b61694892616748565b3880826168a5565b61695989615c1c565b928351616967575b50616891565b9495989197909660009b949a939b5b8c518110156169c35780808e8d8d8d6169988e8e60206115ff60019b89614b80565b0492836169ab575b505050505001616976565b6169b89461162991614b80565b80388f8d8f916169a0565b509650965096939198509661689e92509091388080616961565b6169e992541685616748565b38808361685a565b612710919250616a019089614b6d565b04903861683b565b90939192833b616a1a575050505050565b604051630a85bd0160e11b8082526001600160a01b039384166004830152958316602482015260448101919091526080606482015294921692602092918590616a67906084830190614550565b039483816000978189895af1869181616b12575b50616adc575050503d600014616ad3573d616a9581614816565b90616aa360405192836147f3565b81528093823d92013e5b82519283616ace57604051633250574960e11b815260048101849052602490fd5b019050fd5b60609250616aad565b919450915063ffffffff60e01b1603616afa575038808080806148d1565b60249060405190633250574960e11b82526004820152fd5b9091508481813d8311616b4f575b616b2a81836147f3565b81010312616b4b57516001600160e01b031981168103616b4b579038616a7b565b8680fd5b503d616b20565b600090815260056020526040902080546001600160a01b0319169055565b616b819094939194615c1c565b918251156167e55760005b8351811015616be457600190612710616bb26001600160601b03602061286c858a614b80565b0480616bc0575b5001616b8c565b616bde90838060a01b03616bd48489614b80565b5151168686616701565b38616bb9565b505050509050565b307f00000000000000000000000000000000000000000000000000000000000000006001600160a01b03161480616cdd575b15616c47577f000000000000000000000000000000000000000000000000000000000000000090565b60405160208101907f8b73c3c69bb8fe3d512ecc4cf759cc79239f7b179b0ffacaa9a75d522b39400f82527f000000000000000000000000000000000000000000000000000000000000000060408201527f000000000000000000000000000000000000000000000000000000000000000060608201524660808201523060a082015260a08152616cd7816147a2565b51902090565b507f00000000000000000000000000000000000000000000000000000000000000004614616c1e565b8151919060418303616d3757616d3092506020820151906060604084015193015160001a90616fd7565b9192909190565b505060009160029190565b6004811015616db15780616d54575050565b60018103616d6e5760405163f645eedf60e01b8152600490fd5b60028103616d8f5760405163fce698f760e01b815260048101839052602490fd5b600314616d995750565b602490604051906335e2f38360e21b82526004820152fd5b634e487b7160e01b600052602160045260246000fd5b6000526000805160206170de833981519152602052604060002060ff6004820154169081616df3575090565b600291500154421090565b906000602091828151910182855af115610d5e576000513d616e5157506001600160a01b0381163b155b616e2f5750565b604051635274afe760e01b81526001600160a01b039091166004820152602490fd5b60011415616e28565b60ff8114616e985760ff811690601f8211616e865760405191616e7c83614787565b8252602082015290565b604051632cd44ac360e21b8152600490fd5b50604051600e54816000616eab83614868565b808352602093600190818116908115616f175750600114616ed5575b505061506d925003826147f3565b90939150600e60005281600020936000915b818310616eff57505061506d93508201013880616ec7565b85548784018501529485019486945091830191616ee7565b91505061506d94925060ff191682840152151560051b8201013880616ec7565b60ff8114616f595760ff811690601f8211616e865760405191616e7c83614787565b50604051600f54816000616f6c83614868565b808352602093600190818116908115616f175750600114616f9557505061506d925003826147f3565b90939150600f60005281600020936000915b818310616fbf57505061506d93508201013880616ec7565b85548784018501529485019486945091830191616fa7565b91906fa2a8918ca85bafe22016d0b997e4df60600160ff1b03841161705157926020929160ff608095604051948552168484015260408301526060820152600092839182805260015afa156170455780516001600160a01b0381161561703c57918190565b50809160019190565b604051903d90823e3d90fd5b5050506000916003919056fe2f8788117e7eff1d82e926ec794901d17c78024a50270940304540a733656f0dd329ff8a035c3ce5df2b0dae604d660c0d8783bf7e64be00c1d10db96c0b87b4797343f8d6a29aafeb3aaf0910a8973e0081c60c2f6c1f775cd9f76ea348fc1ecb1e26772e882480176a3e649a5f7937dc0ec3f50126283faf56f927b070be80efbf0e557c8acb6e3deb011ac697e5553b802e419ed4680395101c0ddc5e872364d20ad6c082d9621149fdda479032d4fb46f976cd92c72281623a586193c3b8b19546dff01e856fb3f010c267a7b1c60363cf8a4664e21cc89c26224620214e1aa44fcb526383bd2f7c6231f8c09a41edc5b654966336907d6f785a5b3d28921aa44fcb526383bd2f7c6231f8c09a41edc5b654966336907d6f785a5b3d288fde1159fbbeca73b2aca5752c42b257ca18171ae3b3d3bbf22c7938e3a961a0cb1aa44fcb526383bd2f7c6231f8c09a41edc5b654966336907d6f785a5b3d28931aa44fcb526383bd2f7c6231f8c09a41edc5b654966336907d6f785a5b3d2891ddf252ad1be2c89b69c2b068fc378daa952ba7f163c4a11628f55a4df523b3ef3b652633b3026fa70803ad50b58b0ae884cefe3497643f62c67c466f41a6e88df6391f5c32d9c69d2a47ea670b442974b53935d1edc7fd64eb21e047a839171b004137ac999875a62b0381e65f8832c0a903cf25418dd0c40107411aa55dc6876b770677edae0e90cca492948fa872f24dbe9c82ebeb8d39118b033a5e1bd3e01aa44fcb526383bd2f7c6231f8c09a41edc5b654966336907d6f785a5b3d28906b770677edae0e90cca492948fa872f24dbe9c82ebeb8d39118b033a5e1bd3dfa164736f6c6343000818000a2f8788117e7eff1d82e926ec794901d17c78024a50270940304540a733656f0d405787fa12a823e0f2b7631cc41b3ba8828b3321ca811111fa75cd3aa3bb5aceb10e2d527612073b26eecdfd717e6a320cf44b4afac2b0732d9fcbe2b7fa0cf6",
  "linkReferences": {},
  "deployedLinkReferences": {}
}